{
  "_format": "hh-sol-artifact-1",
  "contractName": "InvestorLp",
  "sourceName": "contracts/InvestorLp.sol",
  "abi": [
    {
      "inputs": [
        {
          "internalType": "address payable",
          "name": "_treasury",
          "type": "address"
        },
        {
          "internalType": "address[]",
          "name": "_targetToken",
          "type": "address[]"
        },
        {
          "internalType": "address",
          "name": "_stakingManager",
          "type": "address"
        },
        {
          "internalType": "address",
          "name": "_investmentAddress",
          "type": "address"
        },
        {
          "internalType": "address",
          "name": "_liquidityPool",
          "type": "address"
        },
        {
          "internalType": "address[]",
          "name": "_tokensToBeRewardedAddress",
          "type": "address[]"
        },
        {
          "internalType": "address",
          "name": "_investorHelper",
          "type": "address"
        },
        {
          "internalType": "uint256",
          "name": "_poolId",
          "type": "uint256"
        }
      ],
      "stateMutability": "nonpayable",
      "type": "constructor"
    },
    {
      "anonymous": false,
      "inputs": [
        {
          "indexed": true,
          "internalType": "address",
          "name": "user",
          "type": "address"
        },
        {
          "indexed": true,
          "internalType": "uint256",
          "name": "poolId",
          "type": "uint256"
        },
        {
          "indexed": false,
          "internalType": "uint256",
          "name": "token0Amount",
          "type": "uint256"
        },
        {
          "indexed": false,
          "internalType": "uint256",
          "name": "token1Amount",
          "type": "uint256"
        }
      ],
      "name": "DataBeforeLiquidityAdd",
      "type": "event"
    },
    {
      "anonymous": false,
      "inputs": [
        {
          "indexed": true,
          "internalType": "address",
          "name": "user",
          "type": "address"
        },
        {
          "indexed": true,
          "internalType": "uint256",
          "name": "poolId",
          "type": "uint256"
        },
        {
          "indexed": false,
          "internalType": "uint256",
          "name": "amount",
          "type": "uint256"
        }
      ],
      "name": "Deposit",
      "type": "event"
    },
    {
      "anonymous": false,
      "inputs": [
        {
          "indexed": true,
          "internalType": "uint256",
          "name": "poolId",
          "type": "uint256"
        },
        {
          "indexed": false,
          "internalType": "uint256",
          "name": "amount",
          "type": "uint256"
        }
      ],
      "name": "LpEarned",
      "type": "event"
    },
    {
      "anonymous": false,
      "inputs": [
        {
          "indexed": true,
          "internalType": "address",
          "name": "previousOwner",
          "type": "address"
        },
        {
          "indexed": true,
          "internalType": "address",
          "name": "newOwner",
          "type": "address"
        }
      ],
      "name": "OwnershipTransferred",
      "type": "event"
    },
    {
      "anonymous": false,
      "inputs": [
        {
          "indexed": true,
          "internalType": "uint256",
          "name": "poolId",
          "type": "uint256"
        },
        {
          "indexed": false,
          "internalType": "uint256",
          "name": "token0Amount",
          "type": "uint256"
        },
        {
          "indexed": false,
          "internalType": "uint256",
          "name": "token1Amount",
          "type": "uint256"
        },
        {
          "indexed": false,
          "internalType": "uint256",
          "name": "avaxAmount",
          "type": "uint256"
        }
      ],
      "name": "tokensGained",
      "type": "event"
    },
    {
      "stateMutability": "payable",
      "type": "fallback"
    },
    {
      "inputs": [],
      "name": "aprTracker",
      "outputs": [
        {
          "internalType": "uint256",
          "name": "",
          "type": "uint256"
        }
      ],
      "stateMutability": "view",
      "type": "function"
    },
    {
      "inputs": [
        {
          "internalType": "address",
          "name": "_newAddr",
          "type": "address"
        }
      ],
      "name": "changeHelperAddress",
      "outputs": [],
      "stateMutability": "nonpayable",
      "type": "function"
    },
    {
      "inputs": [
        {
          "internalType": "uint256",
          "name": "_newSlippage",
          "type": "uint256"
        }
      ],
      "name": "changeSlippage",
      "outputs": [],
      "stateMutability": "nonpayable",
      "type": "function"
    },
    {
      "inputs": [
        {
          "internalType": "address",
          "name": "_newStakingManager",
          "type": "address"
        }
      ],
      "name": "changeStakingManager",
      "outputs": [],
      "stateMutability": "nonpayable",
      "type": "function"
    },
    {
      "inputs": [
        {
          "internalType": "address",
          "name": "_tokenAddress",
          "type": "address"
        },
        {
          "internalType": "address",
          "name": "_spender",
          "type": "address"
        }
      ],
      "name": "checkAllowance",
      "outputs": [],
      "stateMutability": "nonpayable",
      "type": "function"
    },
    {
      "inputs": [
        {
          "internalType": "address",
          "name": "_tokenAddress",
          "type": "address"
        },
        {
          "internalType": "address",
          "name": "_stakingContract",
          "type": "address"
        },
        {
          "internalType": "address",
          "name": "_routerAddr",
          "type": "address"
        },
        {
          "internalType": "address",
          "name": "_avaxAddress",
          "type": "address"
        }
      ],
      "name": "depositAvaxLp",
      "outputs": [],
      "stateMutability": "payable",
      "type": "function"
    },
    {
      "inputs": [],
      "name": "evacuateAvax",
      "outputs": [],
      "stateMutability": "nonpayable",
      "type": "function"
    },
    {
      "inputs": [],
      "name": "evacuateFunds",
      "outputs": [],
      "stateMutability": "nonpayable",
      "type": "function"
    },
    {
      "inputs": [
        {
          "internalType": "address",
          "name": "_stakingContract",
          "type": "address"
        }
      ],
      "name": "forceDeposit",
      "outputs": [],
      "stateMutability": "nonpayable",
      "type": "function"
    },
    {
      "inputs": [
        {
          "internalType": "uint256",
          "name": "_amountIn",
          "type": "uint256"
        },
        {
          "internalType": "address",
          "name": "_routerAddr",
          "type": "address"
        },
        {
          "internalType": "address[]",
          "name": "_tokenPath",
          "type": "address[]"
        }
      ],
      "name": "getExchangeRate",
      "outputs": [
        {
          "internalType": "uint256[]",
          "name": "",
          "type": "uint256[]"
        }
      ],
      "stateMutability": "payable",
      "type": "function"
    },
    {
      "inputs": [],
      "name": "investmentAddress",
      "outputs": [
        {
          "internalType": "address payable",
          "name": "",
          "type": "address"
        }
      ],
      "stateMutability": "view",
      "type": "function"
    },
    {
      "inputs": [],
      "name": "investorHelper",
      "outputs": [
        {
          "internalType": "address",
          "name": "",
          "type": "address"
        }
      ],
      "stateMutability": "view",
      "type": "function"
    },
    {
      "inputs": [
        {
          "internalType": "address",
          "name": "",
          "type": "address"
        }
      ],
      "name": "investorWhitelist",
      "outputs": [
        {
          "internalType": "bool",
          "name": "",
          "type": "bool"
        }
      ],
      "stateMutability": "view",
      "type": "function"
    },
    {
      "inputs": [],
      "name": "lastApr",
      "outputs": [
        {
          "internalType": "uint256",
          "name": "",
          "type": "uint256"
        }
      ],
      "stateMutability": "view",
      "type": "function"
    },
    {
      "inputs": [],
      "name": "lastClaim",
      "outputs": [
        {
          "internalType": "uint256",
          "name": "",
          "type": "uint256"
        }
      ],
      "stateMutability": "view",
      "type": "function"
    },
    {
      "inputs": [],
      "name": "liquidityPool",
      "outputs": [
        {
          "internalType": "address payable",
          "name": "",
          "type": "address"
        }
      ],
      "stateMutability": "view",
      "type": "function"
    },
    {
      "inputs": [],
      "name": "owner",
      "outputs": [
        {
          "internalType": "address",
          "name": "",
          "type": "address"
        }
      ],
      "stateMutability": "view",
      "type": "function"
    },
    {
      "inputs": [],
      "name": "paused",
      "outputs": [
        {
          "internalType": "bool",
          "name": "",
          "type": "bool"
        }
      ],
      "stateMutability": "view",
      "type": "function"
    },
    {
      "inputs": [],
      "name": "poolId",
      "outputs": [
        {
          "internalType": "uint256",
          "name": "",
          "type": "uint256"
        }
      ],
      "stateMutability": "view",
      "type": "function"
    },
    {
      "inputs": [
        {
          "internalType": "address",
          "name": "_routerAddress",
          "type": "address"
        },
        {
          "internalType": "address",
          "name": "_avaxAddress",
          "type": "address"
        },
        {
          "internalType": "uint256",
          "name": "_slippage",
          "type": "uint256"
        }
      ],
      "name": "reinvest",
      "outputs": [],
      "stateMutability": "nonpayable",
      "type": "function"
    },
    {
      "inputs": [],
      "name": "renounceOwnership",
      "outputs": [],
      "stateMutability": "nonpayable",
      "type": "function"
    },
    {
      "inputs": [
        {
          "internalType": "address[]",
          "name": "_array",
          "type": "address[]"
        }
      ],
      "name": "reverseArray",
      "outputs": [
        {
          "internalType": "address[]",
          "name": "",
          "type": "address[]"
        }
      ],
      "stateMutability": "pure",
      "type": "function"
    },
    {
      "inputs": [],
      "name": "slippage",
      "outputs": [
        {
          "internalType": "uint256",
          "name": "",
          "type": "uint256"
        }
      ],
      "stateMutability": "view",
      "type": "function"
    },
    {
      "inputs": [],
      "name": "stakingManager",
      "outputs": [
        {
          "internalType": "address",
          "name": "",
          "type": "address"
        }
      ],
      "stateMutability": "view",
      "type": "function"
    },
    {
      "inputs": [
        {
          "internalType": "uint256",
          "name": "",
          "type": "uint256"
        }
      ],
      "name": "targetToken",
      "outputs": [
        {
          "internalType": "address",
          "name": "",
          "type": "address"
        }
      ],
      "stateMutability": "view",
      "type": "function"
    },
    {
      "inputs": [
        {
          "internalType": "address",
          "name": "_investor",
          "type": "address"
        }
      ],
      "name": "toggleInvestorWhitelist",
      "outputs": [],
      "stateMutability": "nonpayable",
      "type": "function"
    },
    {
      "inputs": [],
      "name": "togglePause",
      "outputs": [],
      "stateMutability": "nonpayable",
      "type": "function"
    },
    {
      "inputs": [
        {
          "internalType": "uint256",
          "name": "",
          "type": "uint256"
        }
      ],
      "name": "tokensToBeRewardedAddress",
      "outputs": [
        {
          "internalType": "address",
          "name": "",
          "type": "address"
        }
      ],
      "stateMutability": "view",
      "type": "function"
    },
    {
      "inputs": [
        {
          "internalType": "address",
          "name": "newOwner",
          "type": "address"
        }
      ],
      "name": "transferOwnership",
      "outputs": [],
      "stateMutability": "nonpayable",
      "type": "function"
    },
    {
      "inputs": [],
      "name": "treasury",
      "outputs": [
        {
          "internalType": "address payable",
          "name": "",
          "type": "address"
        }
      ],
      "stateMutability": "view",
      "type": "function"
    },
    {
      "inputs": [
        {
          "internalType": "address",
          "name": "_tokenAddress",
          "type": "address"
        },
        {
          "internalType": "uint256",
          "name": "_amount",
          "type": "uint256"
        }
      ],
      "name": "universalTransfer",
      "outputs": [],
      "stateMutability": "nonpayable",
      "type": "function"
    },
    {
      "inputs": [
        {
          "internalType": "uint256",
          "name": "_amount",
          "type": "uint256"
        },
        {
          "internalType": "address",
          "name": "_routerAddress",
          "type": "address"
        },
        {
          "internalType": "address",
          "name": "_avaxAddress",
          "type": "address"
        }
      ],
      "name": "withdrawAvaxLp",
      "outputs": [],
      "stateMutability": "nonpayable",
      "type": "function"
    },
    {
      "stateMutability": "payable",
      "type": "receive"
    }
  ],
  "bytecode": "0x60806040523480156200001157600080fd5b506040516200638d3803806200638d833981810160405281019062000037919062000475565b620000576200004b6200021460201b60201c565b6200021c60201b60201c565b6001808190555087600260006101000a81548173ffffffffffffffffffffffffffffffffffffffff021916908373ffffffffffffffffffffffffffffffffffffffff1602179055508660049080519060200190620000b7929190620002e0565b5085600360006101000a81548173ffffffffffffffffffffffffffffffffffffffff021916908373ffffffffffffffffffffffffffffffffffffffff16021790555084600560006101000a81548173ffffffffffffffffffffffffffffffffffffffff021916908373ffffffffffffffffffffffffffffffffffffffff16021790555083600660006101000a81548173ffffffffffffffffffffffffffffffffffffffff021916908373ffffffffffffffffffffffffffffffffffffffff160217905550826007908051906020019062000193929190620002e0565b5042600a8190555081600b60006101000a81548173ffffffffffffffffffffffffffffffffffffffff021916908373ffffffffffffffffffffffffffffffffffffffff16021790555080600c819055506000600d60006101000a81548160ff021916908315150217905550605a600e8190555050505050505050506200069c565b600033905090565b60008060009054906101000a900473ffffffffffffffffffffffffffffffffffffffff169050816000806101000a81548173ffffffffffffffffffffffffffffffffffffffff021916908373ffffffffffffffffffffffffffffffffffffffff1602179055508173ffffffffffffffffffffffffffffffffffffffff168173ffffffffffffffffffffffffffffffffffffffff167f8be0079c531659141344cd1fd0a4f28419497f9722a3daafe3b4186f6b6457e060405160405180910390a35050565b8280548282559060005260206000209081019282156200035c579160200282015b828111156200035b5782518260006101000a81548173ffffffffffffffffffffffffffffffffffffffff021916908373ffffffffffffffffffffffffffffffffffffffff1602179055509160200191906001019062000301565b5b5090506200036b91906200036f565b5090565b5b808211156200038a57600081600090555060010162000370565b5090565b6000620003a56200039f846200059e565b6200056a565b90508083825260208201905082856020860282011115620003c557600080fd5b60005b85811015620003f95781620003de888262000403565b845260208401935060208301925050600181019050620003c8565b5050509392505050565b60008151905062000414816200064e565b92915050565b6000815190506200042b8162000668565b92915050565b600082601f8301126200044357600080fd5b8151620004558482602086016200038e565b91505092915050565b6000815190506200046f8162000682565b92915050565b600080600080600080600080610100898b0312156200049357600080fd5b6000620004a38b828c016200041a565b985050602089015167ffffffffffffffff811115620004c157600080fd5b620004cf8b828c0162000431565b9750506040620004e28b828c0162000403565b9650506060620004f58b828c0162000403565b9550506080620005088b828c0162000403565b94505060a089015167ffffffffffffffff8111156200052657600080fd5b620005348b828c0162000431565b93505060c0620005478b828c0162000403565b92505060e06200055a8b828c016200045e565b9150509295985092959890939650565b6000604051905081810181811067ffffffffffffffff821117156200059457620005936200061f565b5b8060405250919050565b600067ffffffffffffffff821115620005bc57620005bb6200061f565b5b602082029050602081019050919050565b6000620005da82620005f5565b9050919050565b6000620005ee82620005f5565b9050919050565b600073ffffffffffffffffffffffffffffffffffffffff82169050919050565b6000819050919050565b7f4e487b7100000000000000000000000000000000000000000000000000000000600052604160045260246000fd5b6200065981620005cd565b81146200066557600080fd5b50565b6200067381620005e1565b81146200067f57600080fd5b50565b6200068d8162000615565b81146200069957600080fd5b50565b615ce180620006ac6000396000f3fe6080604052600436106101e75760003560e01c806361d027b311610102578063bea5f5a711610095578063c4ae316811610064578063c4ae316814610696578063d8182e92146106ad578063f2fde38b146106d6578063f815c4ff146106ff576101ee565b8063bea5f5a7146105de578063bec872b01461061b578063bf225e9814610644578063c35443cf1461066d576101ee565b80638da5cb5b116100d15780638da5cb5b146105485780639f5c72c914610573578063a49a007c1461059c578063a8adb564146105b3576101ee565b806361d027b3146104b2578063665a11ca146104dd578063715018a6146105085780638b099b231461051f576101ee565b80633e0dc34e1161017a57806351ba89b11161014957806351ba89b11461041a57806353030d9114610445578063536200ba146104705780635c975abb14610487576101ee565b80633e0dc34e146103815780633e6da010146103ac5780633fae5b2c146103c8578063493e40c7146103f1576101ee565b80631bf8060c116101b65780631bf8060c146102b157806322828cc2146102ee5780633ad9a211146103195780633e032a3b14610356576101ee565b8063033690e3146101f057806303faced21461021b5780630b14fe46146102445780630fcc40c414610274576101ee565b366101ee57005b005b3480156101fc57600080fd5b5061020561072a565b6040516102129190615675565b60405180910390f35b34801561022757600080fd5b50610242600480360381019061023d9190614863565b610730565b005b61025e60048036038101906102599190614b02565b610853565b60405161026b9190615458565b60405180910390f35b34801561028057600080fd5b5061029b600480360381019061029691906149b6565b6108f3565b6040516102a89190615436565b60405180910390f35b3480156102bd57600080fd5b506102d860048036038101906102d39190614863565b610a6a565b6040516102e5919061547a565b60405180910390f35b3480156102fa57600080fd5b50610303610a8a565b6040516103109190615263565b60405180910390f35b34801561032557600080fd5b50610340600480360381019061033b9190614a61565b610ab0565b60405161034d9190615263565b60405180910390f35b34801561036257600080fd5b5061036b610aef565b6040516103789190615675565b60405180910390f35b34801561038d57600080fd5b50610396610af5565b6040516103a39190615675565b60405180910390f35b6103c660048036038101906103c191906148c8565b610afb565b005b3480156103d457600080fd5b506103ef60048036038101906103ea9190614863565b611d19565b005b3480156103fd57600080fd5b5061041860048036038101906104139190614863565b611dd9565b005b34801561042657600080fd5b5061042f611e99565b60405161043c9190615263565b60405180910390f35b34801561045157600080fd5b5061045a611ebf565b6040516104679190615299565b60405180910390f35b34801561047c57600080fd5b50610485611ee5565b005b34801561049357600080fd5b5061049c611fe9565b6040516104a9919061547a565b60405180910390f35b3480156104be57600080fd5b506104c7611ffc565b6040516104d49190615299565b60405180910390f35b3480156104e957600080fd5b506104f2612022565b6040516104ff9190615299565b60405180910390f35b34801561051457600080fd5b5061051d612048565b005b34801561052b57600080fd5b506105466004803603810190610541919061488c565b6120d0565b005b34801561055457600080fd5b5061055d61223a565b60405161056a9190615263565b60405180910390f35b34801561057f57600080fd5b5061059a60048036038101906105959190614863565b612263565b005b3480156105a857600080fd5b506105b1612531565b005b3480156105bf57600080fd5b506105c86128be565b6040516105d59190615675565b60405180910390f35b3480156105ea57600080fd5b5061060560048036038101906106009190614a61565b6128c4565b6040516106129190615263565b60405180910390f35b34801561062757600080fd5b50610642600480360381019061063d9190614a61565b612903565b005b34801561065057600080fd5b5061066b60048036038101906106669190614ab3565b612989565b005b34801561067957600080fd5b50610694600480360381019061068f919061497a565b61387f565b005b3480156106a257600080fd5b506106ab6139f2565b005b3480156106b957600080fd5b506106d460048036038101906106cf919061492b565b613a9a565b005b3480156106e257600080fd5b506106fd60048036038101906106f89190614863565b614487565b005b34801561070b57600080fd5b5061071461457f565b6040516107219190615675565b60405180910390f35b60085481565b610738614585565b73ffffffffffffffffffffffffffffffffffffffff1661075661223a565b73ffffffffffffffffffffffffffffffffffffffff16146107ac576040517f08c379a00000000000000000000000000000000000000000000000000000000081526004016107a390615575565b60405180910390fd5b600f60008273ffffffffffffffffffffffffffffffffffffffff1673ffffffffffffffffffffffffffffffffffffffff16815260200190815260200160002060009054906101000a900460ff1615600f60008373ffffffffffffffffffffffffffffffffffffffff1673ffffffffffffffffffffffffffffffffffffffff16815260200190815260200160002060006101000a81548160ff02191690831515021790555050565b6060808373ffffffffffffffffffffffffffffffffffffffff1663d06ca61f86856040518363ffffffff1660e01b81526004016108919291906156fe565b60006040518083038186803b1580156108a957600080fd5b505afa1580156108bd573d6000803e3d6000fd5b505050506040513d6000823e3d601f19601f820116820180604052508101906108e691906149f7565b9050809150509392505050565b606060008251905060008167ffffffffffffffff81111561093d577f4e487b7100000000000000000000000000000000000000000000000000000000600052604160045260246000fd5b60405190808252806020026020018201604052801561096b5781602001602082028036833780820191505090505b5090506000808390505b60018110610a5e578560018261098b9190615a14565b815181106109c2577f4e487b7100000000000000000000000000000000000000000000000000000000600052603260045260246000fd5b6020026020010151838381518110610a03577f4e487b7100000000000000000000000000000000000000000000000000000000600052603260045260246000fd5b602002602001019073ffffffffffffffffffffffffffffffffffffffff16908173ffffffffffffffffffffffffffffffffffffffff16815250508180610a4890615b66565b9250508080610a5690615b3c565b915050610975565b50819350505050919050565b600f6020528060005260406000206000915054906101000a900460ff1681565b600360009054906101000a900473ffffffffffffffffffffffffffffffffffffffff1681565b60078181548110610ac057600080fd5b906000526020600020016000915054906101000a900473ffffffffffffffffffffffffffffffffffffffff1681565b600e5481565b600c5481565b610b0361458d565b600f60003373ffffffffffffffffffffffffffffffffffffffff1673ffffffffffffffffffffffffffffffffffffffff16815260200190815260200160002060009054906101000a900460ff16610b8f576040517f08c379a0000000000000000000000000000000000000000000000000000000008152600401610b8690615535565b60405180910390fd5b60003411610bd2576040517f08c379a0000000000000000000000000000000000000000000000000000000008152600401610bc990615635565b60405180910390fd5b60001515600d60009054906101000a900460ff16151514610c28576040517f08c379a0000000000000000000000000000000000000000000000000000000008152600401610c1f90615555565b60405180910390fd5b600060078054905067ffffffffffffffff811115610c6f577f4e487b7100000000000000000000000000000000000000000000000000000000600052604160045260246000fd5b604051908082528060200260200182016040528015610c9d5781602001602082028036833780820191505090505b50905060005b6007805490508160ff161015610dfe5760078160ff1681548110610cf0577f4e487b7100000000000000000000000000000000000000000000000000000000600052603260045260246000fd5b9060005260206000200160009054906101000a900473ffffffffffffffffffffffffffffffffffffffff1673ffffffffffffffffffffffffffffffffffffffff166370a08231306040518263ffffffff1660e01b8152600401610d539190615263565b60206040518083038186803b158015610d6b57600080fd5b505afa158015610d7f573d6000803e3d6000fd5b505050506040513d601f19601f82011682018060405250810190610da39190614a8a565b828260ff1681518110610ddf577f4e487b7100000000000000000000000000000000000000000000000000000000600052603260045260246000fd5b6020026020010181815250508080610df690615baf565b915050610ca3565b5060006004805480602002602001604051908101604052809291908181526020018280548015610e8357602002820191906000526020600020905b8160009054906101000a900473ffffffffffffffffffffffffffffffffffffffff1673ffffffffffffffffffffffffffffffffffffffff1681526020019060010190808311610e39575b505050505090506060610eab600234610e9c9190615989565b86610ea6856108f3565b610853565b905060006004600081548110610eea577f4e487b7100000000000000000000000000000000000000000000000000000000600052603260045260246000fd5b9060005260206000200160009054906101000a900473ffffffffffffffffffffffffffffffffffffffff1673ffffffffffffffffffffffffffffffffffffffff166370a08231306040518263ffffffff1660e01b8152600401610f4d9190615263565b60206040518083038186803b158015610f6557600080fd5b505afa158015610f79573d6000803e3d6000fd5b505050506040513d601f19601f82011682018060405250810190610f9d9190614a8a565b90506000600267ffffffffffffffff811115610fe2577f4e487b7100000000000000000000000000000000000000000000000000000000600052604160045260246000fd5b6040519080825280602002602001820160405280156110105781602001602082028036833780820191505090505b509050858160008151811061104e577f4e487b7100000000000000000000000000000000000000000000000000000000600052603260045260246000fd5b602002602001019073ffffffffffffffffffffffffffffffffffffffff16908173ffffffffffffffffffffffffffffffffffffffff168152505088816001815181106110c3577f4e487b7100000000000000000000000000000000000000000000000000000000600052603260045260246000fd5b602002602001019073ffffffffffffffffffffffffffffffffffffffff16908173ffffffffffffffffffffffffffffffffffffffff16815250508673ffffffffffffffffffffffffffffffffffffffff1663a2a1623d6002346111269190615989565b61117386600181518110611163577f4e487b7100000000000000000000000000000000000000000000000000000000600052603260045260246000fd5b6020026020010151600e546145dd565b8430610e10426111839190615933565b6040518663ffffffff1660e01b81526004016111a2949392919061572e565b6000604051808303818588803b1580156111bb57600080fd5b505af11580156111cf573d6000803e3d6000fd5b50505050506040513d6000823e3d601f19601f820116820180604052508101906111f991906149f7565b506000826004600081548110611238577f4e487b7100000000000000000000000000000000000000000000000000000000600052603260045260246000fd5b9060005260206000200160009054906101000a900473ffffffffffffffffffffffffffffffffffffffff1673ffffffffffffffffffffffffffffffffffffffff166370a08231306040518263ffffffff1660e01b815260040161129b9190615263565b60206040518083038186803b1580156112b357600080fd5b505afa1580156112c7573d6000803e3d6000fd5b505050506040513d601f19601f820116820180604052508101906112eb9190614a8a565b6112f59190615a14565b9050600c543273ffffffffffffffffffffffffffffffffffffffff167f0b8a130fa230ec15585dbf5daeeb7d3e2b2f27d327ff9556bd4c1548a00f57f461133e84600e546145dd565b60023461134b9190615989565b60405161135992919061577a565b60405180910390a36000600b60009054906101000a900473ffffffffffffffffffffffffffffffffffffffff1673ffffffffffffffffffffffffffffffffffffffff168b898b8b6002346113ad9190615989565b600e54886040516024016113c79796959493929190615306565b6040516020818303038152906040527fb8c2e50c000000000000000000000000000000000000000000000000000000007bffffffffffffffffffffffffffffffffffffffffffffffffffffffff19166020820180517bffffffffffffffffffffffffffffffffffffffffffffffffffffffff8381831617835250505050604051611451919061524c565b600060405180830381855af49150503d806000811461148c576040519150601f19603f3d011682016040523d82523d6000602084013e611491565b606091505b50509050806114d5576040517f08c379a00000000000000000000000000000000000000000000000000000000081526004016114cc906155b5565b60405180910390fd5b6000600560009054906101000a900473ffffffffffffffffffffffffffffffffffffffff1673ffffffffffffffffffffffffffffffffffffffff166370a08231306040518263ffffffff1660e01b81526004016115329190615263565b60206040518083038186803b15801561154a57600080fd5b505afa15801561155e573d6000803e3d6000fd5b505050506040513d601f19601f820116820180604052508101906115829190614a8a565b90506000600660009054906101000a900473ffffffffffffffffffffffffffffffffffffffff1673ffffffffffffffffffffffffffffffffffffffff166370a08231306040518263ffffffff1660e01b81526004016115e19190615263565b60206040518083038186803b1580156115f957600080fd5b505afa15801561160d573d6000803e3d6000fd5b505050506040513d601f19601f820116820180604052508101906116319190614a8a565b11156119cf576000600b60009054906101000a900473ffffffffffffffffffffffffffffffffffffffff1673ffffffffffffffffffffffffffffffffffffffff16600660009054906101000a900473ffffffffffffffffffffffffffffffffffffffff1673ffffffffffffffffffffffffffffffffffffffff166370a08231306040518263ffffffff1660e01b81526004016116cd9190615263565b60206040518083038186803b1580156116e557600080fd5b505afa1580156116f9573d6000803e3d6000fd5b505050506040513d601f19601f8201168201806040525081019061171d9190614a8a565b600660009054906101000a900473ffffffffffffffffffffffffffffffffffffffff168e600560009054906101000a900473ffffffffffffffffffffffffffffffffffffffff1660405160240161177794939291906156b9565b6040516020818303038152906040527f8fce11a6000000000000000000000000000000000000000000000000000000007bffffffffffffffffffffffffffffffffffffffffffffffffffffffff19166020820180517bffffffffffffffffffffffffffffffffffffffffffffffffffffffff8381831617835250505050604051611801919061524c565b600060405180830381855af49150503d806000811461183c576040519150601f19603f3d011682016040523d82523d6000602084013e611841565b606091505b5050905080611885576040517f08c379a000000000000000000000000000000000000000000000000000000000815260040161187c906154b5565b60405180910390fd5b600360009054906101000a900473ffffffffffffffffffffffffffffffffffffffff1673ffffffffffffffffffffffffffffffffffffffff1662aeef8a600c5484600560009054906101000a900473ffffffffffffffffffffffffffffffffffffffff1673ffffffffffffffffffffffffffffffffffffffff166370a08231306040518263ffffffff1660e01b81526004016119219190615263565b60206040518083038186803b15801561193957600080fd5b505afa15801561194d573d6000803e3d6000fd5b505050506040513d601f19601f820116820180604052508101906119719190614a8a565b61197b9190615a14565b60006040518463ffffffff1660e01b815260040161199b939291906157a3565b600060405180830381600087803b1580156119b557600080fd5b505af11580156119c9573d6000803e3d6000fd5b50505050505b60005b6007805490508160ff161015611d02576000898260ff1681518110611a20577f4e487b7100000000000000000000000000000000000000000000000000000000600052603260045260246000fd5b602002602001015160078360ff1681548110611a65577f4e487b7100000000000000000000000000000000000000000000000000000000600052603260045260246000fd5b9060005260206000200160009054906101000a900473ffffffffffffffffffffffffffffffffffffffff1673ffffffffffffffffffffffffffffffffffffffff166370a08231306040518263ffffffff1660e01b8152600401611ac89190615263565b60206040518083038186803b158015611ae057600080fd5b505afa158015611af4573d6000803e3d6000fd5b505050506040513d601f19601f82011682018060405250810190611b189190614a8a565b611b229190615a14565b905060008114611cee5760078260ff1681548110611b69577f4e487b7100000000000000000000000000000000000000000000000000000000600052603260045260246000fd5b9060005260206000200160009054906101000a900473ffffffffffffffffffffffffffffffffffffffff1673ffffffffffffffffffffffffffffffffffffffff1663a9059cbb600260009054906101000a900473ffffffffffffffffffffffffffffffffffffffff16600360009054906101000a900473ffffffffffffffffffffffffffffffffffffffff1673ffffffffffffffffffffffffffffffffffffffff1663875d11e26040518163ffffffff1660e01b815260040160206040518083038186803b158015611c3a57600080fd5b505afa158015611c4e573d6000803e3d6000fd5b505050506040513d601f19601f82011682018060405250810190611c729190614a8a565b84611c7d9190615989565b6040518363ffffffff1660e01b8152600401611c9a9291906152b4565b602060405180830381600087803b158015611cb457600080fd5b505af1158015611cc8573d6000803e3d6000fd5b505050506040513d601f19601f82011682018060405250810190611cec9190614a38565b505b508080611cfa90615baf565b9150506119d2565b505050505050505050611d13614616565b50505050565b611d21614585565b73ffffffffffffffffffffffffffffffffffffffff16611d3f61223a565b73ffffffffffffffffffffffffffffffffffffffff1614611d95576040517f08c379a0000000000000000000000000000000000000000000000000000000008152600401611d8c90615575565b60405180910390fd5b80600360006101000a81548173ffffffffffffffffffffffffffffffffffffffff021916908373ffffffffffffffffffffffffffffffffffffffff16021790555050565b611de1614585565b73ffffffffffffffffffffffffffffffffffffffff16611dff61223a565b73ffffffffffffffffffffffffffffffffffffffff1614611e55576040517f08c379a0000000000000000000000000000000000000000000000000000000008152600401611e4c90615575565b60405180910390fd5b80600b60006101000a81548173ffffffffffffffffffffffffffffffffffffffff021916908373ffffffffffffffffffffffffffffffffffffffff16021790555050565b600b60009054906101000a900473ffffffffffffffffffffffffffffffffffffffff1681565b600560009054906101000a900473ffffffffffffffffffffffffffffffffffffffff1681565b611eed614585565b73ffffffffffffffffffffffffffffffffffffffff16611f0b61223a565b73ffffffffffffffffffffffffffffffffffffffff1614611f61576040517f08c379a0000000000000000000000000000000000000000000000000000000008152600401611f5890615575565b60405180910390fd5b60003073ffffffffffffffffffffffffffffffffffffffff16319050600260009054906101000a900473ffffffffffffffffffffffffffffffffffffffff1673ffffffffffffffffffffffffffffffffffffffff166108fc829081150290604051600060405180830381858888f19350505050158015611fe5573d6000803e3d6000fd5b5050565b600d60009054906101000a900460ff1681565b600260009054906101000a900473ffffffffffffffffffffffffffffffffffffffff1681565b600660009054906101000a900473ffffffffffffffffffffffffffffffffffffffff1681565b612050614585565b73ffffffffffffffffffffffffffffffffffffffff1661206e61223a565b73ffffffffffffffffffffffffffffffffffffffff16146120c4576040517f08c379a00000000000000000000000000000000000000000000000000000000081526004016120bb90615575565b60405180910390fd5b6120ce600061461f565b565b60008273ffffffffffffffffffffffffffffffffffffffff1663dd62ed3e30846040518363ffffffff1660e01b815260040161210d9291906152dd565b60206040518083038186803b15801561212557600080fd5b505afa158015612139573d6000803e3d6000fd5b505050506040513d601f19601f8201168201806040525081019061215d9190614a8a565b90507fffffffffffffffffffffffffffffffffffffffffffffffffffffffffffffffff8114612235578273ffffffffffffffffffffffffffffffffffffffff1663095ea7b3837fffffffffffffffffffffffffffffffffffffffffffffffffffffffffffffffff6040518363ffffffff1660e01b81526004016121e19291906153ac565b602060405180830381600087803b1580156121fb57600080fd5b505af115801561220f573d6000803e3d6000fd5b505050506040513d601f19601f820116820180604052508101906122339190614a38565b505b505050565b60008060009054906101000a900473ffffffffffffffffffffffffffffffffffffffff16905090565b61226b614585565b73ffffffffffffffffffffffffffffffffffffffff1661228961223a565b73ffffffffffffffffffffffffffffffffffffffff16146122df576040517f08c379a00000000000000000000000000000000000000000000000000000000081526004016122d690615575565b60405180910390fd5b6000600b60009054906101000a900473ffffffffffffffffffffffffffffffffffffffff1673ffffffffffffffffffffffffffffffffffffffff16600660009054906101000a900473ffffffffffffffffffffffffffffffffffffffff1673ffffffffffffffffffffffffffffffffffffffff166370a08231306040518263ffffffff1660e01b81526004016123759190615263565b60206040518083038186803b15801561238d57600080fd5b505afa1580156123a1573d6000803e3d6000fd5b505050506040513d601f19601f820116820180604052508101906123c59190614a8a565b600660009054906101000a900473ffffffffffffffffffffffffffffffffffffffff1684600560009054906101000a900473ffffffffffffffffffffffffffffffffffffffff1660405160240161241f94939291906156b9565b6040516020818303038152906040527f8fce11a6000000000000000000000000000000000000000000000000000000007bffffffffffffffffffffffffffffffffffffffffffffffffffffffff19166020820180517bffffffffffffffffffffffffffffffffffffffffffffffffffffffff83818316178352505050506040516124a9919061524c565b600060405180830381855af49150503d80600081146124e4576040519150601f19603f3d011682016040523d82523d6000602084013e6124e9565b606091505b505090508061252d576040517f08c379a000000000000000000000000000000000000000000000000000000000815260040161252490615515565b60405180910390fd5b5050565b612539614585565b73ffffffffffffffffffffffffffffffffffffffff1661255761223a565b73ffffffffffffffffffffffffffffffffffffffff16146125ad576040517f08c379a00000000000000000000000000000000000000000000000000000000081526004016125a490615575565b60405180910390fd5b60011515600d60009054906101000a900460ff16151514612603576040517f08c379a00000000000000000000000000000000000000000000000000000000081526004016125fa906154f5565b60405180910390fd5b6000600560009054906101000a900473ffffffffffffffffffffffffffffffffffffffff1673ffffffffffffffffffffffffffffffffffffffff166370a08231306040518263ffffffff1660e01b81526004016126609190615263565b60206040518083038186803b15801561267857600080fd5b505afa15801561268c573d6000803e3d6000fd5b505050506040513d601f19601f820116820180604052508101906126b09190614a8a565b9050600560009054906101000a900473ffffffffffffffffffffffffffffffffffffffff1673ffffffffffffffffffffffffffffffffffffffff16632e1a7d4d826040518263ffffffff1660e01b815260040161270d9190615675565b600060405180830381600087803b15801561272757600080fd5b505af115801561273b573d6000803e3d6000fd5b50505050600660009054906101000a900473ffffffffffffffffffffffffffffffffffffffff1673ffffffffffffffffffffffffffffffffffffffff1663a9059cbb600260009054906101000a900473ffffffffffffffffffffffffffffffffffffffff16600660009054906101000a900473ffffffffffffffffffffffffffffffffffffffff1673ffffffffffffffffffffffffffffffffffffffff166370a08231306040518263ffffffff1660e01b81526004016127fb9190615263565b60206040518083038186803b15801561281357600080fd5b505afa158015612827573d6000803e3d6000fd5b505050506040513d601f19601f8201168201806040525081019061284b9190614a8a565b6040518363ffffffff1660e01b81526004016128689291906152b4565b602060405180830381600087803b15801561288257600080fd5b505af1158015612896573d6000803e3d6000fd5b505050506040513d601f19601f820116820180604052508101906128ba9190614a38565b5050565b600a5481565b600481815481106128d457600080fd5b906000526020600020016000915054906101000a900473ffffffffffffffffffffffffffffffffffffffff1681565b61290b614585565b73ffffffffffffffffffffffffffffffffffffffff1661292961223a565b73ffffffffffffffffffffffffffffffffffffffff161461297f576040517f08c379a000000000000000000000000000000000000000000000000000000000815260040161297690615575565b60405180910390fd5b80600e8190555050565b61299161458d565b600f60003373ffffffffffffffffffffffffffffffffffffffff1673ffffffffffffffffffffffffffffffffffffffff16815260200190815260200160002060009054906101000a900460ff16612a1d576040517f08c379a0000000000000000000000000000000000000000000000000000000008152600401612a1490615535565b60405180910390fd5b60001515600d60009054906101000a900460ff16151514612a73576040517f08c379a0000000000000000000000000000000000000000000000000000000008152600401612a6a90615555565b60405180910390fd5b60008311612ab6576040517f08c379a0000000000000000000000000000000000000000000000000000000008152600401612aad906155f5565b60405180910390fd5b600080600360009054906101000a900473ffffffffffffffffffffffffffffffffffffffff1673ffffffffffffffffffffffffffffffffffffffff1663b798aaae600c54326040518363ffffffff1660e01b8152600401612b18929190615690565b60606040518083038186803b158015612b3057600080fd5b505afa158015612b44573d6000803e3d6000fd5b505050506040513d601f19601f82011682018060405250810190612b689190614b69565b509150915084600360009054906101000a900473ffffffffffffffffffffffffffffffffffffffff1673ffffffffffffffffffffffffffffffffffffffff1663d18df53c600c54326040518363ffffffff1660e01b8152600401612bcd929190615690565b60206040518083038186803b158015612be557600080fd5b505afa158015612bf9573d6000803e3d6000fd5b505050506040513d601f19601f82011682018060405250810190612c1d9190614a8a565b8284612c299190615933565b612c339190615933565b1015612c74576040517f08c379a0000000000000000000000000000000000000000000000000000000008152600401612c6b90615595565b60405180910390fd5b600060078054905067ffffffffffffffff811115612cbb577f4e487b7100000000000000000000000000000000000000000000000000000000600052604160045260246000fd5b604051908082528060200260200182016040528015612ce95781602001602082028036833780820191505090505b50905060005b6007805490508160ff161015612e4a5760078160ff1681548110612d3c577f4e487b7100000000000000000000000000000000000000000000000000000000600052603260045260246000fd5b9060005260206000200160009054906101000a900473ffffffffffffffffffffffffffffffffffffffff1673ffffffffffffffffffffffffffffffffffffffff166370a08231306040518263ffffffff1660e01b8152600401612d9f9190615263565b60206040518083038186803b158015612db757600080fd5b505afa158015612dcb573d6000803e3d6000fd5b505050506040513d601f19601f82011682018060405250810190612def9190614a8a565b828260ff1681518110612e2b577f4e487b7100000000000000000000000000000000000000000000000000000000600052603260045260246000fd5b6020026020010181815250508080612e4290615baf565b915050612cef565b506000600560009054906101000a900473ffffffffffffffffffffffffffffffffffffffff1673ffffffffffffffffffffffffffffffffffffffff166370a08231306040518263ffffffff1660e01b8152600401612ea89190615263565b60206040518083038186803b158015612ec057600080fd5b505afa158015612ed4573d6000803e3d6000fd5b505050506040513d601f19601f82011682018060405250810190612ef89190614a8a565b9050600560009054906101000a900473ffffffffffffffffffffffffffffffffffffffff1673ffffffffffffffffffffffffffffffffffffffff16632e1a7d4d886040518263ffffffff1660e01b8152600401612f559190615675565b600060405180830381600087803b158015612f6f57600080fd5b505af1158015612f83573d6000803e3d6000fd5b505050506000600560009054906101000a900473ffffffffffffffffffffffffffffffffffffffff1673ffffffffffffffffffffffffffffffffffffffff166370a08231306040518263ffffffff1660e01b8152600401612fe49190615263565b60206040518083038186803b158015612ffc57600080fd5b505afa158015613010573d6000803e3d6000fd5b505050506040513d601f19601f820116820180604052508101906130349190614a8a565b8261303f9190615a14565b90506000600660009054906101000a900473ffffffffffffffffffffffffffffffffffffffff1673ffffffffffffffffffffffffffffffffffffffff166318160ddd6040518163ffffffff1660e01b815260040160206040518083038186803b1580156130ab57600080fd5b505afa1580156130bf573d6000803e3d6000fd5b505050506040513d601f19601f820116820180604052508101906130e39190614a8a565b9050600061323864e8d4a51000600460008154811061312b577f4e487b7100000000000000000000000000000000000000000000000000000000600052603260045260246000fd5b9060005260206000200160009054906101000a900473ffffffffffffffffffffffffffffffffffffffff1673ffffffffffffffffffffffffffffffffffffffff166370a08231600660009054906101000a900473ffffffffffffffffffffffffffffffffffffffff166040518263ffffffff1660e01b81526004016131b0919061527e565b60206040518083038186803b1580156131c857600080fd5b505afa1580156131dc573d6000803e3d6000fd5b505050506040513d601f19601f820116820180604052508101906132009190614a8a565b8464e8d4a510008761321291906159ba565b61321c9190615989565b61322691906159ba565b6132309190615989565b600e546145dd565b9050600061338d64e8d4a510006004600181548110613280577f4e487b7100000000000000000000000000000000000000000000000000000000600052603260045260246000fd5b9060005260206000200160009054906101000a900473ffffffffffffffffffffffffffffffffffffffff1673ffffffffffffffffffffffffffffffffffffffff166370a08231600660009054906101000a900473ffffffffffffffffffffffffffffffffffffffff166040518263ffffffff1660e01b8152600401613305919061527e565b60206040518083038186803b15801561331d57600080fd5b505afa158015613331573d6000803e3d6000fd5b505050506040513d601f19601f820116820180604052508101906133559190614a8a565b8564e8d4a510008861336791906159ba565b6133719190615989565b61337b91906159ba565b6133859190615989565b600e546145dd565b90506133bb600660009054906101000a900473ffffffffffffffffffffffffffffffffffffffff168b6120d0565b8973ffffffffffffffffffffffffffffffffffffffff166333c6b7256004600081548110613412577f4e487b7100000000000000000000000000000000000000000000000000000000600052603260045260246000fd5b9060005260206000200160009054906101000a900473ffffffffffffffffffffffffffffffffffffffff1686858532610e104261344f9190615933565b6040518763ffffffff1660e01b8152600401613470969594939291906153d5565b600060405180830381600087803b15801561348a57600080fd5b505af115801561349e573d6000803e3d6000fd5b5050505060005b6007805490508160ff1610156137d5576000878260ff16815181106134f3577f4e487b7100000000000000000000000000000000000000000000000000000000600052603260045260246000fd5b602002602001015160078360ff1681548110613538577f4e487b7100000000000000000000000000000000000000000000000000000000600052603260045260246000fd5b9060005260206000200160009054906101000a900473ffffffffffffffffffffffffffffffffffffffff1673ffffffffffffffffffffffffffffffffffffffff166370a08231306040518263ffffffff1660e01b815260040161359b9190615263565b60206040518083038186803b1580156135b357600080fd5b505afa1580156135c7573d6000803e3d6000fd5b505050506040513d601f19601f820116820180604052508101906135eb9190614a8a565b6135f59190615a14565b9050600081146137c15760078260ff168154811061363c577f4e487b7100000000000000000000000000000000000000000000000000000000600052603260045260246000fd5b9060005260206000200160009054906101000a900473ffffffffffffffffffffffffffffffffffffffff1673ffffffffffffffffffffffffffffffffffffffff1663a9059cbb600260009054906101000a900473ffffffffffffffffffffffffffffffffffffffff16600360009054906101000a900473ffffffffffffffffffffffffffffffffffffffff1673ffffffffffffffffffffffffffffffffffffffff1663875d11e26040518163ffffffff1660e01b815260040160206040518083038186803b15801561370d57600080fd5b505afa158015613721573d6000803e3d6000fd5b505050506040513d601f19601f820116820180604052508101906137459190614a8a565b846137509190615989565b6040518363ffffffff1660e01b815260040161376d9291906152b4565b602060405180830381600087803b15801561378757600080fd5b505af115801561379b573d6000803e3d6000fd5b505050506040513d601f19601f820116820180604052508101906137bf9190614a38565b505b5080806137cd90615baf565b9150506134a5565b50600360009054906101000a900473ffffffffffffffffffffffffffffffffffffffff1673ffffffffffffffffffffffffffffffffffffffff1663a41fe49f600c548660006040518463ffffffff1660e01b8152600401613838939291906157a3565b600060405180830381600087803b15801561385257600080fd5b505af1158015613866573d6000803e3d6000fd5b50505050505050505050505061387a614616565b505050565b613887614585565b73ffffffffffffffffffffffffffffffffffffffff166138a561223a565b73ffffffffffffffffffffffffffffffffffffffff16146138fb576040517f08c379a00000000000000000000000000000000000000000000000000000000081526004016138f290615575565b60405180910390fd5b6000811161393e576040517f08c379a000000000000000000000000000000000000000000000000000000000815260040161393590615655565b60405180910390fd5b8173ffffffffffffffffffffffffffffffffffffffff1663a9059cbb600260009054906101000a900473ffffffffffffffffffffffffffffffffffffffff16836040518363ffffffff1660e01b815260040161399b9291906152b4565b602060405180830381600087803b1580156139b557600080fd5b505af11580156139c9573d6000803e3d6000fd5b505050506040513d601f19601f820116820180604052508101906139ed9190614a38565b505050565b6139fa614585565b73ffffffffffffffffffffffffffffffffffffffff16613a1861223a565b73ffffffffffffffffffffffffffffffffffffffff1614613a6e576040517f08c379a0000000000000000000000000000000000000000000000000000000008152600401613a6590615575565b60405180910390fd5b600d60009054906101000a900460ff1615600d60006101000a81548160ff021916908315150217905550565b613aa2614585565b73ffffffffffffffffffffffffffffffffffffffff16613ac061223a565b73ffffffffffffffffffffffffffffffffffffffff1614613b16576040517f08c379a0000000000000000000000000000000000000000000000000000000008152600401613b0d90615575565b60405180910390fd5b6000600560009054906101000a900473ffffffffffffffffffffffffffffffffffffffff1673ffffffffffffffffffffffffffffffffffffffff166370a08231306040518263ffffffff1660e01b8152600401613b739190615263565b60206040518083038186803b158015613b8b57600080fd5b505afa158015613b9f573d6000803e3d6000fd5b505050506040513d601f19601f82011682018060405250810190613bc39190614a8a565b90506000600b60009054906101000a900473ffffffffffffffffffffffffffffffffffffffff1673ffffffffffffffffffffffffffffffffffffffff16858585604051602401613c1593929190615375565b6040516020818303038152906040527f418e72dc000000000000000000000000000000000000000000000000000000007bffffffffffffffffffffffffffffffffffffffffffffffffffffffff19166020820180517bffffffffffffffffffffffffffffffffffffffffffffffffffffffff8381831617835250505050604051613c9f919061524c565b600060405180830381855af49150503d8060008114613cda576040519150601f19603f3d011682016040523d82523d6000602084013e613cdf565b606091505b505090506001151581151514613d2a576040517f08c379a0000000000000000000000000000000000000000000000000000000008152600401613d2190615495565b60405180910390fd5b60006004600081548110613d67577f4e487b7100000000000000000000000000000000000000000000000000000000600052603260045260246000fd5b9060005260206000200160009054906101000a900473ffffffffffffffffffffffffffffffffffffffff1673ffffffffffffffffffffffffffffffffffffffff166370a08231306040518263ffffffff1660e01b8152600401613dca9190615263565b60206040518083038186803b158015613de257600080fd5b505afa158015613df6573d6000803e3d6000fd5b505050506040513d601f19601f82011682018060405250810190613e1a9190614a8a565b905060006004600181548110613e59577f4e487b7100000000000000000000000000000000000000000000000000000000600052603260045260246000fd5b9060005260206000200160009054906101000a900473ffffffffffffffffffffffffffffffffffffffff1673ffffffffffffffffffffffffffffffffffffffff166370a08231306040518263ffffffff1660e01b8152600401613ebc9190615263565b60206040518083038186803b158015613ed457600080fd5b505afa158015613ee8573d6000803e3d6000fd5b505050506040513d601f19601f82011682018060405250810190613f0c9190614a8a565b905060003073ffffffffffffffffffffffffffffffffffffffff163190506000736e84a6216ea6dacc71ee8e6b0a5b7322eebc0fdd73ffffffffffffffffffffffffffffffffffffffff166370a08231306040518263ffffffff1660e01b8152600401613f799190615263565b60206040518083038186803b158015613f9157600080fd5b505afa158015613fa5573d6000803e3d6000fd5b505050506040513d601f19601f82011682018060405250810190613fc99190614a8a565b9050600c547fd1574fc223564211a793f30f052901e5f816e73e6ab9ca61a12f206ac1c7388e858585604051614001939291906157da565b60405180910390a2600080600b60009054906101000a900473ffffffffffffffffffffffffffffffffffffffff1673ffffffffffffffffffffffffffffffffffffffff168b8b8b60405160240161405a93929190615375565b6040516020818303038152906040527f28500458000000000000000000000000000000000000000000000000000000007bffffffffffffffffffffffffffffffffffffffffffffffffffffffff19166020820180517bffffffffffffffffffffffffffffffffffffffffffffffffffffffff83818316178352505050506040516140e4919061524c565b600060405180830381855af49150503d806000811461411f576040519150601f19603f3d011682016040523d82523d6000602084013e614124565b606091505b50915091506001151582151514614170576040517f08c379a0000000000000000000000000000000000000000000000000000000008152600401614167906155d5565b60405180910390fd5b6000600660009054906101000a900473ffffffffffffffffffffffffffffffffffffffff1673ffffffffffffffffffffffffffffffffffffffff166370a08231306040518263ffffffff1660e01b81526004016141cd9190615263565b60206040518083038186803b1580156141e557600080fd5b505afa1580156141f9573d6000803e3d6000fd5b505050506040513d601f19601f8201168201806040525081019061421d9190614a8a565b9050600c547fe2a981163ea9f2e157742b9b7b75d5b09d6d693b19afe3036573c857d6d02780826040516142519190615675565b60405180910390a2600560009054906101000a900473ffffffffffffffffffffffffffffffffffffffff1673ffffffffffffffffffffffffffffffffffffffff1663b6b55f25600660009054906101000a900473ffffffffffffffffffffffffffffffffffffffff1673ffffffffffffffffffffffffffffffffffffffff166370a08231306040518263ffffffff1660e01b81526004016142f29190615263565b60206040518083038186803b15801561430a57600080fd5b505afa15801561431e573d6000803e3d6000fd5b505050506040513d601f19601f820116820180604052508101906143429190614a8a565b6040518263ffffffff1660e01b815260040161435e9190615675565b600060405180830381600087803b15801561437857600080fd5b505af115801561438c573d6000803e3d6000fd5b505050506000600a54426143a09190615a14565b905060008a670de0b6b3a7640000846143b991906159ba565b6143c39190615989565b9050816301e133806143d59190615989565b816143e091906159ba565b600981905550600360009054906101000a900473ffffffffffffffffffffffffffffffffffffffff1673ffffffffffffffffffffffffffffffffffffffff1663064e7a73600c54856040518363ffffffff1660e01b815260040161444592919061577a565b600060405180830381600087803b15801561445f57600080fd5b505af1158015614473573d6000803e3d6000fd5b505050505050505050505050505050505050565b61448f614585565b73ffffffffffffffffffffffffffffffffffffffff166144ad61223a565b73ffffffffffffffffffffffffffffffffffffffff1614614503576040517f08c379a00000000000000000000000000000000000000000000000000000000081526004016144fa90615575565b60405180910390fd5b600073ffffffffffffffffffffffffffffffffffffffff168173ffffffffffffffffffffffffffffffffffffffff161415614573576040517f08c379a000000000000000000000000000000000000000000000000000000000815260040161456a906154d5565b60405180910390fd5b61457c8161461f565b50565b60095481565b600033905090565b600260015414156145d3576040517f08c379a00000000000000000000000000000000000000000000000000000000081526004016145ca90615615565b60405180910390fd5b6002600181905550565b6000606482606480866145f091906159ba565b6145fa9190615989565b61460491906159ba565b61460e9190615989565b905092915050565b60018081905550565b60008060009054906101000a900473ffffffffffffffffffffffffffffffffffffffff169050816000806101000a81548173ffffffffffffffffffffffffffffffffffffffff021916908373ffffffffffffffffffffffffffffffffffffffff1602179055508173ffffffffffffffffffffffffffffffffffffffff168173ffffffffffffffffffffffffffffffffffffffff167f8be0079c531659141344cd1fd0a4f28419497f9722a3daafe3b4186f6b6457e060405160405180910390a35050565b60006146f66146f184615842565b615811565b9050808382526020820190508285602086028201111561471557600080fd5b60005b85811015614745578161472b88826147bb565b845260208401935060208301925050600181019050614718565b5050509392505050565b600061476261475d8461586e565b615811565b9050808382526020820190508285602086028201111561478157600080fd5b60005b858110156147b15781614797888261484e565b845260208401935060208301925050600181019050614784565b5050509392505050565b6000813590506147ca81615c66565b92915050565b600082601f8301126147e157600080fd5b81356147f18482602086016146e3565b91505092915050565b600082601f83011261480b57600080fd5b815161481b84826020860161474f565b91505092915050565b60008151905061483381615c7d565b92915050565b60008135905061484881615c94565b92915050565b60008151905061485d81615c94565b92915050565b60006020828403121561487557600080fd5b6000614883848285016147bb565b91505092915050565b6000806040838503121561489f57600080fd5b60006148ad858286016147bb565b92505060206148be858286016147bb565b9150509250929050565b600080600080608085870312156148de57600080fd5b60006148ec878288016147bb565b94505060206148fd878288016147bb565b935050604061490e878288016147bb565b925050606061491f878288016147bb565b91505092959194509250565b60008060006060848603121561494057600080fd5b600061494e868287016147bb565b935050602061495f868287016147bb565b925050604061497086828701614839565b9150509250925092565b6000806040838503121561498d57600080fd5b600061499b858286016147bb565b92505060206149ac85828601614839565b9150509250929050565b6000602082840312156149c857600080fd5b600082013567ffffffffffffffff8111156149e257600080fd5b6149ee848285016147d0565b91505092915050565b600060208284031215614a0957600080fd5b600082015167ffffffffffffffff811115614a2357600080fd5b614a2f848285016147fa565b91505092915050565b600060208284031215614a4a57600080fd5b6000614a5884828501614824565b91505092915050565b600060208284031215614a7357600080fd5b6000614a8184828501614839565b91505092915050565b600060208284031215614a9c57600080fd5b6000614aaa8482850161484e565b91505092915050565b600080600060608486031215614ac857600080fd5b6000614ad686828701614839565b9350506020614ae7868287016147bb565b9250506040614af8868287016147bb565b9150509250925092565b600080600060608486031215614b1757600080fd5b6000614b2586828701614839565b9350506020614b36868287016147bb565b925050604084013567ffffffffffffffff811115614b5357600080fd5b614b5f868287016147d0565b9150509250925092565b600080600060608486031215614b7e57600080fd5b6000614b8c8682870161484e565b9350506020614b9d8682870161484e565b9250506040614bae8682870161484e565b9150509250925092565b6000614bc48383614c06565b60208301905092915050565b6000614bdc838361522e565b60208301905092915050565b614bf181615aaf565b82525050565b614c0081615a5a565b82525050565b614c0f81615a48565b82525050565b614c1e81615a48565b82525050565b6000614c2f826158ba565b614c3981856158f5565b9350614c448361589a565b8060005b83811015614c75578151614c5c8882614bb8565b9750614c67836158db565b925050600181019050614c48565b5085935050505092915050565b6000614c8d826158c5565b614c978185615906565b9350614ca2836158aa565b8060005b83811015614cd3578151614cba8882614bd0565b9750614cc5836158e8565b925050600181019050614ca6565b5085935050505092915050565b614ce981615a6c565b82525050565b6000614cfa826158d0565b614d048185615917565b9350614d14818560208601615b09565b80840191505092915050565b614d2981615ac1565b82525050565b614d3881615ad3565b82525050565b6000614d4b601b83615922565b91507f53776170205265776172647320666f72204c50204661696c65642e00000000006000830152602082019050919050565b6000614d8b602383615922565b91507f6465706f7369744c504e61746976652068656c7065722063616c6c206661696c60008301527f65642e00000000000000000000000000000000000000000000000000000000006020830152604082019050919050565b6000614df1602683615922565b91507f4f776e61626c653a206e6577206f776e657220697320746865207a65726f206160008301527f64647265737300000000000000000000000000000000000000000000000000006020830152604082019050919050565b6000614e57603983615922565b91507f436f6e7472616374206d75737420626520706175736564206265666f7265207060008301527f6572666f726d696e672074686973206f7065726174696f6e2e000000000000006020830152604082019050919050565b6000614ebd603983615922565b91507f6465706f7369744c504e61746976652068656c7065722063616c6c206661696c60008301527f6564207768656e20666f726365206465706f736974696e672e000000000000006020830152604082019050919050565b6000614f23601d83615922565b91507f55736572206973206e6f74206f6e207468652077686974656c6973742e0000006000830152602082019050919050565b6000614f63601383615922565b91507f436f6e7472616374206973205061757365642e000000000000000000000000006000830152602082019050919050565b6000614fa3602083615922565b91507f4f776e61626c653a2063616c6c6572206973206e6f7420746865206f776e65726000830152602082019050919050565b6000614fe3602883615922565b91507f496e73756666696369656e742046756e64732066726f6d205374616b696e672060008301527f4d616e616765722e0000000000000000000000000000000000000000000000006020830152604082019050919050565b6000615049603283615922565b91507f44656c656761746563616c6c20746f2061646441766178506169724c6971756960008301527f64697479416d6f756e74204661696c65642e00000000000000000000000000006020830152604082019050919050565b60006150af601683615922565b91507f5265696e76657374696e67204c50204661696c65642e000000000000000000006000830152602082019050919050565b60006150ef601e83615922565b91507f576974686472617720416d6f756e7420457175616c20746f205a65726f2e00006000830152602082019050919050565b600061512f601f83615922565b91507f5265656e7472616e637947756172643a207265656e7472616e742063616c6c006000830152602082019050919050565b600061516f602283615922565b91507f416d6f756e7420746f204465706f736974206973205a65726f206f72204c657360008301527f732e0000000000000000000000000000000000000000000000000000000000006020830152604082019050919050565b60006151d5602983615922565b91507f556e6976657273616c205472616e7366657220616d6f756e742063616e6e6f7460008301527f206265207a65726f2e00000000000000000000000000000000000000000000006020830152604082019050919050565b61523781615a98565b82525050565b61524681615a98565b82525050565b60006152588284614cef565b915081905092915050565b60006020820190506152786000830184614c15565b92915050565b60006020820190506152936000830184614be8565b92915050565b60006020820190506152ae6000830184614bf7565b92915050565b60006040820190506152c96000830185614be8565b6152d6602083018461523d565b9392505050565b60006040820190506152f26000830185614c15565b6152ff6020830184614c15565b9392505050565b600060e08201905061531b600083018a614c15565b6153286020830189614c15565b6153356040830188614c15565b6153426060830187614c15565b61534f608083018661523d565b61535c60a083018561523d565b61536960c083018461523d565b98975050505050505050565b600060608201905061538a6000830186614c15565b6153976020830185614c15565b6153a4604083018461523d565b949350505050565b60006040820190506153c16000830185614c15565b6153ce6020830184614d2f565b9392505050565b600060c0820190506153ea6000830189614c15565b6153f7602083018861523d565b615404604083018761523d565b615411606083018661523d565b61541e6080830185614c15565b61542b60a083018461523d565b979650505050505050565b600060208201905081810360008301526154508184614c24565b905092915050565b600060208201905081810360008301526154728184614c82565b905092915050565b600060208201905061548f6000830184614ce0565b92915050565b600060208201905081810360008301526154ae81614d3e565b9050919050565b600060208201905081810360008301526154ce81614d7e565b9050919050565b600060208201905081810360008301526154ee81614de4565b9050919050565b6000602082019050818103600083015261550e81614e4a565b9050919050565b6000602082019050818103600083015261552e81614eb0565b9050919050565b6000602082019050818103600083015261554e81614f16565b9050919050565b6000602082019050818103600083015261556e81614f56565b9050919050565b6000602082019050818103600083015261558e81614f96565b9050919050565b600060208201905081810360008301526155ae81614fd6565b9050919050565b600060208201905081810360008301526155ce8161503c565b9050919050565b600060208201905081810360008301526155ee816150a2565b9050919050565b6000602082019050818103600083015261560e816150e2565b9050919050565b6000602082019050818103600083015261562e81615122565b9050919050565b6000602082019050818103600083015261564e81615162565b9050919050565b6000602082019050818103600083015261566e816151c8565b9050919050565b600060208201905061568a600083018461523d565b92915050565b60006040820190506156a5600083018561523d565b6156b26020830184614c15565b9392505050565b60006080820190506156ce600083018761523d565b6156db6020830186614bf7565b6156e86040830185614c15565b6156f56060830184614bf7565b95945050505050565b6000604082019050615713600083018561523d565b81810360208301526157258184614c24565b90509392505050565b6000608082019050615743600083018761523d565b81810360208301526157558186614c24565b90506157646040830185614c15565b615771606083018461523d565b95945050505050565b600060408201905061578f600083018561523d565b61579c602083018461523d565b9392505050565b60006060820190506157b8600083018661523d565b6157c5602083018561523d565b6157d26040830184614d20565b949350505050565b60006060820190506157ef600083018661523d565b6157fc602083018561523d565b615809604083018461523d565b949350505050565b6000604051905081810181811067ffffffffffffffff8211171561583857615837615c37565b5b8060405250919050565b600067ffffffffffffffff82111561585d5761585c615c37565b5b602082029050602081019050919050565b600067ffffffffffffffff82111561588957615888615c37565b5b602082029050602081019050919050565b6000819050602082019050919050565b6000819050602082019050919050565b600081519050919050565b600081519050919050565b600081519050919050565b6000602082019050919050565b6000602082019050919050565b600082825260208201905092915050565b600082825260208201905092915050565b600081905092915050565b600082825260208201905092915050565b600061593e82615a98565b915061594983615a98565b9250827fffffffffffffffffffffffffffffffffffffffffffffffffffffffffffffffff0382111561597e5761597d615bd9565b5b828201905092915050565b600061599482615a98565b915061599f83615a98565b9250826159af576159ae615c08565b5b828204905092915050565b60006159c582615a98565b91506159d083615a98565b9250817fffffffffffffffffffffffffffffffffffffffffffffffffffffffffffffffff0483118215151615615a0957615a08615bd9565b5b828202905092915050565b6000615a1f82615a98565b9150615a2a83615a98565b925082821015615a3d57615a3c615bd9565b5b828203905092915050565b6000615a5382615a78565b9050919050565b6000615a6582615a78565b9050919050565b60008115159050919050565b600073ffffffffffffffffffffffffffffffffffffffff82169050919050565b6000819050919050565b600060ff82169050919050565b6000615aba82615ae5565b9050919050565b6000615acc82615a98565b9050919050565b6000615ade82615a98565b9050919050565b6000615af082615af7565b9050919050565b6000615b0282615a78565b9050919050565b60005b83811015615b27578082015181840152602081019050615b0c565b83811115615b36576000848401525b50505050565b6000615b4782615a98565b91506000821415615b5b57615b5a615bd9565b5b600182039050919050565b6000615b7182615a98565b91507fffffffffffffffffffffffffffffffffffffffffffffffffffffffffffffffff821415615ba457615ba3615bd9565b5b600182019050919050565b6000615bba82615aa2565b915060ff821415615bce57615bcd615bd9565b5b600182019050919050565b7f4e487b7100000000000000000000000000000000000000000000000000000000600052601160045260246000fd5b7f4e487b7100000000000000000000000000000000000000000000000000000000600052601260045260246000fd5b7f4e487b7100000000000000000000000000000000000000000000000000000000600052604160045260246000fd5b615c6f81615a48565b8114615c7a57600080fd5b50565b615c8681615a6c565b8114615c9157600080fd5b50565b615c9d81615a98565b8114615ca857600080fd5b5056fea2646970667358221220acef8210fbb0f1efbbecbd497420a1b12c3ade91cff7d37ab446092b3019348764736f6c63430008000033",
  "linkReferences": {},
  "deployedLinkReferences": {}
}