{
  "_format": "hh-sol-artifact-1",
  "contractName": "InvestorSingle",
  "sourceName": "contracts/InvestorSingle.sol",
  "abi": [
    {
      "inputs": [
        {
          "internalType": "address payable",
          "name": "_treasury",
          "type": "address"
        },
        {
          "internalType": "address",
          "name": "_targetToken",
          "type": "address"
        },
        {
          "internalType": "address",
          "name": "_stakingManager",
          "type": "address"
        },
        {
          "internalType": "address",
          "name": "_investmentAddress",
          "type": "address"
        },
        {
          "internalType": "address",
          "name": "_liquidityPool",
          "type": "address"
        },
        {
          "internalType": "address[]",
          "name": "_tokensToBeRewardedAddress",
          "type": "address[]"
        },
        {
          "internalType": "address",
          "name": "_investorHelper",
          "type": "address"
        },
        {
          "internalType": "uint256",
          "name": "_poolId",
          "type": "uint256"
        }
      ],
      "stateMutability": "nonpayable",
      "type": "constructor"
    },
    {
      "anonymous": false,
      "inputs": [
        {
          "indexed": true,
          "internalType": "uint256",
          "name": "poolId",
          "type": "uint256"
        },
        {
          "indexed": false,
          "internalType": "uint256",
          "name": "amount",
          "type": "uint256"
        }
      ],
      "name": "LpEarned",
      "type": "event"
    },
    {
      "anonymous": false,
      "inputs": [
        {
          "indexed": true,
          "internalType": "address",
          "name": "previousOwner",
          "type": "address"
        },
        {
          "indexed": true,
          "internalType": "address",
          "name": "newOwner",
          "type": "address"
        }
      ],
      "name": "OwnershipTransferred",
      "type": "event"
    },
    {
      "anonymous": false,
      "inputs": [
        {
          "indexed": true,
          "internalType": "uint256",
          "name": "poolId",
          "type": "uint256"
        },
        {
          "indexed": false,
          "internalType": "uint256",
          "name": "token0Amount",
          "type": "uint256"
        }
      ],
      "name": "tokensGained",
      "type": "event"
    },
    {
      "stateMutability": "payable",
      "type": "fallback"
    },
    {
      "inputs": [],
      "name": "aprTracker",
      "outputs": [
        {
          "internalType": "uint256",
          "name": "",
          "type": "uint256"
        }
      ],
      "stateMutability": "view",
      "type": "function"
    },
    {
      "inputs": [
        {
          "internalType": "address",
          "name": "_newStakingManager",
          "type": "address"
        }
      ],
      "name": "changeStakingManager",
      "outputs": [],
      "stateMutability": "nonpayable",
      "type": "function"
    },
    {
      "inputs": [
        {
          "internalType": "address",
          "name": "_tokenAddress",
          "type": "address"
        },
        {
          "internalType": "address",
          "name": "_spender",
          "type": "address"
        },
        {
          "internalType": "address",
          "name": "_assenter",
          "type": "address"
        }
      ],
      "name": "checkAllowance",
      "outputs": [],
      "stateMutability": "nonpayable",
      "type": "function"
    },
    {
      "inputs": [],
      "name": "cyp",
      "outputs": [
        {
          "internalType": "uint256",
          "name": "",
          "type": "uint256"
        }
      ],
      "stateMutability": "view",
      "type": "function"
    },
    {
      "inputs": [
        {
          "internalType": "uint256",
          "name": "_amount",
          "type": "uint256"
        }
      ],
      "name": "depositSingle",
      "outputs": [],
      "stateMutability": "nonpayable",
      "type": "function"
    },
    {
      "inputs": [],
      "name": "evacuateAvax",
      "outputs": [],
      "stateMutability": "nonpayable",
      "type": "function"
    },
    {
      "inputs": [],
      "name": "evacuateFunds",
      "outputs": [],
      "stateMutability": "nonpayable",
      "type": "function"
    },
    {
      "inputs": [
        {
          "internalType": "uint256",
          "name": "_amountIn",
          "type": "uint256"
        },
        {
          "internalType": "address",
          "name": "_routerAddr",
          "type": "address"
        },
        {
          "internalType": "address[]",
          "name": "_tokenPath",
          "type": "address[]"
        }
      ],
      "name": "getExchangeRate",
      "outputs": [
        {
          "internalType": "uint256[]",
          "name": "",
          "type": "uint256[]"
        }
      ],
      "stateMutability": "payable",
      "type": "function"
    },
    {
      "inputs": [],
      "name": "investmentAddress",
      "outputs": [
        {
          "internalType": "address payable",
          "name": "",
          "type": "address"
        }
      ],
      "stateMutability": "view",
      "type": "function"
    },
    {
      "inputs": [],
      "name": "investorHelper",
      "outputs": [
        {
          "internalType": "address",
          "name": "",
          "type": "address"
        }
      ],
      "stateMutability": "view",
      "type": "function"
    },
    {
      "inputs": [],
      "name": "last7Apr",
      "outputs": [
        {
          "internalType": "uint256",
          "name": "",
          "type": "uint256"
        }
      ],
      "stateMutability": "view",
      "type": "function"
    },
    {
      "inputs": [],
      "name": "lastClaim",
      "outputs": [
        {
          "internalType": "uint256",
          "name": "",
          "type": "uint256"
        }
      ],
      "stateMutability": "view",
      "type": "function"
    },
    {
      "inputs": [],
      "name": "liquidityPool",
      "outputs": [
        {
          "internalType": "address payable",
          "name": "",
          "type": "address"
        }
      ],
      "stateMutability": "view",
      "type": "function"
    },
    {
      "inputs": [],
      "name": "owner",
      "outputs": [
        {
          "internalType": "address",
          "name": "",
          "type": "address"
        }
      ],
      "stateMutability": "view",
      "type": "function"
    },
    {
      "inputs": [],
      "name": "paused",
      "outputs": [
        {
          "internalType": "bool",
          "name": "",
          "type": "bool"
        }
      ],
      "stateMutability": "view",
      "type": "function"
    },
    {
      "inputs": [],
      "name": "poolId",
      "outputs": [
        {
          "internalType": "uint256",
          "name": "",
          "type": "uint256"
        }
      ],
      "stateMutability": "view",
      "type": "function"
    },
    {
      "inputs": [
        {
          "internalType": "address",
          "name": "_spenderAddress",
          "type": "address"
        },
        {
          "internalType": "address",
          "name": "_avaxAddress",
          "type": "address"
        },
        {
          "internalType": "uint256",
          "name": "_slippage",
          "type": "uint256"
        }
      ],
      "name": "reinvest",
      "outputs": [],
      "stateMutability": "nonpayable",
      "type": "function"
    },
    {
      "inputs": [],
      "name": "renounceOwnership",
      "outputs": [],
      "stateMutability": "nonpayable",
      "type": "function"
    },
    {
      "inputs": [
        {
          "internalType": "address",
          "name": "",
          "type": "address"
        }
      ],
      "name": "rewardSnapshot",
      "outputs": [
        {
          "internalType": "uint256",
          "name": "",
          "type": "uint256"
        }
      ],
      "stateMutability": "view",
      "type": "function"
    },
    {
      "inputs": [],
      "name": "stakingManager",
      "outputs": [
        {
          "internalType": "address",
          "name": "",
          "type": "address"
        }
      ],
      "stateMutability": "view",
      "type": "function"
    },
    {
      "inputs": [],
      "name": "targetToken",
      "outputs": [
        {
          "internalType": "address",
          "name": "",
          "type": "address"
        }
      ],
      "stateMutability": "view",
      "type": "function"
    },
    {
      "inputs": [],
      "name": "togglePause",
      "outputs": [],
      "stateMutability": "nonpayable",
      "type": "function"
    },
    {
      "inputs": [
        {
          "internalType": "uint256",
          "name": "",
          "type": "uint256"
        }
      ],
      "name": "tokensToBeRewardedAddress",
      "outputs": [
        {
          "internalType": "address",
          "name": "",
          "type": "address"
        }
      ],
      "stateMutability": "view",
      "type": "function"
    },
    {
      "inputs": [
        {
          "internalType": "address",
          "name": "newOwner",
          "type": "address"
        }
      ],
      "name": "transferOwnership",
      "outputs": [],
      "stateMutability": "nonpayable",
      "type": "function"
    },
    {
      "inputs": [],
      "name": "treasury",
      "outputs": [
        {
          "internalType": "address payable",
          "name": "",
          "type": "address"
        }
      ],
      "stateMutability": "view",
      "type": "function"
    },
    {
      "inputs": [
        {
          "internalType": "address",
          "name": "_tokenAddress",
          "type": "address"
        },
        {
          "internalType": "uint256",
          "name": "_amount",
          "type": "uint256"
        }
      ],
      "name": "universalTransfer",
      "outputs": [],
      "stateMutability": "nonpayable",
      "type": "function"
    },
    {
      "inputs": [
        {
          "internalType": "uint256",
          "name": "_amount",
          "type": "uint256"
        }
      ],
      "name": "withdrawSingle",
      "outputs": [],
      "stateMutability": "nonpayable",
      "type": "function"
    },
    {
      "stateMutability": "payable",
      "type": "receive"
    }
  ],
  "bytecode": "0x60806040523480156200001157600080fd5b5060405162004c4938038062004c49833981810160405281019062000037919062000495565b620000576200004b6200023460201b60201c565b6200023c60201b60201c565b6001808190555087600260006101000a81548173ffffffffffffffffffffffffffffffffffffffff021916908373ffffffffffffffffffffffffffffffffffffffff16021790555086600460006101000a81548173ffffffffffffffffffffffffffffffffffffffff021916908373ffffffffffffffffffffffffffffffffffffffff16021790555085600360006101000a81548173ffffffffffffffffffffffffffffffffffffffff021916908373ffffffffffffffffffffffffffffffffffffffff16021790555084600560006101000a81548173ffffffffffffffffffffffffffffffffffffffff021916908373ffffffffffffffffffffffffffffffffffffffff16021790555083600660006101000a81548173ffffffffffffffffffffffffffffffffffffffff021916908373ffffffffffffffffffffffffffffffffffffffff1602179055508260079080519060200190620001bb92919062000300565b5042600b8190555081600c60006101000a81548173ffffffffffffffffffffffffffffffffffffffff021916908373ffffffffffffffffffffffffffffffffffffffff16021790555080600d819055506000600e60006101000a81548160ff0219169083151502179055505050505050505050620006a3565b600033905090565b60008060009054906101000a900473ffffffffffffffffffffffffffffffffffffffff169050816000806101000a81548173ffffffffffffffffffffffffffffffffffffffff021916908373ffffffffffffffffffffffffffffffffffffffff1602179055508173ffffffffffffffffffffffffffffffffffffffff168173ffffffffffffffffffffffffffffffffffffffff167f8be0079c531659141344cd1fd0a4f28419497f9722a3daafe3b4186f6b6457e060405160405180910390a35050565b8280548282559060005260206000209081019282156200037c579160200282015b828111156200037b5782518260006101000a81548173ffffffffffffffffffffffffffffffffffffffff021916908373ffffffffffffffffffffffffffffffffffffffff1602179055509160200191906001019062000321565b5b5090506200038b91906200038f565b5090565b5b80821115620003aa57600081600090555060010162000390565b5090565b6000620003c5620003bf84620005a5565b62000571565b90508083825260208201905082856020860282011115620003e557600080fd5b60005b85811015620004195781620003fe888262000423565b845260208401935060208301925050600181019050620003e8565b5050509392505050565b600081519050620004348162000655565b92915050565b6000815190506200044b816200066f565b92915050565b600082601f8301126200046357600080fd5b815162000475848260208601620003ae565b91505092915050565b6000815190506200048f8162000689565b92915050565b600080600080600080600080610100898b031215620004b357600080fd5b6000620004c38b828c016200043a565b9850506020620004d68b828c0162000423565b9750506040620004e98b828c0162000423565b9650506060620004fc8b828c0162000423565b95505060806200050f8b828c0162000423565b94505060a089015167ffffffffffffffff8111156200052d57600080fd5b6200053b8b828c0162000451565b93505060c06200054e8b828c0162000423565b92505060e0620005618b828c016200047e565b9150509295985092959890939650565b6000604051905081810181811067ffffffffffffffff821117156200059b576200059a62000626565b5b8060405250919050565b600067ffffffffffffffff821115620005c357620005c262000626565b5b602082029050602081019050919050565b6000620005e182620005fc565b9050919050565b6000620005f582620005fc565b9050919050565b600073ffffffffffffffffffffffffffffffffffffffff82169050919050565b6000819050919050565b7f4e487b7100000000000000000000000000000000000000000000000000000000600052604160045260246000fd5b6200066081620005d4565b81146200066c57600080fd5b50565b6200067a81620005e8565b81146200068657600080fd5b50565b62000694816200061c565b8114620006a057600080fd5b50565b61459680620006b36000396000f3fe6080604052600436106101a05760003560e01c80636687a9b0116100ec578063a49a007c1161008a578063c4ae316811610064578063c4ae316814610569578063d65996ba14610580578063d8182e92146105ab578063f2fde38b146105d4576101a7565b8063a49a007c146104fe578063a8adb56414610515578063c35443cf14610540576101a7565b80638da5cb5b116100c65780638da5cb5b146104425780639077b9e91461046d578063950d02e2146104aa5780639f5b765f146104d3576101a7565b80636687a9b0146103d9578063715018a6146104025780638ca5f77214610419576101a7565b80633fae5b2c11610159578063536200ba11610133578063536200ba146103415780635c975abb1461035857806361d027b314610383578063665a11ca146103ae576101a7565b80633fae5b2c146102c257806351ba89b1146102eb57806353030d9114610316576101a7565b8063033690e3146101a95780630b14fe46146101d457806322828cc214610204578063327107f71461022f5780633ad9a2111461025a5780633e0dc34e14610297576101a7565b366101a757005b005b3480156101b557600080fd5b506101be6105fd565b6040516101cb919061400b565b60405180910390f35b6101ee60048036038101906101e99190613876565b610603565b6040516101fb9190613eae565b60405180910390f35b34801561021057600080fd5b506102196106a3565b6040516102269190613d9d565b60405180910390f35b34801561023b57600080fd5b506102446106c9565b6040516102519190613d9d565b60405180910390f35b34801561026657600080fd5b50610281600480360381019061027c9190613824565b6106ef565b60405161028e9190613d9d565b60405180910390f35b3480156102a357600080fd5b506102ac61072e565b6040516102b9919061400b565b60405180910390f35b3480156102ce57600080fd5b506102e960048036038101906102e491906136b7565b610734565b005b3480156102f757600080fd5b506103006107f4565b60405161030d9190613d9d565b60405180910390f35b34801561032257600080fd5b5061032b61081a565b6040516103389190613db8565b60405180910390f35b34801561034d57600080fd5b50610356610840565b005b34801561036457600080fd5b5061036d610944565b60405161037a9190613ed0565b60405180910390f35b34801561038f57600080fd5b50610398610957565b6040516103a59190613db8565b60405180910390f35b3480156103ba57600080fd5b506103c361097d565b6040516103d09190613db8565b60405180910390f35b3480156103e557600080fd5b5061040060048036038101906103fb9190613824565b6109a3565b005b34801561040e57600080fd5b50610417610dd5565b005b34801561042557600080fd5b50610440600480360381019061043b91906136e0565b610e5d565b005b34801561044e57600080fd5b50610457610fc8565b6040516104649190613d9d565b60405180910390f35b34801561047957600080fd5b50610494600480360381019061048f91906136b7565b610ff1565b6040516104a1919061400b565b60405180910390f35b3480156104b657600080fd5b506104d160048036038101906104cc9190613824565b611009565b005b3480156104df57600080fd5b506104e86115b7565b6040516104f5919061400b565b60405180910390f35b34801561050a57600080fd5b506105136115bd565b005b34801561052157600080fd5b5061052a611956565b604051610537919061400b565b60405180910390f35b34801561054c57600080fd5b506105676004803603810190610562919061377e565b61195c565b005b34801561057557600080fd5b5061057e611acf565b005b34801561058c57600080fd5b50610595611b77565b6040516105a2919061400b565b60405180910390f35b3480156105b757600080fd5b506105d260048036038101906105cd919061372f565b611b7d565b005b3480156105e057600080fd5b506105fb60048036038101906105f691906136b7565b612e21565b005b60095481565b6060808373ffffffffffffffffffffffffffffffffffffffff1663d06ca61f86856040518363ffffffff1660e01b815260040161064192919061404f565b60006040518083038186803b15801561065957600080fd5b505afa15801561066d573d6000803e3d6000fd5b505050506040513d6000823e3d601f19601f8201168201806040525081019061069691906137ba565b9050809150509392505050565b600360009054906101000a900473ffffffffffffffffffffffffffffffffffffffff1681565b600460009054906101000a900473ffffffffffffffffffffffffffffffffffffffff1681565b600781815481106106ff57600080fd5b906000526020600020016000915054906101000a900473ffffffffffffffffffffffffffffffffffffffff1681565b600d5481565b61073c612f19565b73ffffffffffffffffffffffffffffffffffffffff1661075a610fc8565b73ffffffffffffffffffffffffffffffffffffffff16146107b0576040517f08c379a00000000000000000000000000000000000000000000000000000000081526004016107a790613f4b565b60405180910390fd5b80600360006101000a81548173ffffffffffffffffffffffffffffffffffffffff021916908373ffffffffffffffffffffffffffffffffffffffff16021790555050565b600c60009054906101000a900473ffffffffffffffffffffffffffffffffffffffff1681565b600560009054906101000a900473ffffffffffffffffffffffffffffffffffffffff1681565b610848612f19565b73ffffffffffffffffffffffffffffffffffffffff16610866610fc8565b73ffffffffffffffffffffffffffffffffffffffff16146108bc576040517f08c379a00000000000000000000000000000000000000000000000000000000081526004016108b390613f4b565b60405180910390fd5b60003073ffffffffffffffffffffffffffffffffffffffff16319050600260009054906101000a900473ffffffffffffffffffffffffffffffffffffffff1673ffffffffffffffffffffffffffffffffffffffff166108fc829081150290604051600060405180830381858888f19350505050158015610940573d6000803e3d6000fd5b5050565b600e60009054906101000a900460ff1681565b600260009054906101000a900473ffffffffffffffffffffffffffffffffffffffff1681565b600660009054906101000a900473ffffffffffffffffffffffffffffffffffffffff1681565b6109ab612f21565b600081116109ee576040517f08c379a00000000000000000000000000000000000000000000000000000000081526004016109e590613fcb565b60405180910390fd5b60001515600e60009054906101000a900460ff16151514610a44576040517f08c379a0000000000000000000000000000000000000000000000000000000008152600401610a3b90613f2b565b60405180910390fd5b600460009054906101000a900473ffffffffffffffffffffffffffffffffffffffff1673ffffffffffffffffffffffffffffffffffffffff166323b872dd3230846040518463ffffffff1660e01b8152600401610aa393929190613e25565b602060405180830381600087803b158015610abd57600080fd5b505af1158015610ad1573d6000803e3d6000fd5b505050506040513d601f19601f82011682018060405250810190610af591906137fb565b506000600660009054906101000a900473ffffffffffffffffffffffffffffffffffffffff1673ffffffffffffffffffffffffffffffffffffffff1663e3d670d7306040518263ffffffff1660e01b8152600401610b539190613d9d565b60206040518083038186803b158015610b6b57600080fd5b505afa158015610b7f573d6000803e3d6000fd5b505050506040513d601f19601f82011682018060405250810190610ba3919061384d565b9050610bf4600460009054906101000a900473ffffffffffffffffffffffffffffffffffffffff16600560009054906101000a900473ffffffffffffffffffffffffffffffffffffffff1630610e5d565b600660009054906101000a900473ffffffffffffffffffffffffffffffffffffffff1673ffffffffffffffffffffffffffffffffffffffff1663b6b55f25836040518263ffffffff1660e01b8152600401610c4f919061400b565b600060405180830381600087803b158015610c6957600080fd5b505af1158015610c7d573d6000803e3d6000fd5b50505050600360009054906101000a900473ffffffffffffffffffffffffffffffffffffffff1673ffffffffffffffffffffffffffffffffffffffff1662aeef8a600d5483600660009054906101000a900473ffffffffffffffffffffffffffffffffffffffff1673ffffffffffffffffffffffffffffffffffffffff1663e3d670d7306040518263ffffffff1660e01b8152600401610d1d9190613d9d565b60206040518083038186803b158015610d3557600080fd5b505afa158015610d49573d6000803e3d6000fd5b505050506040513d601f19601f82011682018060405250810190610d6d919061384d565b610d779190614326565b60006040518463ffffffff1660e01b8152600401610d9793929190614102565b600060405180830381600087803b158015610db157600080fd5b505af1158015610dc5573d6000803e3d6000fd5b5050505050610dd2612f71565b50565b610ddd612f19565b73ffffffffffffffffffffffffffffffffffffffff16610dfb610fc8565b73ffffffffffffffffffffffffffffffffffffffff1614610e51576040517f08c379a0000000000000000000000000000000000000000000000000000000008152600401610e4890613f4b565b60405180910390fd5b610e5b6000612f7a565b565b60008373ffffffffffffffffffffffffffffffffffffffff1663dd62ed3e83856040518363ffffffff1660e01b8152600401610e9a929190613dfc565b60206040518083038186803b158015610eb257600080fd5b505afa158015610ec6573d6000803e3d6000fd5b505050506040513d601f19601f82011682018060405250810190610eea919061384d565b90507fffffffffffffffffffffffffffffffffffffffffffffffffffffffffffffffff8114610fc2578373ffffffffffffffffffffffffffffffffffffffff1663095ea7b3847fffffffffffffffffffffffffffffffffffffffffffffffffffffffffffffffff6040518363ffffffff1660e01b8152600401610f6e929190613e5c565b602060405180830381600087803b158015610f8857600080fd5b505af1158015610f9c573d6000803e3d6000fd5b505050506040513d601f19601f82011682018060405250810190610fc091906137fb565b505b50505050565b60008060009054906101000a900473ffffffffffffffffffffffffffffffffffffffff16905090565b60086020528060005260406000206000915090505481565b611011612f21565b60001515600e60009054906101000a900460ff16151514611067576040517f08c379a000000000000000000000000000000000000000000000000000000000815260040161105e90613f2b565b60405180910390fd5b600081116110aa576040517f08c379a00000000000000000000000000000000000000000000000000000000081526004016110a190613f8b565b60405180910390fd5b600080600360009054906101000a900473ffffffffffffffffffffffffffffffffffffffff1673ffffffffffffffffffffffffffffffffffffffff1663b798aaae600d54326040518363ffffffff1660e01b815260040161110c929190614026565b60606040518083038186803b15801561112457600080fd5b505afa158015611138573d6000803e3d6000fd5b505050506040513d601f19601f8201168201806040525081019061115c91906138dd565b509150915082600360009054906101000a900473ffffffffffffffffffffffffffffffffffffffff1673ffffffffffffffffffffffffffffffffffffffff1663d18df53c600d54326040518363ffffffff1660e01b81526004016111c1929190614026565b60206040518083038186803b1580156111d957600080fd5b505afa1580156111ed573d6000803e3d6000fd5b505050506040513d601f19601f82011682018060405250810190611211919061384d565b828461121d9190614245565b6112279190614245565b1015611268576040517f08c379a000000000000000000000000000000000000000000000000000000000815260040161125f90613f6b565b60405180910390fd5b6000600460009054906101000a900473ffffffffffffffffffffffffffffffffffffffff1673ffffffffffffffffffffffffffffffffffffffff166370a08231306040518263ffffffff1660e01b81526004016112c59190613d9d565b60206040518083038186803b1580156112dd57600080fd5b505afa1580156112f1573d6000803e3d6000fd5b505050506040513d601f19601f82011682018060405250810190611315919061384d565b9050600660009054906101000a900473ffffffffffffffffffffffffffffffffffffffff1673ffffffffffffffffffffffffffffffffffffffff1663441a3e708561136187606161303e565b6040518363ffffffff1660e01b815260040161137e92919061407f565b600060405180830381600087803b15801561139857600080fd5b505af11580156113ac573d6000803e3d6000fd5b50505050600360009054906101000a900473ffffffffffffffffffffffffffffffffffffffff1673ffffffffffffffffffffffffffffffffffffffff1663a41fe49f600d548660006040518463ffffffff1660e01b815260040161141293929190614102565b600060405180830381600087803b15801561142c57600080fd5b505af1158015611440573d6000803e3d6000fd5b50505050600460009054906101000a900473ffffffffffffffffffffffffffffffffffffffff1673ffffffffffffffffffffffffffffffffffffffff1663a9059cbb3283600460009054906101000a900473ffffffffffffffffffffffffffffffffffffffff1673ffffffffffffffffffffffffffffffffffffffff166370a08231306040518263ffffffff1660e01b81526004016114df9190613d9d565b60206040518083038186803b1580156114f757600080fd5b505afa15801561150b573d6000803e3d6000fd5b505050506040513d601f19601f8201168201806040525081019061152f919061384d565b6115399190614326565b6040518363ffffffff1660e01b8152600401611556929190613e85565b602060405180830381600087803b15801561157057600080fd5b505af1158015611584573d6000803e3d6000fd5b505050506040513d601f19601f820116820180604052508101906115a891906137fb565b505050506115b4612f71565b50565b600f5481565b6115c5612f19565b73ffffffffffffffffffffffffffffffffffffffff166115e3610fc8565b73ffffffffffffffffffffffffffffffffffffffff1614611639576040517f08c379a000000000000000000000000000000000000000000000000000000000815260040161163090613f4b565b60405180910390fd5b60011515600e60009054906101000a900460ff1615151461168f576040517f08c379a000000000000000000000000000000000000000000000000000000000815260040161168690613f0b565b60405180910390fd5b6000600660009054906101000a900473ffffffffffffffffffffffffffffffffffffffff1673ffffffffffffffffffffffffffffffffffffffff1663e3d670d7306040518263ffffffff1660e01b81526004016116ec9190613d9d565b60206040518083038186803b15801561170457600080fd5b505afa158015611718573d6000803e3d6000fd5b505050506040513d601f19601f8201168201806040525081019061173c919061384d565b9050600660009054906101000a900473ffffffffffffffffffffffffffffffffffffffff1673ffffffffffffffffffffffffffffffffffffffff1663441a3e708261178884606261303e565b6040518363ffffffff1660e01b81526004016117a592919061407f565b600060405180830381600087803b1580156117bf57600080fd5b505af11580156117d3573d6000803e3d6000fd5b50505050600460009054906101000a900473ffffffffffffffffffffffffffffffffffffffff1673ffffffffffffffffffffffffffffffffffffffff1663a9059cbb600260009054906101000a900473ffffffffffffffffffffffffffffffffffffffff16600460009054906101000a900473ffffffffffffffffffffffffffffffffffffffff1673ffffffffffffffffffffffffffffffffffffffff166370a08231306040518263ffffffff1660e01b81526004016118939190613d9d565b60206040518083038186803b1580156118ab57600080fd5b505afa1580156118bf573d6000803e3d6000fd5b505050506040513d601f19601f820116820180604052508101906118e3919061384d565b6040518363ffffffff1660e01b8152600401611900929190613dd3565b602060405180830381600087803b15801561191a57600080fd5b505af115801561192e573d6000803e3d6000fd5b505050506040513d601f19601f8201168201806040525081019061195291906137fb565b5050565b600b5481565b611964612f19565b73ffffffffffffffffffffffffffffffffffffffff16611982610fc8565b73ffffffffffffffffffffffffffffffffffffffff16146119d8576040517f08c379a00000000000000000000000000000000000000000000000000000000081526004016119cf90613f4b565b60405180910390fd5b60008111611a1b576040517f08c379a0000000000000000000000000000000000000000000000000000000008152600401611a1290613feb565b60405180910390fd5b8173ffffffffffffffffffffffffffffffffffffffff1663a9059cbb600260009054906101000a900473ffffffffffffffffffffffffffffffffffffffff16836040518363ffffffff1660e01b8152600401611a78929190613dd3565b602060405180830381600087803b158015611a9257600080fd5b505af1158015611aa6573d6000803e3d6000fd5b505050506040513d601f19601f82011682018060405250810190611aca91906137fb565b505050565b611ad7612f19565b73ffffffffffffffffffffffffffffffffffffffff16611af5610fc8565b73ffffffffffffffffffffffffffffffffffffffff1614611b4b576040517f08c379a0000000000000000000000000000000000000000000000000000000008152600401611b4290613f4b565b60405180910390fd5b600e60009054906101000a900460ff1615600e60006101000a81548160ff021916908315150217905550565b600a5481565b611b85612f19565b73ffffffffffffffffffffffffffffffffffffffff16611ba3610fc8565b73ffffffffffffffffffffffffffffffffffffffff1614611bf9576040517f08c379a0000000000000000000000000000000000000000000000000000000008152600401611bf090613f4b565b60405180910390fd5b611c01612f21565b60006007805480602002602001604051908101604052809291908181526020018280548015611c8557602002820191906000526020600020905b8160009054906101000a900473ffffffffffffffffffffffffffffffffffffffff1673ffffffffffffffffffffffffffffffffffffffff1681526020019060010190808311611c3b575b505050505090506000600660009054906101000a900473ffffffffffffffffffffffffffffffffffffffff1673ffffffffffffffffffffffffffffffffffffffff1663e3d670d7306040518263ffffffff1660e01b8152600401611ce99190613d9d565b60206040518083038186803b158015611d0157600080fd5b505afa158015611d15573d6000803e3d6000fd5b505050506040513d601f19601f82011682018060405250810190611d39919061384d565b905060005b6007805490508160ff1610156122115760078160ff1681548110611d8b577f4e487b7100000000000000000000000000000000000000000000000000000000600052603260045260246000fd5b9060005260206000200160009054906101000a900473ffffffffffffffffffffffffffffffffffffffff1673ffffffffffffffffffffffffffffffffffffffff166370a08231306040518263ffffffff1660e01b8152600401611dee9190613d9d565b60206040518083038186803b158015611e0657600080fd5b505afa158015611e1a573d6000803e3d6000fd5b505050506040513d601f19601f82011682018060405250810190611e3e919061384d565b6008600060078460ff1681548110611e7f577f4e487b7100000000000000000000000000000000000000000000000000000000600052603260045260246000fd5b9060005260206000200160009054906101000a900473ffffffffffffffffffffffffffffffffffffffff1673ffffffffffffffffffffffffffffffffffffffff1673ffffffffffffffffffffffffffffffffffffffff1681526020019081526020016000208190555060006008600060078460ff1681548110611f2b577f4e487b7100000000000000000000000000000000000000000000000000000000600052603260045260246000fd5b9060005260206000200160009054906101000a900473ffffffffffffffffffffffffffffffffffffffff1673ffffffffffffffffffffffffffffffffffffffff1673ffffffffffffffffffffffffffffffffffffffff16815260200190815260200160002054146121fe5760078160ff1681548110611fd3577f4e487b7100000000000000000000000000000000000000000000000000000000600052603260045260246000fd5b9060005260206000200160009054906101000a900473ffffffffffffffffffffffffffffffffffffffff1673ffffffffffffffffffffffffffffffffffffffff1663a9059cbb600260009054906101000a900473ffffffffffffffffffffffffffffffffffffffff16600360009054906101000a900473ffffffffffffffffffffffffffffffffffffffff1673ffffffffffffffffffffffffffffffffffffffff1663875d11e26040518163ffffffff1660e01b815260040160206040518083038186803b1580156120a457600080fd5b505afa1580156120b8573d6000803e3d6000fd5b505050506040513d601f19601f820116820180604052508101906120dc919061384d565b6008600060078760ff168154811061211d577f4e487b7100000000000000000000000000000000000000000000000000000000600052603260045260246000fd5b9060005260206000200160009054906101000a900473ffffffffffffffffffffffffffffffffffffffff1673ffffffffffffffffffffffffffffffffffffffff1673ffffffffffffffffffffffffffffffffffffffff1681526020019081526020016000205461218d919061429b565b6040518363ffffffff1660e01b81526004016121aa929190613dd3565b602060405180830381600087803b1580156121c457600080fd5b505af11580156121d8573d6000803e3d6000fd5b505050506040513d601f19601f820116820180604052508101906121fc91906137fb565b505b808061220990614464565b915050611d3e565b5060005b8251811015612abd576000838281518110612259577f4e487b7100000000000000000000000000000000000000000000000000000000600052603260045260246000fd5b602002602001015173ffffffffffffffffffffffffffffffffffffffff166370a08231306040518263ffffffff1660e01b81526004016122999190613d9d565b60206040518083038186803b1580156122b157600080fd5b505afa1580156122c5573d6000803e3d6000fd5b505050506040513d601f19601f820116820180604052508101906122e9919061384d565b905060008114612aa95761233e84838151811061232f577f4e487b7100000000000000000000000000000000000000000000000000000000600052603260045260246000fd5b60200260200101518830610e5d565b8573ffffffffffffffffffffffffffffffffffffffff1684838151811061238e577f4e487b7100000000000000000000000000000000000000000000000000000000600052603260045260246000fd5b602002602001015173ffffffffffffffffffffffffffffffffffffffff16146127935760008673ffffffffffffffffffffffffffffffffffffffff16858481518110612403577f4e487b7100000000000000000000000000000000000000000000000000000000600052603260045260246000fd5b602002602001015173ffffffffffffffffffffffffffffffffffffffff161461242d576003612430565b60025b60ff1667ffffffffffffffff811115612472577f4e487b7100000000000000000000000000000000000000000000000000000000600052604160045260246000fd5b6040519080825280602002602001820160405280156124a05781602001602082028036833780820191505090505b5090508483815181106124dc577f4e487b7100000000000000000000000000000000000000000000000000000000600052603260045260246000fd5b60200260200101518160008151811061251e577f4e487b7100000000000000000000000000000000000000000000000000000000600052603260045260246000fd5b602002602001019073ffffffffffffffffffffffffffffffffffffffff16908173ffffffffffffffffffffffffffffffffffffffff16815250508681600181518110612593577f4e487b7100000000000000000000000000000000000000000000000000000000600052603260045260246000fd5b602002602001019073ffffffffffffffffffffffffffffffffffffffff16908173ffffffffffffffffffffffffffffffffffffffff1681525050600460009054906101000a900473ffffffffffffffffffffffffffffffffffffffff168160028151811061262a577f4e487b7100000000000000000000000000000000000000000000000000000000600052603260045260246000fd5b602002602001019073ffffffffffffffffffffffffffffffffffffffff16908173ffffffffffffffffffffffffffffffffffffffff168152505060006126bb612674848b85610603565b6002815181106126ad577f4e487b7100000000000000000000000000000000000000000000000000000000600052603260045260246000fd5b60200260200101518861303e565b9050600a81111561278c5761278b8361271f6126d8868d87610603565b600281518110612711577f4e487b7100000000000000000000000000000000000000000000000000000000600052603260045260246000fd5b60200260200101518a61303e565b600460009054906101000a900473ffffffffffffffffffffffffffffffffffffffff168560008151811061277c577f4e487b7100000000000000000000000000000000000000000000000000000000600052603260045260246000fd5b60200260200101518c8e613077565b5b5050612aa8565b60008673ffffffffffffffffffffffffffffffffffffffff168584815181106127e5577f4e487b7100000000000000000000000000000000000000000000000000000000600052603260045260246000fd5b602002602001015173ffffffffffffffffffffffffffffffffffffffff161461280f576003612812565b60025b60ff1667ffffffffffffffff811115612854577f4e487b7100000000000000000000000000000000000000000000000000000000600052604160045260246000fd5b6040519080825280602002602001820160405280156128825781602001602082028036833780820191505090505b5090508483815181106128be577f4e487b7100000000000000000000000000000000000000000000000000000000600052603260045260246000fd5b602002602001015181600081518110612900577f4e487b7100000000000000000000000000000000000000000000000000000000600052603260045260246000fd5b602002602001019073ffffffffffffffffffffffffffffffffffffffff16908173ffffffffffffffffffffffffffffffffffffffff1681525050600460009054906101000a900473ffffffffffffffffffffffffffffffffffffffff1681600181518110612997577f4e487b7100000000000000000000000000000000000000000000000000000000600052603260045260246000fd5b602002602001019073ffffffffffffffffffffffffffffffffffffffff16908173ffffffffffffffffffffffffffffffffffffffff16815250506000612a286129e1848b85610603565b600181518110612a1a577f4e487b7100000000000000000000000000000000000000000000000000000000600052603260045260246000fd5b60200260200101518861303e565b9050600a811115612aa557612aa48382600460009054906101000a900473ffffffffffffffffffffffffffffffffffffffff1685600081518110612a95577f4e487b7100000000000000000000000000000000000000000000000000000000600052603260045260246000fd5b60200260200101518c8e613077565b5b50505b5b508080612ab59061441b565b915050612215565b50612b0d600460009054906101000a900473ffffffffffffffffffffffffffffffffffffffff16600560009054906101000a900473ffffffffffffffffffffffffffffffffffffffff1630610e5d565b600660009054906101000a900473ffffffffffffffffffffffffffffffffffffffff1673ffffffffffffffffffffffffffffffffffffffff1663b6b55f25600460009054906101000a900473ffffffffffffffffffffffffffffffffffffffff1673ffffffffffffffffffffffffffffffffffffffff166370a08231306040518263ffffffff1660e01b8152600401612ba69190613d9d565b60206040518083038186803b158015612bbe57600080fd5b505afa158015612bd2573d6000803e3d6000fd5b505050506040513d601f19601f82011682018060405250810190612bf6919061384d565b6040518263ffffffff1660e01b8152600401612c12919061400b565b600060405180830381600087803b158015612c2c57600080fd5b505af1158015612c40573d6000803e3d6000fd5b50505050600081600660009054906101000a900473ffffffffffffffffffffffffffffffffffffffff1673ffffffffffffffffffffffffffffffffffffffff1663e3d670d7306040518263ffffffff1660e01b8152600401612ca29190613d9d565b60206040518083038186803b158015612cba57600080fd5b505afa158015612cce573d6000803e3d6000fd5b505050506040513d601f19601f82011682018060405250810190612cf2919061384d565b612cfc9190614326565b9050600d547e904aa92a19e77eb9fc622647fa6778a108d189d2a83fb1b1b46be8b921378282604051612d2f919061400b565b60405180910390a24262093a80600b54612d499190614245565b1015612d6b57600954600a819055508060098190555042600b81905550612d80565b80600954612d799190614245565b6009819055505b600360009054906101000a900473ffffffffffffffffffffffffffffffffffffffff1673ffffffffffffffffffffffffffffffffffffffff1663064e7a73600d54836040518363ffffffff1660e01b8152600401612ddf92919061407f565b600060405180830381600087803b158015612df957600080fd5b505af1158015612e0d573d6000803e3d6000fd5b50505050505050612e1c612f71565b505050565b612e29612f19565b73ffffffffffffffffffffffffffffffffffffffff16612e47610fc8565b73ffffffffffffffffffffffffffffffffffffffff1614612e9d576040517f08c379a0000000000000000000000000000000000000000000000000000000008152600401612e9490613f4b565b60405180910390fd5b600073ffffffffffffffffffffffffffffffffffffffff168173ffffffffffffffffffffffffffffffffffffffff161415612f0d576040517f08c379a0000000000000000000000000000000000000000000000000000000008152600401612f0490613eeb565b60405180910390fd5b612f1681612f7a565b50565b600033905090565b60026001541415612f67576040517f08c379a0000000000000000000000000000000000000000000000000000000008152600401612f5e90613fab565b60405180910390fd5b6002600181905550565b60018081905550565b60008060009054906101000a900473ffffffffffffffffffffffffffffffffffffffff169050816000806101000a81548173ffffffffffffffffffffffffffffffffffffffff021916908373ffffffffffffffffffffffffffffffffffffffff1602179055508173ffffffffffffffffffffffffffffffffffffffff168173ffffffffffffffffffffffffffffffffffffffff167f8be0079c531659141344cd1fd0a4f28419497f9722a3daafe3b4186f6b6457e060405160405180910390a35050565b60006064826064808661305191906142cc565b61305b919061429b565b61306591906142cc565b61306f919061429b565b905092915050565b8173ffffffffffffffffffffffffffffffffffffffff168373ffffffffffffffffffffffffffffffffffffffff1614613329576000600367ffffffffffffffff8111156130ed577f4e487b7100000000000000000000000000000000000000000000000000000000600052604160045260246000fd5b60405190808252806020026020018201604052801561311b5781602001602082028036833780820191505090505b5090508381600081518110613159577f4e487b7100000000000000000000000000000000000000000000000000000000600052603260045260246000fd5b602002602001019073ffffffffffffffffffffffffffffffffffffffff16908173ffffffffffffffffffffffffffffffffffffffff168152505082816001815181106131ce577f4e487b7100000000000000000000000000000000000000000000000000000000600052603260045260246000fd5b602002602001019073ffffffffffffffffffffffffffffffffffffffff16908173ffffffffffffffffffffffffffffffffffffffff16815250508481600281518110613243577f4e487b7100000000000000000000000000000000000000000000000000000000600052603260045260246000fd5b602002602001019073ffffffffffffffffffffffffffffffffffffffff16908173ffffffffffffffffffffffffffffffffffffffff16815250508173ffffffffffffffffffffffffffffffffffffffff166338ed173988888430610e10426132ab9190614245565b6040518663ffffffff1660e01b81526004016132cb9594939291906140a8565b600060405180830381600087803b1580156132e557600080fd5b505af11580156132f9573d6000803e3d6000fd5b505050506040513d6000823e3d601f19601f8201168201806040525081019061332291906137ba565b505061352f565b6000600267ffffffffffffffff81111561336c577f4e487b7100000000000000000000000000000000000000000000000000000000600052604160045260246000fd5b60405190808252806020026020018201604052801561339a5781602001602082028036833780820191505090505b50905083816000815181106133d8577f4e487b7100000000000000000000000000000000000000000000000000000000600052603260045260246000fd5b602002602001019073ffffffffffffffffffffffffffffffffffffffff16908173ffffffffffffffffffffffffffffffffffffffff1681525050848160018151811061344d577f4e487b7100000000000000000000000000000000000000000000000000000000600052603260045260246000fd5b602002602001019073ffffffffffffffffffffffffffffffffffffffff16908173ffffffffffffffffffffffffffffffffffffffff16815250508173ffffffffffffffffffffffffffffffffffffffff166338ed173988888430610e10426134b59190614245565b6040518663ffffffff1660e01b81526004016134d59594939291906140a8565b600060405180830381600087803b1580156134ef57600080fd5b505af1158015613503573d6000803e3d6000fd5b505050506040513d6000823e3d601f19601f8201168201806040525081019061352c91906137ba565b50505b505050505050565b600061354a6135458461416a565b614139565b9050808382526020820190508285602086028201111561356957600080fd5b60005b85811015613599578161357f888261360f565b84526020840193506020830192505060018101905061356c565b5050509392505050565b60006135b66135b184614196565b614139565b905080838252602082019050828560208602820111156135d557600080fd5b60005b8581101561360557816135eb88826136a2565b8452602084019350602083019250506001810190506135d8565b5050509392505050565b60008135905061361e8161451b565b92915050565b600082601f83011261363557600080fd5b8135613645848260208601613537565b91505092915050565b600082601f83011261365f57600080fd5b815161366f8482602086016135a3565b91505092915050565b60008151905061368781614532565b92915050565b60008135905061369c81614549565b92915050565b6000815190506136b181614549565b92915050565b6000602082840312156136c957600080fd5b60006136d78482850161360f565b91505092915050565b6000806000606084860312156136f557600080fd5b60006137038682870161360f565b93505060206137148682870161360f565b92505060406137258682870161360f565b9150509250925092565b60008060006060848603121561374457600080fd5b60006137528682870161360f565b93505060206137638682870161360f565b92505060406137748682870161368d565b9150509250925092565b6000806040838503121561379157600080fd5b600061379f8582860161360f565b92505060206137b08582860161368d565b9150509250929050565b6000602082840312156137cc57600080fd5b600082015167ffffffffffffffff8111156137e657600080fd5b6137f28482850161364e565b91505092915050565b60006020828403121561380d57600080fd5b600061381b84828501613678565b91505092915050565b60006020828403121561383657600080fd5b60006138448482850161368d565b91505092915050565b60006020828403121561385f57600080fd5b600061386d848285016136a2565b91505092915050565b60008060006060848603121561388b57600080fd5b60006138998682870161368d565b93505060206138aa8682870161360f565b925050604084013567ffffffffffffffff8111156138c757600080fd5b6138d386828701613624565b9150509250925092565b6000806000606084860312156138f257600080fd5b6000613900868287016136a2565b9350506020613911868287016136a2565b9250506040613922868287016136a2565b9150509250925092565b6000613938838361397a565b60208301905092915050565b60006139508383613d7f565b60208301905092915050565b613965816143c1565b82525050565b6139748161436c565b82525050565b6139838161435a565b82525050565b6139928161435a565b82525050565b60006139a3826141e2565b6139ad8185614212565b93506139b8836141c2565b8060005b838110156139e95781516139d0888261392c565b97506139db836141f8565b9250506001810190506139bc565b5085935050505092915050565b6000613a01826141ed565b613a0b8185614223565b9350613a16836141d2565b8060005b83811015613a47578151613a2e8882613944565b9750613a3983614205565b925050600181019050613a1a565b5085935050505092915050565b613a5d8161437e565b82525050565b613a6c816143d3565b82525050565b613a7b816143e5565b82525050565b6000613a8e602683614234565b91507f4f776e61626c653a206e6577206f776e657220697320746865207a65726f206160008301527f64647265737300000000000000000000000000000000000000000000000000006020830152604082019050919050565b6000613af4603983614234565b91507f436f6e7472616374206d75737420626520706175736564206265666f7265207060008301527f6572666f726d696e672074686973206f7065726174696f6e2e000000000000006020830152604082019050919050565b6000613b5a601383614234565b91507f436f6e7472616374206973205061757365642e000000000000000000000000006000830152602082019050919050565b6000613b9a602083614234565b91507f4f776e61626c653a2063616c6c6572206973206e6f7420746865206f776e65726000830152602082019050919050565b6000613bda602883614234565b91507f496e73756666696369656e742046756e64732066726f6d205374616b696e672060008301527f4d616e616765722e0000000000000000000000000000000000000000000000006020830152604082019050919050565b6000613c40601e83614234565b91507f576974686472617720416d6f756e7420457175616c20746f205a65726f2e00006000830152602082019050919050565b6000613c80601f83614234565b91507f5265656e7472616e637947756172643a207265656e7472616e742063616c6c006000830152602082019050919050565b6000613cc0602283614234565b91507f416d6f756e7420746f204465706f736974206973205a65726f206f72204c657360008301527f732e0000000000000000000000000000000000000000000000000000000000006020830152604082019050919050565b6000613d26602983614234565b91507f556e6976657273616c205472616e7366657220616d6f756e742063616e6e6f7460008301527f206265207a65726f2e00000000000000000000000000000000000000000000006020830152604082019050919050565b613d88816143aa565b82525050565b613d97816143aa565b82525050565b6000602082019050613db26000830184613989565b92915050565b6000602082019050613dcd600083018461396b565b92915050565b6000604082019050613de8600083018561395c565b613df56020830184613d8e565b9392505050565b6000604082019050613e116000830185613989565b613e1e6020830184613989565b9392505050565b6000606082019050613e3a6000830186613989565b613e476020830185613989565b613e546040830184613d8e565b949350505050565b6000604082019050613e716000830185613989565b613e7e6020830184613a72565b9392505050565b6000604082019050613e9a6000830185613989565b613ea76020830184613d8e565b9392505050565b60006020820190508181036000830152613ec881846139f6565b905092915050565b6000602082019050613ee56000830184613a54565b92915050565b60006020820190508181036000830152613f0481613a81565b9050919050565b60006020820190508181036000830152613f2481613ae7565b9050919050565b60006020820190508181036000830152613f4481613b4d565b9050919050565b60006020820190508181036000830152613f6481613b8d565b9050919050565b60006020820190508181036000830152613f8481613bcd565b9050919050565b60006020820190508181036000830152613fa481613c33565b9050919050565b60006020820190508181036000830152613fc481613c73565b9050919050565b60006020820190508181036000830152613fe481613cb3565b9050919050565b6000602082019050818103600083015261400481613d19565b9050919050565b60006020820190506140206000830184613d8e565b92915050565b600060408201905061403b6000830185613d8e565b6140486020830184613989565b9392505050565b60006040820190506140646000830185613d8e565b81810360208301526140768184613998565b90509392505050565b60006040820190506140946000830185613d8e565b6140a16020830184613d8e565b9392505050565b600060a0820190506140bd6000830188613d8e565b6140ca6020830187613d8e565b81810360408301526140dc8186613998565b90506140eb6060830185613989565b6140f86080830184613d8e565b9695505050505050565b60006060820190506141176000830186613d8e565b6141246020830185613d8e565b6141316040830184613a63565b949350505050565b6000604051905081810181811067ffffffffffffffff821117156141605761415f6144ec565b5b8060405250919050565b600067ffffffffffffffff821115614185576141846144ec565b5b602082029050602081019050919050565b600067ffffffffffffffff8211156141b1576141b06144ec565b5b602082029050602081019050919050565b6000819050602082019050919050565b6000819050602082019050919050565b600081519050919050565b600081519050919050565b6000602082019050919050565b6000602082019050919050565b600082825260208201905092915050565b600082825260208201905092915050565b600082825260208201905092915050565b6000614250826143aa565b915061425b836143aa565b9250827fffffffffffffffffffffffffffffffffffffffffffffffffffffffffffffffff038211156142905761428f61448e565b5b828201905092915050565b60006142a6826143aa565b91506142b1836143aa565b9250826142c1576142c06144bd565b5b828204905092915050565b60006142d7826143aa565b91506142e2836143aa565b9250817fffffffffffffffffffffffffffffffffffffffffffffffffffffffffffffffff048311821515161561431b5761431a61448e565b5b828202905092915050565b6000614331826143aa565b915061433c836143aa565b92508282101561434f5761434e61448e565b5b828203905092915050565b60006143658261438a565b9050919050565b60006143778261438a565b9050919050565b60008115159050919050565b600073ffffffffffffffffffffffffffffffffffffffff82169050919050565b6000819050919050565b600060ff82169050919050565b60006143cc826143f7565b9050919050565b60006143de826143aa565b9050919050565b60006143f0826143aa565b9050919050565b600061440282614409565b9050919050565b60006144148261438a565b9050919050565b6000614426826143aa565b91507fffffffffffffffffffffffffffffffffffffffffffffffffffffffffffffffff8214156144595761445861448e565b5b600182019050919050565b600061446f826143b4565b915060ff8214156144835761448261448e565b5b600182019050919050565b7f4e487b7100000000000000000000000000000000000000000000000000000000600052601160045260246000fd5b7f4e487b7100000000000000000000000000000000000000000000000000000000600052601260045260246000fd5b7f4e487b7100000000000000000000000000000000000000000000000000000000600052604160045260246000fd5b6145248161435a565b811461452f57600080fd5b50565b61453b8161437e565b811461454657600080fd5b50565b614552816143aa565b811461455d57600080fd5b5056fea26469706673582212201f85331db7b3c8c9d7434d32654ccfe948de66f2bc8ec612dbc3de843f7021d664736f6c63430008000033",
  "linkReferences": {},
  "deployedLinkReferences": {}
}