{
  "_format": "hh-sol-artifact-1",
  "contractName": "InvestorHelper",
  "sourceName": "contracts/InvestorHelper.sol",
  "abi": [
    {
      "inputs": [],
      "stateMutability": "nonpayable",
      "type": "constructor"
    },
    {
      "anonymous": false,
      "inputs": [
        {
          "indexed": true,
          "internalType": "address",
          "name": "previousOwner",
          "type": "address"
        },
        {
          "indexed": true,
          "internalType": "address",
          "name": "newOwner",
          "type": "address"
        }
      ],
      "name": "OwnershipTransferred",
      "type": "event"
    },
    {
      "stateMutability": "payable",
      "type": "fallback"
    },
    {
      "inputs": [
        {
          "internalType": "address",
          "name": "_pair1Token",
          "type": "address"
        },
        {
          "internalType": "address",
          "name": "_pair2Token",
          "type": "address"
        },
        {
          "internalType": "address",
          "name": "_routerAddr",
          "type": "address"
        },
        {
          "internalType": "address",
          "name": "_avaxAddr",
          "type": "address"
        },
        {
          "internalType": "uint256",
          "name": "_avaxAmount",
          "type": "uint256"
        },
        {
          "internalType": "uint256",
          "name": "_slippage",
          "type": "uint256"
        }
      ],
      "name": "addAvaxPairLiquidity",
      "outputs": [],
      "stateMutability": "payable",
      "type": "function"
    },
    {
      "inputs": [
        {
          "internalType": "address",
          "name": "_pair1Token",
          "type": "address"
        },
        {
          "internalType": "address",
          "name": "_pair2Token",
          "type": "address"
        },
        {
          "internalType": "address",
          "name": "_routerAddr",
          "type": "address"
        },
        {
          "internalType": "address",
          "name": "_avaxAddr",
          "type": "address"
        },
        {
          "internalType": "uint256",
          "name": "_avaxAmount",
          "type": "uint256"
        },
        {
          "internalType": "uint256",
          "name": "_slippage",
          "type": "uint256"
        },
        {
          "internalType": "uint256",
          "name": "_token0Amount",
          "type": "uint256"
        }
      ],
      "name": "addAvaxPairLiquidityAmount",
      "outputs": [],
      "stateMutability": "payable",
      "type": "function"
    },
    {
      "inputs": [],
      "name": "aprTracker",
      "outputs": [
        {
          "internalType": "uint256",
          "name": "",
          "type": "uint256"
        }
      ],
      "stateMutability": "view",
      "type": "function"
    },
    {
      "inputs": [
        {
          "internalType": "uint256",
          "name": "_lpAmount",
          "type": "uint256"
        },
        {
          "internalType": "address",
          "name": "_lpAddress",
          "type": "address"
        },
        {
          "internalType": "address",
          "name": "_spender",
          "type": "address"
        },
        {
          "internalType": "address",
          "name": "_investmentAddress",
          "type": "address"
        }
      ],
      "name": "depositLPNative",
      "outputs": [],
      "stateMutability": "payable",
      "type": "function"
    },
    {
      "inputs": [
        {
          "internalType": "uint256",
          "name": "_amountIn",
          "type": "uint256"
        },
        {
          "internalType": "address",
          "name": "_routerAddr",
          "type": "address"
        },
        {
          "internalType": "address[]",
          "name": "_tokenPath",
          "type": "address[]"
        }
      ],
      "name": "getExchangeRate",
      "outputs": [
        {
          "internalType": "uint256[]",
          "name": "",
          "type": "uint256[]"
        }
      ],
      "stateMutability": "payable",
      "type": "function"
    },
    {
      "inputs": [],
      "name": "investmentAddress",
      "outputs": [
        {
          "internalType": "address payable",
          "name": "",
          "type": "address"
        }
      ],
      "stateMutability": "view",
      "type": "function"
    },
    {
      "inputs": [],
      "name": "investorHelper",
      "outputs": [
        {
          "internalType": "address",
          "name": "",
          "type": "address"
        }
      ],
      "stateMutability": "view",
      "type": "function"
    },
    {
      "inputs": [],
      "name": "last24Apr",
      "outputs": [
        {
          "internalType": "uint256",
          "name": "",
          "type": "uint256"
        }
      ],
      "stateMutability": "view",
      "type": "function"
    },
    {
      "inputs": [],
      "name": "lastClaim",
      "outputs": [
        {
          "internalType": "uint256",
          "name": "",
          "type": "uint256"
        }
      ],
      "stateMutability": "view",
      "type": "function"
    },
    {
      "inputs": [],
      "name": "liquidityPool",
      "outputs": [
        {
          "internalType": "address payable",
          "name": "",
          "type": "address"
        }
      ],
      "stateMutability": "view",
      "type": "function"
    },
    {
      "inputs": [],
      "name": "owner",
      "outputs": [
        {
          "internalType": "address",
          "name": "",
          "type": "address"
        }
      ],
      "stateMutability": "view",
      "type": "function"
    },
    {
      "inputs": [],
      "name": "paused",
      "outputs": [
        {
          "internalType": "bool",
          "name": "",
          "type": "bool"
        }
      ],
      "stateMutability": "view",
      "type": "function"
    },
    {
      "inputs": [],
      "name": "poolId",
      "outputs": [
        {
          "internalType": "uint256",
          "name": "",
          "type": "uint256"
        }
      ],
      "stateMutability": "view",
      "type": "function"
    },
    {
      "inputs": [
        {
          "internalType": "address",
          "name": "_spenderAddress",
          "type": "address"
        },
        {
          "internalType": "address",
          "name": "_avaxAddress",
          "type": "address"
        },
        {
          "internalType": "uint256",
          "name": "_slippage",
          "type": "uint256"
        }
      ],
      "name": "reinvestLp",
      "outputs": [],
      "stateMutability": "nonpayable",
      "type": "function"
    },
    {
      "inputs": [],
      "name": "renounceOwnership",
      "outputs": [],
      "stateMutability": "nonpayable",
      "type": "function"
    },
    {
      "inputs": [],
      "name": "stakingManager",
      "outputs": [
        {
          "internalType": "address",
          "name": "",
          "type": "address"
        }
      ],
      "stateMutability": "view",
      "type": "function"
    },
    {
      "inputs": [
        {
          "internalType": "address",
          "name": "_spenderAddress",
          "type": "address"
        },
        {
          "internalType": "address",
          "name": "_avaxAddress",
          "type": "address"
        },
        {
          "internalType": "uint256",
          "name": "_slippage",
          "type": "uint256"
        }
      ],
      "name": "swapRewardsForLp",
      "outputs": [],
      "stateMutability": "nonpayable",
      "type": "function"
    },
    {
      "inputs": [
        {
          "internalType": "uint256",
          "name": "",
          "type": "uint256"
        }
      ],
      "name": "targetToken",
      "outputs": [
        {
          "internalType": "address",
          "name": "",
          "type": "address"
        }
      ],
      "stateMutability": "view",
      "type": "function"
    },
    {
      "inputs": [
        {
          "internalType": "uint256",
          "name": "",
          "type": "uint256"
        }
      ],
      "name": "tokensToBeRewardedAddress",
      "outputs": [
        {
          "internalType": "address",
          "name": "",
          "type": "address"
        }
      ],
      "stateMutability": "view",
      "type": "function"
    },
    {
      "inputs": [
        {
          "internalType": "address",
          "name": "newOwner",
          "type": "address"
        }
      ],
      "name": "transferOwnership",
      "outputs": [],
      "stateMutability": "nonpayable",
      "type": "function"
    },
    {
      "inputs": [],
      "name": "treasury",
      "outputs": [
        {
          "internalType": "address payable",
          "name": "",
          "type": "address"
        }
      ],
      "stateMutability": "view",
      "type": "function"
    },
    {
      "stateMutability": "payable",
      "type": "receive"
    }
  ],
  "bytecode": "0x60806040523480156200001157600080fd5b5062000032620000266200003f60201b60201c565b6200004760201b60201c565b600180819055506200010b565b600033905090565b60008060009054906101000a900473ffffffffffffffffffffffffffffffffffffffff169050816000806101000a81548173ffffffffffffffffffffffffffffffffffffffff021916908373ffffffffffffffffffffffffffffffffffffffff1602179055508173ffffffffffffffffffffffffffffffffffffffff168173ffffffffffffffffffffffffffffffffffffffff167f8be0079c531659141344cd1fd0a4f28419497f9722a3daafe3b4186f6b6457e060405160405180910390a35050565b613649806200011b6000396000f3fe60806040526004361061012e5760003560e01c806361d027b3116100ab578063a8adb5641161006f578063a8adb564146103ac578063b2b2b2db146103d7578063b8c2e50c146103f3578063bea5f5a71461040f578063ed3bca7a1461044c578063f2fde38b1461047757610135565b806361d027b3146102f8578063665a11ca14610323578063715018a61461034e5780638da5cb5b146103655780638fce11a61461039057610135565b80633e0dc34e116100f25780633e0dc34e14610223578063418e72dc1461024e57806351ba89b11461027757806353030d91146102a25780635c975abb146102cd57610135565b8063033690e3146101375780630b14fe461461016257806322828cc21461019257806328500458146101bd5780633ad9a211146101e657610135565b3661013557005b005b34801561014357600080fd5b5061014c6104a0565b60405161015991906131c4565b60405180910390f35b61017c60048036038101906101779190612d15565b6104a6565b6040516101899190613127565b60405180910390f35b34801561019e57600080fd5b506101a7610546565b6040516101b49190613015565b60405180910390f35b3480156101c957600080fd5b506101e460048036038101906101df9190612ba7565b61056c565b005b3480156101f257600080fd5b5061020d60048036038101906102089190612c60565b610692565b60405161021a9190613015565b60405180910390f35b34801561022f57600080fd5b506102386106d1565b60405161024591906131c4565b60405180910390f35b34801561025a57600080fd5b5061027560048036038101906102709190612ba7565b6106d7565b005b34801561028357600080fd5b5061028c611bc4565b6040516102999190613015565b60405180910390f35b3480156102ae57600080fd5b506102b7611bea565b6040516102c49190613030565b60405180910390f35b3480156102d957600080fd5b506102e2611c10565b6040516102ef9190613149565b60405180910390f35b34801561030457600080fd5b5061030d611c23565b60405161031a9190613030565b60405180910390f35b34801561032f57600080fd5b50610338611c49565b6040516103459190613030565b60405180910390f35b34801561035a57600080fd5b50610363611c6f565b005b34801561037157600080fd5b5061037a611cf7565b6040516103879190613015565b60405180910390f35b6103aa60048036038101906103a59190612cb2565b611d20565b005b3480156103b857600080fd5b506103c1611dde565b6040516103ce91906131c4565b60405180910390f35b6103f160048036038101906103ec9190612a80565b611de4565b005b61040d60048036038101906104089190612b09565b611f6e565b005b34801561041b57600080fd5b5061043660048036038101906104319190612c60565b61206b565b6040516104439190613015565b60405180910390f35b34801561045857600080fd5b506104616120aa565b60405161046e91906131c4565b60405180910390f35b34801561048357600080fd5b5061049e60048036038101906104999190612a57565b6120b0565b005b60085481565b6060808373ffffffffffffffffffffffffffffffffffffffff1663d06ca61f86856040518363ffffffff1660e01b81526004016104e49291906131df565b60006040518083038186803b1580156104fc57600080fd5b505afa158015610510573d6000803e3d6000fd5b505050506040513d6000823e3d601f19601f820116820180604052508101906105399190612bf6565b9050809150509392505050565b600360009054906101000a900473ffffffffffffffffffffffffffffffffffffffff1681565b60003073ffffffffffffffffffffffffffffffffffffffff1631905061066060046000815481106105c6577f4e487b7100000000000000000000000000000000000000000000000000000000600052603260045260246000fd5b9060005260206000200160009054906101000a900473ffffffffffffffffffffffffffffffffffffffff16600460018154811061062c577f4e487b7100000000000000000000000000000000000000000000000000000000600052603260045260246000fd5b9060005260206000200160009054906101000a900473ffffffffffffffffffffffffffffffffffffffff1686868587611de4565b61068c600660009054906101000a900473ffffffffffffffffffffffffffffffffffffffff16856121a8565b50505050565b600781815481106106a257600080fd5b906000526020600020016000915054906101000a900473ffffffffffffffffffffffffffffffffffffffff1681565b600c5481565b6000600480548060200260200160405190810160405280929190818152602001828054801561075b57602002820191906000526020600020905b8160009054906101000a900473ffffffffffffffffffffffffffffffffffffffff1673ffffffffffffffffffffffffffffffffffffffff1681526020019060010190808311610711575b50505050509050600060078054806020026020016040519081016040528092919081815260200182805480156107e657602002820191906000526020600020905b8160009054906101000a900473ffffffffffffffffffffffffffffffffffffffff1673ffffffffffffffffffffffffffffffffffffffff168152602001906001019080831161079c575b5050505050905060003073ffffffffffffffffffffffffffffffffffffffff1631111561088e57600260009054906101000a900473ffffffffffffffffffffffffffffffffffffffff1673ffffffffffffffffffffffffffffffffffffffff166108fc3073ffffffffffffffffffffffffffffffffffffffff16319081150290604051600060405180830381858888f1935050505015801561088c573d6000803e3d6000fd5b505b600060046000815481106108cb577f4e487b7100000000000000000000000000000000000000000000000000000000600052603260045260246000fd5b9060005260206000200160009054906101000a900473ffffffffffffffffffffffffffffffffffffffff1673ffffffffffffffffffffffffffffffffffffffff166370a08231306040518263ffffffff1660e01b815260040161092e9190613015565b60206040518083038186803b15801561094657600080fd5b505afa15801561095a573d6000803e3d6000fd5b505050506040513d601f19601f8201168201806040525081019061097e9190612c89565b118015610a305750736e84a6216ea6dacc71ee8e6b0a5b7322eebc0fdd73ffffffffffffffffffffffffffffffffffffffff1660046000815481106109ec577f4e487b7100000000000000000000000000000000000000000000000000000000600052603260045260246000fd5b9060005260206000200160009054906101000a900473ffffffffffffffffffffffffffffffffffffffff1673ffffffffffffffffffffffffffffffffffffffff1614155b15610c38576004600081548110610a70577f4e487b7100000000000000000000000000000000000000000000000000000000600052603260045260246000fd5b9060005260206000200160009054906101000a900473ffffffffffffffffffffffffffffffffffffffff1673ffffffffffffffffffffffffffffffffffffffff1663a9059cbb600260009054906101000a900473ffffffffffffffffffffffffffffffffffffffff166004600081548110610b14577f4e487b7100000000000000000000000000000000000000000000000000000000600052603260045260246000fd5b9060005260206000200160009054906101000a900473ffffffffffffffffffffffffffffffffffffffff1673ffffffffffffffffffffffffffffffffffffffff166370a08231306040518263ffffffff1660e01b8152600401610b779190613015565b60206040518083038186803b158015610b8f57600080fd5b505afa158015610ba3573d6000803e3d6000fd5b505050506040513d601f19601f82011682018060405250810190610bc79190612c89565b6040518363ffffffff1660e01b8152600401610be492919061304b565b602060405180830381600087803b158015610bfe57600080fd5b505af1158015610c12573d6000803e3d6000fd5b505050506040513d601f19601f82011682018060405250810190610c369190612c37565b505b60005b8151811015611bbc576000828281518110610c7f577f4e487b7100000000000000000000000000000000000000000000000000000000600052603260045260246000fd5b602002602001015173ffffffffffffffffffffffffffffffffffffffff166370a08231306040518263ffffffff1660e01b8152600401610cbf9190613015565b60206040518083038186803b158015610cd757600080fd5b505afa158015610ceb573d6000803e3d6000fd5b505050506040513d601f19601f82011682018060405250810190610d0f9190612c89565b905060008114611ba857610d63838381518110610d55577f4e487b7100000000000000000000000000000000000000000000000000000000600052603260045260246000fd5b6020026020010151886121a8565b600281610d7091906133cb565b90508573ffffffffffffffffffffffffffffffffffffffff16838381518110610dc2577f4e487b7100000000000000000000000000000000000000000000000000000000600052603260045260246000fd5b602002602001015173ffffffffffffffffffffffffffffffffffffffff16146112de576004600081548110610e20577f4e487b7100000000000000000000000000000000000000000000000000000000600052603260045260246000fd5b9060005260206000200160009054906101000a900473ffffffffffffffffffffffffffffffffffffffff1673ffffffffffffffffffffffffffffffffffffffff16838381518110610e9a577f4e487b7100000000000000000000000000000000000000000000000000000000600052603260045260246000fd5b602002602001015173ffffffffffffffffffffffffffffffffffffffff16146112d95760008673ffffffffffffffffffffffffffffffffffffffff16848481518110610f0f577f4e487b7100000000000000000000000000000000000000000000000000000000600052603260045260246000fd5b602002602001015173ffffffffffffffffffffffffffffffffffffffff1614610f39576003610f3c565b60025b60ff1667ffffffffffffffff811115610f7e577f4e487b7100000000000000000000000000000000000000000000000000000000600052604160045260246000fd5b604051908082528060200260200182016040528015610fac5781602001602082028036833780820191505090505b509050838381518110610fe8577f4e487b7100000000000000000000000000000000000000000000000000000000600052603260045260246000fd5b60200260200101518160008151811061102a577f4e487b7100000000000000000000000000000000000000000000000000000000600052603260045260246000fd5b602002602001019073ffffffffffffffffffffffffffffffffffffffff16908173ffffffffffffffffffffffffffffffffffffffff1681525050868160018151811061109f577f4e487b7100000000000000000000000000000000000000000000000000000000600052603260045260246000fd5b602002602001019073ffffffffffffffffffffffffffffffffffffffff16908173ffffffffffffffffffffffffffffffffffffffff168152505084600081518110611113577f4e487b7100000000000000000000000000000000000000000000000000000000600052603260045260246000fd5b602002602001015181600281518110611155577f4e487b7100000000000000000000000000000000000000000000000000000000600052603260045260246000fd5b602002602001019073ffffffffffffffffffffffffffffffffffffffff16908173ffffffffffffffffffffffffffffffffffffffff168152505060006111e661119f848b856104a6565b6002815181106111d8577f4e487b7100000000000000000000000000000000000000000000000000000000600052603260045260246000fd5b602002602001015188612312565b9050600a8111156112d6576112d58361124a611203868d876104a6565b60028151811061123c577f4e487b7100000000000000000000000000000000000000000000000000000000600052603260045260246000fd5b60200260200101518a612312565b88600081518110611284577f4e487b7100000000000000000000000000000000000000000000000000000000600052603260045260246000fd5b6020026020010151856000815181106112c6577f4e487b7100000000000000000000000000000000000000000000000000000000600052603260045260246000fd5b60200260200101518c8e61234b565b5b50505b611631565b60008673ffffffffffffffffffffffffffffffffffffffff16848481518110611330577f4e487b7100000000000000000000000000000000000000000000000000000000600052603260045260246000fd5b602002602001015173ffffffffffffffffffffffffffffffffffffffff161461135a57600361135d565b60025b60ff1667ffffffffffffffff81111561139f577f4e487b7100000000000000000000000000000000000000000000000000000000600052604160045260246000fd5b6040519080825280602002602001820160405280156113cd5781602001602082028036833780820191505090505b509050838381518110611409577f4e487b7100000000000000000000000000000000000000000000000000000000600052603260045260246000fd5b60200260200101518160008151811061144b577f4e487b7100000000000000000000000000000000000000000000000000000000600052603260045260246000fd5b602002602001019073ffffffffffffffffffffffffffffffffffffffff16908173ffffffffffffffffffffffffffffffffffffffff1681525050846000815181106114bf577f4e487b7100000000000000000000000000000000000000000000000000000000600052603260045260246000fd5b602002602001015181600181518110611501577f4e487b7100000000000000000000000000000000000000000000000000000000600052603260045260246000fd5b602002602001019073ffffffffffffffffffffffffffffffffffffffff16908173ffffffffffffffffffffffffffffffffffffffff1681525050600061159261154b848b856104a6565b600181518110611584577f4e487b7100000000000000000000000000000000000000000000000000000000600052603260045260246000fd5b602002602001015188612312565b9050600a81111561162e5761162d8382886000815181106115dc577f4e487b7100000000000000000000000000000000000000000000000000000000600052603260045260246000fd5b60200260200101518560008151811061161e577f4e487b7100000000000000000000000000000000000000000000000000000000600052603260045260246000fd5b60200260200101518c8e61234b565b5b50505b8573ffffffffffffffffffffffffffffffffffffffff16838381518110611681577f4e487b7100000000000000000000000000000000000000000000000000000000600052603260045260246000fd5b602002602001015173ffffffffffffffffffffffffffffffffffffffff1614611b3b576000600267ffffffffffffffff8111156116e7577f4e487b7100000000000000000000000000000000000000000000000000000000600052604160045260246000fd5b6040519080825280602002602001820160405280156117155781602001602082028036833780820191505090505b509050838381518110611751577f4e487b7100000000000000000000000000000000000000000000000000000000600052603260045260246000fd5b602002602001015181600081518110611793577f4e487b7100000000000000000000000000000000000000000000000000000000600052603260045260246000fd5b602002602001019073ffffffffffffffffffffffffffffffffffffffff16908173ffffffffffffffffffffffffffffffffffffffff16815250508681600181518110611808577f4e487b7100000000000000000000000000000000000000000000000000000000600052603260045260246000fd5b602002602001019073ffffffffffffffffffffffffffffffffffffffff16908173ffffffffffffffffffffffffffffffffffffffff16815250506000611899611852848b856104a6565b60018151811061188b577f4e487b7100000000000000000000000000000000000000000000000000000000600052603260045260246000fd5b602002602001015188612312565b9050600a811115611b34576118ee8585815181106118e0577f4e487b7100000000000000000000000000000000000000000000000000000000600052603260045260246000fd5b60200260200101518a6121a8565b6000600267ffffffffffffffff811115611931577f4e487b7100000000000000000000000000000000000000000000000000000000600052604160045260246000fd5b60405190808252806020026020018201604052801561195f5781602001602082028036833780820191505090505b50905085858151811061199b577f4e487b7100000000000000000000000000000000000000000000000000000000600052603260045260246000fd5b6020026020010151816000815181106119dd577f4e487b7100000000000000000000000000000000000000000000000000000000600052603260045260246000fd5b602002602001019073ffffffffffffffffffffffffffffffffffffffff16908173ffffffffffffffffffffffffffffffffffffffff16815250508881600181518110611a52577f4e487b7100000000000000000000000000000000000000000000000000000000600052603260045260246000fd5b602002602001019073ffffffffffffffffffffffffffffffffffffffff16908173ffffffffffffffffffffffffffffffffffffffff16815250508973ffffffffffffffffffffffffffffffffffffffff1663676528d185848430610e1042611aba9190613375565b6040518663ffffffff1660e01b8152600401611ada95949392919061320f565b600060405180830381600087803b158015611af457600080fd5b505af1158015611b08573d6000803e3d6000fd5b505050506040513d6000823e3d601f19601f82011682018060405250810190611b319190612bf6565b50505b5050611ba7565b8573ffffffffffffffffffffffffffffffffffffffff16632e1a7d4d826040518263ffffffff1660e01b8152600401611b7491906131c4565b600060405180830381600087803b158015611b8e57600080fd5b505af1158015611ba2573d6000803e3d6000fd5b505050505b5b508080611bb4906134f8565b915050610c3b565b505050505050565b600b60009054906101000a900473ffffffffffffffffffffffffffffffffffffffff1681565b600560009054906101000a900473ffffffffffffffffffffffffffffffffffffffff1681565b600d60009054906101000a900460ff1681565b600260009054906101000a900473ffffffffffffffffffffffffffffffffffffffff1681565b600660009054906101000a900473ffffffffffffffffffffffffffffffffffffffff1681565b611c7761280b565b73ffffffffffffffffffffffffffffffffffffffff16611c95611cf7565b73ffffffffffffffffffffffffffffffffffffffff1614611ceb576040517f08c379a0000000000000000000000000000000000000000000000000000000008152600401611ce290613184565b60405180910390fd5b611cf56000612813565b565b60008060009054906101000a900473ffffffffffffffffffffffffffffffffffffffff16905090565b60008411611d63576040517f08c379a0000000000000000000000000000000000000000000000000000000008152600401611d5a906131a4565b60405180910390fd5b611d6d83836121a8565b8073ffffffffffffffffffffffffffffffffffffffff1663b6b55f25856040518263ffffffff1660e01b8152600401611da691906131c4565b600060405180830381600087803b158015611dc057600080fd5b505af1158015611dd4573d6000803e3d6000fd5b5050505050505050565b600a5481565b611dee86856121a8565b611df883856121a8565b60008673ffffffffffffffffffffffffffffffffffffffff166370a08231306040518263ffffffff1660e01b8152600401611e339190613015565b60206040518083038186803b158015611e4b57600080fd5b505afa158015611e5f573d6000803e3d6000fd5b505050506040513d601f19601f82011682018060405250810190611e839190612c89565b90506000611e918284612312565b118015611ea757506000611ea58484612312565b115b15611f65578473ffffffffffffffffffffffffffffffffffffffff1663f91b3f72848984611ed58688612312565b611edf8989612312565b30610e1042611eee9190613375565b6040518863ffffffff1660e01b8152600401611f0f969594939291906130c6565b6060604051808303818588803b158015611f2857600080fd5b505af1158015611f3c573d6000803e3d6000fd5b50505050506040513d601f19601f82011682018060405250810190611f619190612d7c565b5050505b50505050505050565b611f7887866121a8565b611f8284866121a8565b6000611f8e8284612312565b118015611fa457506000611fa28484612312565b115b15612062578473ffffffffffffffffffffffffffffffffffffffff1663f91b3f72848984611fd28688612312565b611fdc8989612312565b30610e1042611feb9190613375565b6040518863ffffffff1660e01b815260040161200c969594939291906130c6565b6060604051808303818588803b15801561202557600080fd5b505af1158015612039573d6000803e3d6000fd5b50505050506040513d601f19601f8201168201806040525081019061205e9190612d7c565b5050505b50505050505050565b6004818154811061207b57600080fd5b906000526020600020016000915054906101000a900473ffffffffffffffffffffffffffffffffffffffff1681565b60095481565b6120b861280b565b73ffffffffffffffffffffffffffffffffffffffff166120d6611cf7565b73ffffffffffffffffffffffffffffffffffffffff161461212c576040517f08c379a000000000000000000000000000000000000000000000000000000000815260040161212390613184565b60405180910390fd5b600073ffffffffffffffffffffffffffffffffffffffff168173ffffffffffffffffffffffffffffffffffffffff16141561219c576040517f08c379a000000000000000000000000000000000000000000000000000000000815260040161219390613164565b60405180910390fd5b6121a581612813565b50565b60008273ffffffffffffffffffffffffffffffffffffffff1663dd62ed3e30846040518363ffffffff1660e01b81526004016121e5929190613074565b60206040518083038186803b1580156121fd57600080fd5b505afa158015612211573d6000803e3d6000fd5b505050506040513d601f19601f820116820180604052508101906122359190612c89565b90507fffffffffffffffffffffffffffffffffffffffffffffffffffffffffffffffff811461230d578273ffffffffffffffffffffffffffffffffffffffff1663095ea7b3837fffffffffffffffffffffffffffffffffffffffffffffffffffffffffffffffff6040518363ffffffff1660e01b81526004016122b992919061309d565b602060405180830381600087803b1580156122d357600080fd5b505af11580156122e7573d6000803e3d6000fd5b505050506040513d601f19601f8201168201806040525081019061230b9190612c37565b505b505050565b60006064826064808661232591906133fc565b61232f91906133cb565b61233991906133fc565b61234391906133cb565b905092915050565b8173ffffffffffffffffffffffffffffffffffffffff168373ffffffffffffffffffffffffffffffffffffffff16146125fd576000600367ffffffffffffffff8111156123c1577f4e487b7100000000000000000000000000000000000000000000000000000000600052604160045260246000fd5b6040519080825280602002602001820160405280156123ef5781602001602082028036833780820191505090505b509050838160008151811061242d577f4e487b7100000000000000000000000000000000000000000000000000000000600052603260045260246000fd5b602002602001019073ffffffffffffffffffffffffffffffffffffffff16908173ffffffffffffffffffffffffffffffffffffffff168152505082816001815181106124a2577f4e487b7100000000000000000000000000000000000000000000000000000000600052603260045260246000fd5b602002602001019073ffffffffffffffffffffffffffffffffffffffff16908173ffffffffffffffffffffffffffffffffffffffff16815250508481600281518110612517577f4e487b7100000000000000000000000000000000000000000000000000000000600052603260045260246000fd5b602002602001019073ffffffffffffffffffffffffffffffffffffffff16908173ffffffffffffffffffffffffffffffffffffffff16815250508173ffffffffffffffffffffffffffffffffffffffff166338ed173988888430610e104261257f9190613375565b6040518663ffffffff1660e01b815260040161259f95949392919061320f565b600060405180830381600087803b1580156125b957600080fd5b505af11580156125cd573d6000803e3d6000fd5b505050506040513d6000823e3d601f19601f820116820180604052508101906125f69190612bf6565b5050612803565b6000600267ffffffffffffffff811115612640577f4e487b7100000000000000000000000000000000000000000000000000000000600052604160045260246000fd5b60405190808252806020026020018201604052801561266e5781602001602082028036833780820191505090505b50905083816000815181106126ac577f4e487b7100000000000000000000000000000000000000000000000000000000600052603260045260246000fd5b602002602001019073ffffffffffffffffffffffffffffffffffffffff16908173ffffffffffffffffffffffffffffffffffffffff16815250508481600181518110612721577f4e487b7100000000000000000000000000000000000000000000000000000000600052603260045260246000fd5b602002602001019073ffffffffffffffffffffffffffffffffffffffff16908173ffffffffffffffffffffffffffffffffffffffff16815250508173ffffffffffffffffffffffffffffffffffffffff166338ed173988888430610e10426127899190613375565b6040518663ffffffff1660e01b81526004016127a995949392919061320f565b600060405180830381600087803b1580156127c357600080fd5b505af11580156127d7573d6000803e3d6000fd5b505050506040513d6000823e3d601f19601f820116820180604052508101906128009190612bf6565b50505b505050505050565b600033905090565b60008060009054906101000a900473ffffffffffffffffffffffffffffffffffffffff169050816000806101000a81548173ffffffffffffffffffffffffffffffffffffffff021916908373ffffffffffffffffffffffffffffffffffffffff1602179055508173ffffffffffffffffffffffffffffffffffffffff168173ffffffffffffffffffffffffffffffffffffffff167f8be0079c531659141344cd1fd0a4f28419497f9722a3daafe3b4186f6b6457e060405160405180910390a35050565b60006128ea6128e58461329a565b613269565b9050808382526020820190508285602086028201111561290957600080fd5b60005b85811015612939578161291f88826129af565b84526020840193506020830192505060018101905061290c565b5050509392505050565b6000612956612951846132c6565b613269565b9050808382526020820190508285602086028201111561297557600080fd5b60005b858110156129a5578161298b8882612a42565b845260208401935060208301925050600181019050612978565b5050509392505050565b6000813590506129be816135ce565b92915050565b600082601f8301126129d557600080fd5b81356129e58482602086016128d7565b91505092915050565b600082601f8301126129ff57600080fd5b8151612a0f848260208601612943565b91505092915050565b600081519050612a27816135e5565b92915050565b600081359050612a3c816135fc565b92915050565b600081519050612a51816135fc565b92915050565b600060208284031215612a6957600080fd5b6000612a77848285016129af565b91505092915050565b60008060008060008060c08789031215612a9957600080fd5b6000612aa789828a016129af565b9650506020612ab889828a016129af565b9550506040612ac989828a016129af565b9450506060612ada89828a016129af565b9350506080612aeb89828a01612a2d565b92505060a0612afc89828a01612a2d565b9150509295509295509295565b600080600080600080600060e0888a031215612b2457600080fd5b6000612b328a828b016129af565b9750506020612b438a828b016129af565b9650506040612b548a828b016129af565b9550506060612b658a828b016129af565b9450506080612b768a828b01612a2d565b93505060a0612b878a828b01612a2d565b92505060c0612b988a828b01612a2d565b91505092959891949750929550565b600080600060608486031215612bbc57600080fd5b6000612bca868287016129af565b9350506020612bdb868287016129af565b9250506040612bec86828701612a2d565b9150509250925092565b600060208284031215612c0857600080fd5b600082015167ffffffffffffffff811115612c2257600080fd5b612c2e848285016129ee565b91505092915050565b600060208284031215612c4957600080fd5b6000612c5784828501612a18565b91505092915050565b600060208284031215612c7257600080fd5b6000612c8084828501612a2d565b91505092915050565b600060208284031215612c9b57600080fd5b6000612ca984828501612a42565b91505092915050565b60008060008060808587031215612cc857600080fd5b6000612cd687828801612a2d565b9450506020612ce7878288016129af565b9350506040612cf8878288016129af565b9250506060612d09878288016129af565b91505092959194509250565b600080600060608486031215612d2a57600080fd5b6000612d3886828701612a2d565b9350506020612d49868287016129af565b925050604084013567ffffffffffffffff811115612d6657600080fd5b612d72868287016129c4565b9150509250925092565b600080600060608486031215612d9157600080fd5b6000612d9f86828701612a42565b9350506020612db086828701612a42565b9250506040612dc186828701612a42565b9150509250925092565b6000612dd78383612e19565b60208301905092915050565b6000612def8383612ff7565b60208301905092915050565b612e04816134b0565b82525050565b612e1381613468565b82525050565b612e2281613456565b82525050565b612e3181613456565b82525050565b6000612e4282613312565b612e4c8185613342565b9350612e57836132f2565b8060005b83811015612e88578151612e6f8882612dcb565b9750612e7a83613328565b925050600181019050612e5b565b5085935050505092915050565b6000612ea08261331d565b612eaa8185613353565b9350612eb583613302565b8060005b83811015612ee6578151612ecd8882612de3565b9750612ed883613335565b925050600181019050612eb9565b5085935050505092915050565b612efc8161347a565b82525050565b612f0b816134c2565b82525050565b6000612f1e602683613364565b91507f4f776e61626c653a206e6577206f776e657220697320746865207a65726f206160008301527f64647265737300000000000000000000000000000000000000000000000000006020830152604082019050919050565b6000612f84602083613364565b91507f4f776e61626c653a2063616c6c6572206973206e6f7420746865206f776e65726000830152602082019050919050565b6000612fc4601b83613364565b91507f4c5020416d6f756e7420697320457175616c20746f205a65726f2e00000000006000830152602082019050919050565b613000816134a6565b82525050565b61300f816134a6565b82525050565b600060208201905061302a6000830184612e28565b92915050565b60006020820190506130456000830184612e0a565b92915050565b60006040820190506130606000830185612dfb565b61306d6020830184613006565b9392505050565b60006040820190506130896000830185612e28565b6130966020830184612e28565b9392505050565b60006040820190506130b26000830185612e28565b6130bf6020830184612f02565b9392505050565b600060c0820190506130db6000830189612e28565b6130e86020830188613006565b6130f56040830187613006565b6131026060830186613006565b61310f6080830185612e28565b61311c60a0830184613006565b979650505050505050565b600060208201905081810360008301526131418184612e95565b905092915050565b600060208201905061315e6000830184612ef3565b92915050565b6000602082019050818103600083015261317d81612f11565b9050919050565b6000602082019050818103600083015261319d81612f77565b9050919050565b600060208201905081810360008301526131bd81612fb7565b9050919050565b60006020820190506131d96000830184613006565b92915050565b60006040820190506131f46000830185613006565b81810360208301526132068184612e37565b90509392505050565b600060a0820190506132246000830188613006565b6132316020830187613006565b81810360408301526132438186612e37565b90506132526060830185612e28565b61325f6080830184613006565b9695505050505050565b6000604051905081810181811067ffffffffffffffff821117156132905761328f61359f565b5b8060405250919050565b600067ffffffffffffffff8211156132b5576132b461359f565b5b602082029050602081019050919050565b600067ffffffffffffffff8211156132e1576132e061359f565b5b602082029050602081019050919050565b6000819050602082019050919050565b6000819050602082019050919050565b600081519050919050565b600081519050919050565b6000602082019050919050565b6000602082019050919050565b600082825260208201905092915050565b600082825260208201905092915050565b600082825260208201905092915050565b6000613380826134a6565b915061338b836134a6565b9250827fffffffffffffffffffffffffffffffffffffffffffffffffffffffffffffffff038211156133c0576133bf613541565b5b828201905092915050565b60006133d6826134a6565b91506133e1836134a6565b9250826133f1576133f0613570565b5b828204905092915050565b6000613407826134a6565b9150613412836134a6565b9250817fffffffffffffffffffffffffffffffffffffffffffffffffffffffffffffffff048311821515161561344b5761344a613541565b5b828202905092915050565b600061346182613486565b9050919050565b600061347382613486565b9050919050565b60008115159050919050565b600073ffffffffffffffffffffffffffffffffffffffff82169050919050565b6000819050919050565b60006134bb826134d4565b9050919050565b60006134cd826134a6565b9050919050565b60006134df826134e6565b9050919050565b60006134f182613486565b9050919050565b6000613503826134a6565b91507fffffffffffffffffffffffffffffffffffffffffffffffffffffffffffffffff82141561353657613535613541565b5b600182019050919050565b7f4e487b7100000000000000000000000000000000000000000000000000000000600052601160045260246000fd5b7f4e487b7100000000000000000000000000000000000000000000000000000000600052601260045260246000fd5b7f4e487b7100000000000000000000000000000000000000000000000000000000600052604160045260246000fd5b6135d781613456565b81146135e257600080fd5b50565b6135ee8161347a565b81146135f957600080fd5b50565b613605816134a6565b811461361057600080fd5b5056fea2646970667358221220b91129a70f66f890f7f50f059e2d42e0e03316be722dc2bf2ca502beeeceaead64736f6c63430008000033",
  "linkReferences": {},
  "deployedLinkReferences": {}
}