{
  "_format": "hh-sol-artifact-1",
  "contractName": "Investor",
  "sourceName": "contracts/Investor.sol",
  "abi": [
    {
      "inputs": [
        {
          "internalType": "address",
          "name": "_helper",
          "type": "address"
        },
        {
          "internalType": "address",
          "name": "_swap",
          "type": "address"
        },
        {
          "internalType": "address[]",
          "name": "_targetToken",
          "type": "address[]"
        },
        {
          "internalType": "address",
          "name": "_addressRouter",
          "type": "address"
        },
        {
          "internalType": "address",
          "name": "_spender",
          "type": "address"
        },
        {
          "internalType": "address",
          "name": "_investmentAddress",
          "type": "address"
        },
        {
          "internalType": "address",
          "name": "_rewardsAddress",
          "type": "address"
        },
        {
          "internalType": "address[]",
          "name": "_receiptLpAddress",
          "type": "address[]"
        },
        {
          "internalType": "address[]",
          "name": "_tokensToBeRewardedAddress",
          "type": "address[]"
        },
        {
          "internalType": "string[]",
          "name": "_tokensToBeRewardedName",
          "type": "string[]"
        },
        {
          "internalType": "address[]",
          "name": "_tokensToBeRewardedLP",
          "type": "address[]"
        }
      ],
      "stateMutability": "nonpayable",
      "type": "constructor"
    },
    {
      "anonymous": false,
      "inputs": [
        {
          "indexed": true,
          "internalType": "address",
          "name": "previousOwner",
          "type": "address"
        },
        {
          "indexed": true,
          "internalType": "address",
          "name": "newOwner",
          "type": "address"
        }
      ],
      "name": "OwnershipTransferred",
      "type": "event"
    },
    {
      "inputs": [
        {
          "internalType": "address",
          "name": "",
          "type": "address"
        }
      ],
      "name": "accountingLedger",
      "outputs": [
        {
          "internalType": "uint256",
          "name": "",
          "type": "uint256"
        }
      ],
      "stateMutability": "view",
      "type": "function"
    },
    {
      "inputs": [
        {
          "internalType": "address",
          "name": "",
          "type": "address"
        }
      ],
      "name": "accumulatedProfit",
      "outputs": [
        {
          "internalType": "uint256",
          "name": "",
          "type": "uint256"
        }
      ],
      "stateMutability": "view",
      "type": "function"
    },
    {
      "inputs": [],
      "name": "addressRouter",
      "outputs": [
        {
          "internalType": "address",
          "name": "",
          "type": "address"
        }
      ],
      "stateMutability": "view",
      "type": "function"
    },
    {
      "inputs": [
        {
          "internalType": "uint256",
          "name": "_rewardAmount",
          "type": "uint256"
        },
        {
          "internalType": "uint256",
          "name": "_ratio",
          "type": "uint256"
        }
      ],
      "name": "calculateCommission",
      "outputs": [
        {
          "internalType": "uint256",
          "name": "",
          "type": "uint256"
        }
      ],
      "stateMutability": "pure",
      "type": "function"
    },
    {
      "inputs": [],
      "name": "decodedSnapshotBalance",
      "outputs": [
        {
          "internalType": "uint256",
          "name": "",
          "type": "uint256"
        }
      ],
      "stateMutability": "view",
      "type": "function"
    },
    {
      "inputs": [
        {
          "internalType": "address",
          "name": "_reroute",
          "type": "address"
        }
      ],
      "name": "editAddressRouter",
      "outputs": [],
      "stateMutability": "nonpayable",
      "type": "function"
    },
    {
      "inputs": [
        {
          "internalType": "address",
          "name": "_reroute",
          "type": "address"
        }
      ],
      "name": "editHelperRouter",
      "outputs": [],
      "stateMutability": "nonpayable",
      "type": "function"
    },
    {
      "inputs": [
        {
          "internalType": "address",
          "name": "_newInvestmentAddress",
          "type": "address"
        }
      ],
      "name": "editInvestmentAddress",
      "outputs": [],
      "stateMutability": "nonpayable",
      "type": "function"
    },
    {
      "inputs": [
        {
          "internalType": "address[]",
          "name": "_receiptLpAddress",
          "type": "address[]"
        }
      ],
      "name": "editReceiptLpAddress",
      "outputs": [],
      "stateMutability": "nonpayable",
      "type": "function"
    },
    {
      "inputs": [
        {
          "internalType": "address",
          "name": "_rewardsAddress",
          "type": "address"
        }
      ],
      "name": "editRewardsAddress",
      "outputs": [],
      "stateMutability": "nonpayable",
      "type": "function"
    },
    {
      "inputs": [
        {
          "internalType": "address",
          "name": "_newSpender",
          "type": "address"
        }
      ],
      "name": "editSpender",
      "outputs": [],
      "stateMutability": "nonpayable",
      "type": "function"
    },
    {
      "inputs": [
        {
          "internalType": "address[]",
          "name": "_targetToken",
          "type": "address[]"
        }
      ],
      "name": "editTargetToken",
      "outputs": [],
      "stateMutability": "nonpayable",
      "type": "function"
    },
    {
      "inputs": [
        {
          "internalType": "address[]",
          "name": "_tokensToBeRewardedAddress",
          "type": "address[]"
        }
      ],
      "name": "editTokensToBeRewardedAddress",
      "outputs": [],
      "stateMutability": "nonpayable",
      "type": "function"
    },
    {
      "inputs": [
        {
          "internalType": "address[]",
          "name": "_tokensToBeRewardedLP",
          "type": "address[]"
        }
      ],
      "name": "editTokensToBeRewardedLP",
      "outputs": [],
      "stateMutability": "nonpayable",
      "type": "function"
    },
    {
      "inputs": [
        {
          "internalType": "string[]",
          "name": "_tokensToBeRewardedName",
          "type": "string[]"
        }
      ],
      "name": "editTokensToBeRewardedName",
      "outputs": [],
      "stateMutability": "nonpayable",
      "type": "function"
    },
    {
      "inputs": [
        {
          "internalType": "address",
          "name": "_element",
          "type": "address"
        },
        {
          "internalType": "address[]",
          "name": "arr",
          "type": "address[]"
        }
      ],
      "name": "findElementInArray",
      "outputs": [
        {
          "internalType": "int256",
          "name": "",
          "type": "int256"
        }
      ],
      "stateMutability": "view",
      "type": "function"
    },
    {
      "inputs": [],
      "name": "helperRouter",
      "outputs": [
        {
          "internalType": "address payable",
          "name": "",
          "type": "address"
        }
      ],
      "stateMutability": "view",
      "type": "function"
    },
    {
      "inputs": [],
      "name": "investmentAddress",
      "outputs": [
        {
          "internalType": "address payable",
          "name": "",
          "type": "address"
        }
      ],
      "stateMutability": "view",
      "type": "function"
    },
    {
      "inputs": [],
      "name": "lastClaim",
      "outputs": [
        {
          "internalType": "uint256",
          "name": "",
          "type": "uint256"
        }
      ],
      "stateMutability": "view",
      "type": "function"
    },
    {
      "inputs": [
        {
          "internalType": "uint256",
          "name": "",
          "type": "uint256"
        }
      ],
      "name": "lastWalletArr",
      "outputs": [
        {
          "internalType": "address",
          "name": "",
          "type": "address"
        }
      ],
      "stateMutability": "view",
      "type": "function"
    },
    {
      "inputs": [],
      "name": "owner",
      "outputs": [
        {
          "internalType": "address",
          "name": "",
          "type": "address"
        }
      ],
      "stateMutability": "view",
      "type": "function"
    },
    {
      "inputs": [
        {
          "internalType": "address",
          "name": "_myAddress",
          "type": "address"
        }
      ],
      "name": "queryInvestmentBalance",
      "outputs": [],
      "stateMutability": "nonpayable",
      "type": "function"
    },
    {
      "inputs": [
        {
          "internalType": "uint256",
          "name": "",
          "type": "uint256"
        }
      ],
      "name": "receiptLpAddress",
      "outputs": [
        {
          "internalType": "address",
          "name": "",
          "type": "address"
        }
      ],
      "stateMutability": "view",
      "type": "function"
    },
    {
      "inputs": [
        {
          "internalType": "int256",
          "name": "_index",
          "type": "int256"
        }
      ],
      "name": "removeFromLastWalletArr",
      "outputs": [],
      "stateMutability": "nonpayable",
      "type": "function"
    },
    {
      "inputs": [
        {
          "internalType": "int256",
          "name": "_index",
          "type": "int256"
        }
      ],
      "name": "removeFromWalletArr",
      "outputs": [],
      "stateMutability": "nonpayable",
      "type": "function"
    },
    {
      "inputs": [],
      "name": "renounceOwnership",
      "outputs": [],
      "stateMutability": "nonpayable",
      "type": "function"
    },
    {
      "inputs": [
        {
          "internalType": "address",
          "name": "",
          "type": "address"
        }
      ],
      "name": "rewardSnapshot",
      "outputs": [
        {
          "internalType": "uint256",
          "name": "",
          "type": "uint256"
        }
      ],
      "stateMutability": "view",
      "type": "function"
    },
    {
      "inputs": [],
      "name": "rewardsAddress",
      "outputs": [
        {
          "internalType": "address payable",
          "name": "",
          "type": "address"
        }
      ],
      "stateMutability": "view",
      "type": "function"
    },
    {
      "inputs": [],
      "name": "routerClaimSingle",
      "outputs": [],
      "stateMutability": "nonpayable",
      "type": "function"
    },
    {
      "inputs": [
        {
          "internalType": "uint256",
          "name": "_amount",
          "type": "uint256"
        }
      ],
      "name": "routerDepositSingle",
      "outputs": [],
      "stateMutability": "nonpayable",
      "type": "function"
    },
    {
      "inputs": [
        {
          "internalType": "uint256",
          "name": "_amount",
          "type": "uint256"
        },
        {
          "internalType": "uint256",
          "name": "_minAmount",
          "type": "uint256"
        }
      ],
      "name": "routerWithdrawSingle",
      "outputs": [],
      "stateMutability": "nonpayable",
      "type": "function"
    },
    {
      "inputs": [],
      "name": "showAddressRouter",
      "outputs": [
        {
          "internalType": "address",
          "name": "",
          "type": "address"
        }
      ],
      "stateMutability": "view",
      "type": "function"
    },
    {
      "inputs": [],
      "name": "showHelperRouter",
      "outputs": [
        {
          "internalType": "address",
          "name": "",
          "type": "address"
        }
      ],
      "stateMutability": "view",
      "type": "function"
    },
    {
      "inputs": [],
      "name": "showSnapshot",
      "outputs": [
        {
          "internalType": "bytes",
          "name": "",
          "type": "bytes"
        }
      ],
      "stateMutability": "view",
      "type": "function"
    },
    {
      "inputs": [],
      "name": "showSpender",
      "outputs": [
        {
          "internalType": "address",
          "name": "",
          "type": "address"
        }
      ],
      "stateMutability": "view",
      "type": "function"
    },
    {
      "inputs": [],
      "name": "snapshotBalance",
      "outputs": [
        {
          "internalType": "bytes",
          "name": "",
          "type": "bytes"
        }
      ],
      "stateMutability": "view",
      "type": "function"
    },
    {
      "inputs": [],
      "name": "sp",
      "outputs": [
        {
          "internalType": "uint256",
          "name": "",
          "type": "uint256"
        }
      ],
      "stateMutability": "view",
      "type": "function"
    },
    {
      "inputs": [],
      "name": "spender",
      "outputs": [
        {
          "internalType": "address",
          "name": "",
          "type": "address"
        }
      ],
      "stateMutability": "view",
      "type": "function"
    },
    {
      "inputs": [
        {
          "internalType": "uint256",
          "name": "_amountIn",
          "type": "uint256"
        },
        {
          "internalType": "uint256",
          "name": "_amountOutMin",
          "type": "uint256"
        },
        {
          "internalType": "address",
          "name": "_buyCurrency",
          "type": "address"
        },
        {
          "internalType": "address",
          "name": "_sellCurrency",
          "type": "address"
        }
      ],
      "name": "swapGivenRewardsForReinvestToken",
      "outputs": [],
      "stateMutability": "nonpayable",
      "type": "function"
    },
    {
      "inputs": [],
      "name": "swapRouter",
      "outputs": [
        {
          "internalType": "address payable",
          "name": "",
          "type": "address"
        }
      ],
      "stateMutability": "view",
      "type": "function"
    },
    {
      "inputs": [
        {
          "internalType": "uint256",
          "name": "",
          "type": "uint256"
        }
      ],
      "name": "targetToken",
      "outputs": [
        {
          "internalType": "address",
          "name": "",
          "type": "address"
        }
      ],
      "stateMutability": "view",
      "type": "function"
    },
    {
      "inputs": [
        {
          "internalType": "string",
          "name": "_name",
          "type": "string"
        }
      ],
      "name": "testConstants",
      "outputs": [
        {
          "internalType": "address",
          "name": "",
          "type": "address"
        }
      ],
      "stateMutability": "view",
      "type": "function"
    },
    {
      "inputs": [
        {
          "internalType": "uint256",
          "name": "",
          "type": "uint256"
        }
      ],
      "name": "tokensToBeRewardedAddress",
      "outputs": [
        {
          "internalType": "address",
          "name": "",
          "type": "address"
        }
      ],
      "stateMutability": "view",
      "type": "function"
    },
    {
      "inputs": [
        {
          "internalType": "uint256",
          "name": "",
          "type": "uint256"
        }
      ],
      "name": "tokensToBeRewardedLP",
      "outputs": [
        {
          "internalType": "address",
          "name": "",
          "type": "address"
        }
      ],
      "stateMutability": "view",
      "type": "function"
    },
    {
      "inputs": [
        {
          "internalType": "uint256",
          "name": "",
          "type": "uint256"
        }
      ],
      "name": "tokensToBeRewardedName",
      "outputs": [
        {
          "internalType": "string",
          "name": "",
          "type": "string"
        }
      ],
      "stateMutability": "view",
      "type": "function"
    },
    {
      "inputs": [],
      "name": "totalInvestment",
      "outputs": [
        {
          "internalType": "uint256",
          "name": "",
          "type": "uint256"
        }
      ],
      "stateMutability": "view",
      "type": "function"
    },
    {
      "inputs": [
        {
          "internalType": "address",
          "name": "newOwner",
          "type": "address"
        }
      ],
      "name": "transferOwnership",
      "outputs": [],
      "stateMutability": "nonpayable",
      "type": "function"
    },
    {
      "inputs": [
        {
          "internalType": "uint256",
          "name": "",
          "type": "uint256"
        }
      ],
      "name": "walletArr",
      "outputs": [
        {
          "internalType": "address",
          "name": "",
          "type": "address"
        }
      ],
      "stateMutability": "view",
      "type": "function"
    }
  ],
  "bytecode": "0x60806040523480156200001157600080fd5b506040516200695c3803806200695c83398181016040528101906200003791906200070f565b620000576200004b6200027260201b60201c565b6200027a60201b60201c565b8a600260006101000a81548173ffffffffffffffffffffffffffffffffffffffff021916908373ffffffffffffffffffffffffffffffffffffffff16021790555089600360006101000a81548173ffffffffffffffffffffffffffffffffffffffff021916908373ffffffffffffffffffffffffffffffffffffffff1602179055508860049080519060200190620000f19291906200033e565b5087600160006101000a81548173ffffffffffffffffffffffffffffffffffffffff021916908373ffffffffffffffffffffffffffffffffffffffff16021790555086600560006101000a81548173ffffffffffffffffffffffffffffffffffffffff021916908373ffffffffffffffffffffffffffffffffffffffff16021790555085600660006101000a81548173ffffffffffffffffffffffffffffffffffffffff021916908373ffffffffffffffffffffffffffffffffffffffff16021790555084600760006101000a81548173ffffffffffffffffffffffffffffffffffffffff021916908373ffffffffffffffffffffffffffffffffffffffff16021790555083600890805190602001906200020e9291906200033e565b508260099080519060200190620002279291906200033e565b5081600a908051906020019062000240929190620003cd565b5080600b9080519060200190620002599291906200033e565b5042601281905550505050505050505050505062000a70565b600033905090565b60008060009054906101000a900473ffffffffffffffffffffffffffffffffffffffff169050816000806101000a81548173ffffffffffffffffffffffffffffffffffffffff021916908373ffffffffffffffffffffffffffffffffffffffff1602179055508173ffffffffffffffffffffffffffffffffffffffff168173ffffffffffffffffffffffffffffffffffffffff167f8be0079c531659141344cd1fd0a4f28419497f9722a3daafe3b4186f6b6457e060405160405180910390a35050565b828054828255906000526020600020908101928215620003ba579160200282015b82811115620003b95782518260006101000a81548173ffffffffffffffffffffffffffffffffffffffff021916908373ffffffffffffffffffffffffffffffffffffffff160217905550916020019190600101906200035f565b5b509050620003c9919062000434565b5090565b82805482825590600052602060002090810192821562000421579160200282015b82811115620004205782518290805190602001906200040f92919062000453565b5091602001919060010190620003ee565b5b509050620004309190620004e4565b5090565b5b808211156200044f57600081600090555060010162000435565b5090565b8280546200046190620009c2565b90600052602060002090601f016020900481019282620004855760008555620004d1565b82601f10620004a057805160ff1916838001178555620004d1565b82800160010185558215620004d1579182015b82811115620004d0578251825591602001919060010190620004b3565b5b509050620004e0919062000434565b5090565b5b80821115620005085760008181620004fe91906200050c565b50600101620004e5565b5090565b5080546200051a90620009c2565b6000825580601f106200052e57506200054f565b601f0160209004906000526020600020908101906200054e919062000434565b5b50565b6000620005696200056384620008c7565b62000893565b905080838252602082019050828560208602820111156200058957600080fd5b60005b85811015620005bd5781620005a2888262000671565b8452602084019350602083019250506001810190506200058c565b5050509392505050565b6000620005de620005d884620008f6565b62000893565b9050808382526020820190508260005b85811015620006225781518501620006078882620006e2565b845260208401935060208301925050600181019050620005ee565b5050509392505050565b6000620006436200063d8462000925565b62000893565b9050828152602081018484840111156200065c57600080fd5b620006698482856200098c565b509392505050565b600081519050620006828162000a56565b92915050565b600082601f8301126200069a57600080fd5b8151620006ac84826020860162000552565b91505092915050565b600082601f830112620006c757600080fd5b8151620006d9848260208601620005c7565b91505092915050565b600082601f830112620006f457600080fd5b8151620007068482602086016200062c565b91505092915050565b60008060008060008060008060008060006101608c8e0312156200073257600080fd5b6000620007428e828f0162000671565b9b50506020620007558e828f0162000671565b9a505060408c015167ffffffffffffffff8111156200077357600080fd5b620007818e828f0162000688565b9950506060620007948e828f0162000671565b9850506080620007a78e828f0162000671565b97505060a0620007ba8e828f0162000671565b96505060c0620007cd8e828f0162000671565b95505060e08c015167ffffffffffffffff811115620007eb57600080fd5b620007f98e828f0162000688565b9450506101008c015167ffffffffffffffff8111156200081857600080fd5b620008268e828f0162000688565b9350506101208c015167ffffffffffffffff8111156200084557600080fd5b620008538e828f01620006b5565b9250506101408c015167ffffffffffffffff8111156200087257600080fd5b620008808e828f0162000688565b9150509295989b509295989b9093969950565b6000604051905081810181811067ffffffffffffffff82111715620008bd57620008bc62000a27565b5b8060405250919050565b600067ffffffffffffffff821115620008e557620008e462000a27565b5b602082029050602081019050919050565b600067ffffffffffffffff82111562000914576200091362000a27565b5b602082029050602081019050919050565b600067ffffffffffffffff82111562000943576200094262000a27565b5b601f19601f8301169050602081019050919050565b600062000965826200096c565b9050919050565b600073ffffffffffffffffffffffffffffffffffffffff82169050919050565b60005b83811015620009ac5780820151818401526020810190506200098f565b83811115620009bc576000848401525b50505050565b60006002820490506001821680620009db57607f821691505b60208210811415620009f257620009f1620009f8565b5b50919050565b7f4e487b7100000000000000000000000000000000000000000000000000000000600052602260045260246000fd5b7f4e487b7100000000000000000000000000000000000000000000000000000000600052604160045260246000fd5b62000a618162000958565b811462000a6d57600080fd5b50565b615edc8062000a806000396000f3fe608060405234801561001057600080fd5b50600436106102a05760003560e01c80638da5cb5b11610167578063c778c5c8116100ce578063e1dadf3b11610087578063e1dadf3b14610823578063e309dd1814610841578063e8edc81614610871578063f2fde38b1461088f578063f650b011146108ab578063f8289b42146108c7576102a0565b8063c778c5c814610751578063d18b07b21461076f578063d6da15981461079f578063d793e8f9146107bb578063de5e12ed146107d7578063de9fc4fc14610807576102a0565b8063a991c9b511610120578063a991c9b5146106a1578063aba25990146106bf578063bba2f616146106db578063bea5f5a7146106e5578063c0973eed14610715578063c31c9c0714610733576102a0565b80638da5cb5b146105cd5780639077b9e9146105eb578063985a911b1461061b578063993c225414610637578063a31e4be314610653578063a8adb56414610683576102a0565b8063507a75511161020b578063731a293e116101c4578063731a293e146104f7578063747079be14610515578063770d0728146105335780637c01c3951461055157806385dea8cf1461058157806389a2d08c1461059d576102a0565b8063507a75511461043557806353030d911461045157806356ef858f1461046f57806357487f7f1461049f578063715018a6146104bd578063723fa6f3146104c7576102a0565b80632fc29b751161025d5780632fc29b751461034f5780633103bfd21461036b5780633929e467146103875780633ad9a211146103b75780633d2ee176146103e75780634585178114610417576102a0565b806310ea13df146102a557806310ebe913146102c3578063189f1a29146102df5780631f0f6820146102fb57806323c9c089146103175780632f317d7814610333575b600080fd5b6102ad6108e5565b6040516102ba9190615840565b60405180910390f35b6102dd60048036038101906102d89190614d14565b6108eb565b005b6102f960048036038101906102f49190614dfb565b61092f565b005b61031560048036038101906103109190614dba565b6109c5565b005b610331600480360381019061032c9190614e65565b610a5b565b005b61034d60048036038101906103489190614ecf565b610c3e565b005b61036960048036038101906103649190614dba565b61116e565b005b61038560048036038101906103809190614d14565b611204565b005b6103a1600480360381019061039c9190614ecf565b6112c4565b6040516103ae919061559b565b60405180910390f35b6103d160048036038101906103cc9190614ecf565b611303565b6040516103de919061559b565b60405180910390f35b61040160048036038101906103fc9190614ecf565b611342565b60405161040e919061569e565b60405180910390f35b61041f6113ee565b60405161042c91906155b6565b60405180910390f35b61044f600480360381019061044a9190614f5d565b611414565b005b61045961153e565b60405161046691906155b6565b60405180910390f35b61048960048036038101906104849190614ecf565b611564565b604051610496919061559b565b60405180910390f35b6104a76115a3565b6040516104b49190615840565b60405180910390f35b6104c561166e565b005b6104e160048036038101906104dc9190614d14565b6116f6565b6040516104ee9190615840565b60405180910390f35b6104ff61170e565b60405161050c9190615661565b60405180910390f35b61051d6117a0565b60405161052a919061559b565b60405180910390f35b61053b6117ca565b604051610548919061559b565b60405180910390f35b61056b60048036038101906105669190614d66565b6117f4565b6040516105789190615683565b60405180910390f35b61059b60048036038101906105969190614dba565b6118c7565b005b6105b760048036038101906105b29190614d14565b61195d565b6040516105c49190615840565b60405180910390f35b6105d5611975565b6040516105e2919061559b565b60405180910390f35b61060560048036038101906106009190614d14565b61199e565b6040516106129190615840565b60405180910390f35b61063560048036038101906106309190614d14565b6119b6565b005b610651600480360381019061064c9190614d14565b611a76565b005b61066d60048036038101906106689190614e8e565b611aba565b60405161067a919061559b565b60405180910390f35b61068b611b73565b6040516106989190615840565b60405180910390f35b6106a9611b79565b6040516106b69190615661565b60405180910390f35b6106d960048036038101906106d49190614d14565b611c07565b005b6106e3611c4b565b005b6106ff60048036038101906106fa9190614ecf565b612a10565b60405161070c919061559b565b60405180910390f35b61071d612a4f565b60405161072a91906155b6565b60405180910390f35b61073b612a75565b60405161074891906155b6565b60405180910390f35b610759612a9b565b604051610766919061559b565b60405180910390f35b61078960048036038101906107849190614f21565b612ac5565b6040516107969190615840565b60405180910390f35b6107b960048036038101906107b49190614d14565b612b01565b005b6107d560048036038101906107d09190614f21565b612c5d565b005b6107f160048036038101906107ec9190614ecf565b613483565b6040516107fe919061559b565b60405180910390f35b610821600480360381019061081c9190614e65565b6134c2565b005b61082b6136a5565b6040516108389190615840565b60405180910390f35b61085b60048036038101906108569190614ecf565b6136ab565b604051610868919061559b565b60405180910390f35b6108796136ea565b604051610886919061559b565b60405180910390f35b6108a960048036038101906108a49190614d14565b613710565b005b6108c560048036038101906108c09190614dba565b613808565b005b6108cf61389e565b6040516108dc919061559b565b60405180910390f35b600d5481565b80600260006101000a81548173ffffffffffffffffffffffffffffffffffffffff021916908373ffffffffffffffffffffffffffffffffffffffff16021790555050565b6109376138c4565b73ffffffffffffffffffffffffffffffffffffffff16610955611975565b73ffffffffffffffffffffffffffffffffffffffff16146109ab576040517f08c379a00000000000000000000000000000000000000000000000000000000081526004016109a2906157c0565b60405180910390fd5b80600a90805190602001906109c1929190614833565b5050565b6109cd6138c4565b73ffffffffffffffffffffffffffffffffffffffff166109eb611975565b73ffffffffffffffffffffffffffffffffffffffff1614610a41576040517f08c379a0000000000000000000000000000000000000000000000000000000008152600401610a38906157c0565b60405180910390fd5b8060049080519060200190610a57929190614893565b5050565b60008190508060138054905011610aa7576040517f08c379a0000000000000000000000000000000000000000000000000000000008152600401610a9e906157e0565b60405180910390fd5b60008190505b6001601380549050610abf9190615b37565b811015610bcc576013600182610ad59190615a56565b81548110610b0c577f4e487b7100000000000000000000000000000000000000000000000000000000600052603260045260246000fd5b9060005260206000200160009054906101000a900473ffffffffffffffffffffffffffffffffffffffff1660138281548110610b71577f4e487b7100000000000000000000000000000000000000000000000000000000600052603260045260246000fd5b9060005260206000200160006101000a81548173ffffffffffffffffffffffffffffffffffffffff021916908373ffffffffffffffffffffffffffffffffffffffff1602179055508080610bc490615cd3565b915050610aad565b506013805480610c05577f4e487b7100000000000000000000000000000000000000000000000000000000600052603160045260246000fd5b6001900381819060005260206000200160006101000a81549073ffffffffffffffffffffffffffffffffffffffff021916905590555050565b60008111610c81576040517f08c379a0000000000000000000000000000000000000000000000000000000008152600401610c7890615800565b60405180910390fd5b6000610c8c30612b01565b6000610c966115a3565b9050600080600260009054906101000a900473ffffffffffffffffffffffffffffffffffffffff1673ffffffffffffffffffffffffffffffffffffffff16856004600081548110610d10577f4e487b7100000000000000000000000000000000000000000000000000000000600052603260045260246000fd5b9060005260206000200160009054906101000a900473ffffffffffffffffffffffffffffffffffffffff16600560009054906101000a900473ffffffffffffffffffffffffffffffffffffffff16600660009054906101000a900473ffffffffffffffffffffffffffffffffffffffff16604051602401610d94949392919061585b565b6040516020818303038152906040527fa4924ed3000000000000000000000000000000000000000000000000000000007bffffffffffffffffffffffffffffffffffffffffffffffffffffffff19166020820180517bffffffffffffffffffffffffffffffffffffffffffffffffffffffff8381831617835250505050604051610e1e9190615584565b600060405180830381855af49150503d8060008114610e59576040519150601f19603f3d011682016040523d82523d6000602084013e610e5e565b606091505b509150915081610ea3576040517f08c379a0000000000000000000000000000000000000000000000000000000008152600401610e9a90615780565b60405180910390fd5b610eac30612b01565b6000610eb66115a3565b90508381610ec49190615b37565b9450610f1885600e60003373ffffffffffffffffffffffffffffffffffffffff1673ffffffffffffffffffffffffffffffffffffffff168152602001908152602001600020546138cc90919063ffffffff16565b600e60003373ffffffffffffffffffffffffffffffffffffffff1673ffffffffffffffffffffffffffffffffffffffff168152602001908152602001600020819055507fffffffffffffffffffffffffffffffffffffffffffffffffffffffffffffffff61100c33600f80548060200260200160405190810160405280929190818152602001828054801561100257602002820191906000526020600020905b8160009054906101000a900473ffffffffffffffffffffffffffffffffffffffff1673ffffffffffffffffffffffffffffffffffffffff1681526020019060010190808311610fb8575b50505050506117f4565b141561107657600f339080600181540180825580915050600190039060005260206000200160009091909190916101000a81548173ffffffffffffffffffffffffffffffffffffffff021916908373ffffffffffffffffffffffffffffffffffffffff1602179055505b61108b85600d546138cc90919063ffffffff16565b600d819055506000601380549050111561116657600061113133601380548060200260200160405190810160405280929190818152602001828054801561112757602002820191906000526020600020905b8160009054906101000a900473ffffffffffffffffffffffffffffffffffffffff1673ffffffffffffffffffffffffffffffffffffffff16815260200190600101908083116110dd575b50505050506117f4565b90507fffffffffffffffffffffffffffffffffffffffffffffffffffffffffffffffff81146111645761116381610a5b565b5b505b505050505050565b6111766138c4565b73ffffffffffffffffffffffffffffffffffffffff16611194611975565b73ffffffffffffffffffffffffffffffffffffffff16146111ea576040517f08c379a00000000000000000000000000000000000000000000000000000000081526004016111e1906157c0565b60405180910390fd5b8060099080519060200190611200929190614893565b5050565b61120c6138c4565b73ffffffffffffffffffffffffffffffffffffffff1661122a611975565b73ffffffffffffffffffffffffffffffffffffffff1614611280576040517f08c379a0000000000000000000000000000000000000000000000000000000008152600401611277906157c0565b60405180910390fd5b80600560006101000a81548173ffffffffffffffffffffffffffffffffffffffff021916908373ffffffffffffffffffffffffffffffffffffffff16021790555050565b600881815481106112d457600080fd5b906000526020600020016000915054906101000a900473ffffffffffffffffffffffffffffffffffffffff1681565b6009818154811061131357600080fd5b906000526020600020016000915054906101000a900473ffffffffffffffffffffffffffffffffffffffff1681565b600a818154811061135257600080fd5b90600052602060002001600091509050805461136d90615c3e565b80601f016020809104026020016040519081016040528092919081815260200182805461139990615c3e565b80156113e65780601f106113bb576101008083540402835291602001916113e6565b820191906000526020600020905b8154815290600101906020018083116113c957829003601f168201915b505050505081565b600260009054906101000a900473ffffffffffffffffffffffffffffffffffffffff1681565b600080600360009054906101000a900473ffffffffffffffffffffffffffffffffffffffff1673ffffffffffffffffffffffffffffffffffffffff168686868660405160240161146794939291906158d7565b6040516020818303038152906040527fc94f5066000000000000000000000000000000000000000000000000000000007bffffffffffffffffffffffffffffffffffffffffffffffffffffffff19166020820180517bffffffffffffffffffffffffffffffffffffffffffffffffffffffff83818316178352505050506040516114f19190615584565b600060405180830381855af49150503d806000811461152c576040519150601f19603f3d011682016040523d82523d6000602084013e611531565b606091505b5091509150505050505050565b600660009054906101000a900473ffffffffffffffffffffffffffffffffffffffff1681565b600b818154811061157457600080fd5b906000526020600020016000915054906101000a900473ffffffffffffffffffffffffffffffffffffffff1681565b600080600c80546115b390615c3e565b905014156115c4576000905061166b565b6000600c80546115d390615c3e565b80601f01602080910402602001604051908101604052809291908181526020018280546115ff90615c3e565b801561164c5780601f106116215761010080835404028352916020019161164c565b820191906000526020600020905b81548152906001019060200180831161162f57829003601f168201915b50505050508060200190518101906116649190614ef8565b9050809150505b90565b6116766138c4565b73ffffffffffffffffffffffffffffffffffffffff16611694611975565b73ffffffffffffffffffffffffffffffffffffffff16146116ea576040517f08c379a00000000000000000000000000000000000000000000000000000000081526004016116e1906157c0565b60405180910390fd5b6116f460006138e2565b565b600e6020528060005260406000206000915090505481565b6060600c805461171d90615c3e565b80601f016020809104026020016040519081016040528092919081815260200182805461174990615c3e565b80156117965780601f1061176b57610100808354040283529160200191611796565b820191906000526020600020905b81548152906001019060200180831161177957829003601f168201915b5050505050905090565b6000600260009054906101000a900473ffffffffffffffffffffffffffffffffffffffff16905090565b6000600160009054906101000a900473ffffffffffffffffffffffffffffffffffffffff16905090565b600080600090505b825181121561189c576000819050838181518110611843577f4e487b7100000000000000000000000000000000000000000000000000000000600052603260045260246000fd5b602002602001015173ffffffffffffffffffffffffffffffffffffffff168573ffffffffffffffffffffffffffffffffffffffff1614156118885781925050506118c1565b50808061189490615c8a565b9150506117fc565b507fffffffffffffffffffffffffffffffffffffffffffffffffffffffffffffffff90505b92915050565b6118cf6138c4565b73ffffffffffffffffffffffffffffffffffffffff166118ed611975565b73ffffffffffffffffffffffffffffffffffffffff1614611943576040517f08c379a000000000000000000000000000000000000000000000000000000000815260040161193a906157c0565b60405180910390fd5b80600b9080519060200190611959929190614893565b5050565b60106020528060005260406000206000915090505481565b60008060009054906101000a900473ffffffffffffffffffffffffffffffffffffffff16905090565b60116020528060005260406000206000915090505481565b6119be6138c4565b73ffffffffffffffffffffffffffffffffffffffff166119dc611975565b73ffffffffffffffffffffffffffffffffffffffff1614611a32576040517f08c379a0000000000000000000000000000000000000000000000000000000008152600401611a29906157c0565b60405180910390fd5b80600760006101000a81548173ffffffffffffffffffffffffffffffffffffffff021916908373ffffffffffffffffffffffffffffffffffffffff16021790555050565b80600160006101000a81548173ffffffffffffffffffffffffffffffffffffffff021916908373ffffffffffffffffffffffffffffffffffffffff16021790555050565b600080600160009054906101000a900473ffffffffffffffffffffffffffffffffffffffff1673ffffffffffffffffffffffffffffffffffffffff16632570a742846040518263ffffffff1660e01b8152600401611b18919061569e565b60206040518083038186803b158015611b3057600080fd5b505afa158015611b44573d6000803e3d6000fd5b505050506040513d601f19601f82011682018060405250810190611b689190614d3d565b905080915050919050565b60125481565b600c8054611b8690615c3e565b80601f0160208091040260200160405190810160405280929190818152602001828054611bb290615c3e565b8015611bff5780601f10611bd457610100808354040283529160200191611bff565b820191906000526020600020905b815481529060010190602001808311611be257829003601f168201915b505050505081565b80600660006101000a81548173ffffffffffffffffffffffffffffffffffffffff021916908373ffffffffffffffffffffffffffffffffffffffff16021790555050565b600060088054905011611c93576040517f08c379a0000000000000000000000000000000000000000000000000000000008152600401611c8a90615760565b60405180910390fd5b42601281905550600f6013908054611cac92919061491d565b50600080600260009054906101000a900473ffffffffffffffffffffffffffffffffffffffff1673ffffffffffffffffffffffffffffffffffffffff16600830600760009054906101000a900473ffffffffffffffffffffffffffffffffffffffff16604051602401611d2193929190615623565b6040516020818303038152906040527f8b619b65000000000000000000000000000000000000000000000000000000007bffffffffffffffffffffffffffffffffffffffffffffffffffffffff19166020820180517bffffffffffffffffffffffffffffffffffffffffffffffffffffffff8381831617835250505050604051611dab9190615584565b600060405180830381855af49150503d8060008114611de6576040519150601f19603f3d011682016040523d82523d6000602084013e611deb565b606091505b509150915081611e30576040517f08c379a0000000000000000000000000000000000000000000000000000000008152600401611e27906156c0565b60405180910390fd5b60005b6009805490508160ff161015611ff05760098160ff1681548110611e80577f4e487b7100000000000000000000000000000000000000000000000000000000600052603260045260246000fd5b9060005260206000200160009054906101000a900473ffffffffffffffffffffffffffffffffffffffff1673ffffffffffffffffffffffffffffffffffffffff166370a08231306040518263ffffffff1660e01b8152600401611ee3919061559b565b60206040518083038186803b158015611efb57600080fd5b505afa158015611f0f573d6000803e3d6000fd5b505050506040513d601f19601f82011682018060405250810190611f339190614ef8565b6011600060098460ff1681548110611f74577f4e487b7100000000000000000000000000000000000000000000000000000000600052603260045260246000fd5b9060005260206000200160009054906101000a900473ffffffffffffffffffffffffffffffffffffffff1673ffffffffffffffffffffffffffffffffffffffff1673ffffffffffffffffffffffffffffffffffffffff168152602001908152602001600020819055508080611fe890615d1c565b915050611e33565b506000600160009054906101000a900473ffffffffffffffffffffffffffffffffffffffff1673ffffffffffffffffffffffffffffffffffffffff16632570a7426040518163ffffffff1660e01b815260040161204c90615740565b60206040518083038186803b15801561206457600080fd5b505afa158015612078573d6000803e3d6000fd5b505050506040513d601f19601f8201168201806040525081019061209c9190614d3d565b90506000600160009054906101000a900473ffffffffffffffffffffffffffffffffffffffff1673ffffffffffffffffffffffffffffffffffffffff1663875d11e26040518163ffffffff1660e01b815260040160206040518083038186803b15801561210857600080fd5b505afa15801561211c573d6000803e3d6000fd5b505050506040513d601f19601f820116820180604052508101906121409190614fc0565b60ff16905060005b6009805490508160ff1610156123c05760006011600060098460ff168154811061219b577f4e487b7100000000000000000000000000000000000000000000000000000000600052603260045260246000fd5b9060005260206000200160009054906101000a900473ffffffffffffffffffffffffffffffffffffffff1673ffffffffffffffffffffffffffffffffffffffff1673ffffffffffffffffffffffffffffffffffffffff16815260200190815260200160002054146123ad5760098160ff1681548110612243577f4e487b7100000000000000000000000000000000000000000000000000000000600052603260045260246000fd5b9060005260206000200160009054906101000a900473ffffffffffffffffffffffffffffffffffffffff1673ffffffffffffffffffffffffffffffffffffffff1663a9059cbb84846011600060098760ff16815481106122cc577f4e487b7100000000000000000000000000000000000000000000000000000000600052603260045260246000fd5b9060005260206000200160009054906101000a900473ffffffffffffffffffffffffffffffffffffffff1673ffffffffffffffffffffffffffffffffffffffff1673ffffffffffffffffffffffffffffffffffffffff1681526020019081526020016000205461233c9190615aac565b6040518363ffffffff1660e01b81526004016123599291906155fa565b602060405180830381600087803b15801561237357600080fd5b505af1158015612387573d6000803e3d6000fd5b505050506040513d601f19601f820116820180604052508101906123ab9190614e3c565b505b80806123b890615d1c565b915050612148565b5060005b6009805490508160ff1610156126645760006011600060098460ff1681548110612417577f4e487b7100000000000000000000000000000000000000000000000000000000600052603260045260246000fd5b9060005260206000200160009054906101000a900473ffffffffffffffffffffffffffffffffffffffff1673ffffffffffffffffffffffffffffffffffffffff1673ffffffffffffffffffffffffffffffffffffffff168152602001908152602001600020541461265157600060098260ff16815481106124c1577f4e487b7100000000000000000000000000000000000000000000000000000000600052603260045260246000fd5b9060005260206000200160009054906101000a900473ffffffffffffffffffffffffffffffffffffffff1673ffffffffffffffffffffffffffffffffffffffff166370a08231306040518263ffffffff1660e01b8152600401612524919061559b565b60206040518083038186803b15801561253c57600080fd5b505afa158015612550573d6000803e3d6000fd5b505050506040513d601f19601f820116820180604052508101906125749190614ef8565b905061264f81600160046000815481106125b7577f4e487b7100000000000000000000000000000000000000000000000000000000600052603260045260246000fd5b9060005260206000200160009054906101000a900473ffffffffffffffffffffffffffffffffffffffff1660098660ff168154811061261f577f4e487b7100000000000000000000000000000000000000000000000000000000600052603260045260246000fd5b9060005260206000200160009054906101000a900473ffffffffffffffffffffffffffffffffffffffff16611414565b505b808061265c90615d1c565b9150506123c4565b50600060046000815481106126a2577f4e487b7100000000000000000000000000000000000000000000000000000000600052603260045260246000fd5b9060005260206000200160009054906101000a900473ffffffffffffffffffffffffffffffffffffffff1673ffffffffffffffffffffffffffffffffffffffff166370a08231306040518263ffffffff1660e01b8152600401612705919061559b565b60206040518083038186803b15801561271d57600080fd5b505afa158015612731573d6000803e3d6000fd5b505050506040513d601f19601f820116820180604052508101906127559190614ef8565b9050600080600260009054906101000a900473ffffffffffffffffffffffffffffffffffffffff1673ffffffffffffffffffffffffffffffffffffffff168360046000815481106127cf577f4e487b7100000000000000000000000000000000000000000000000000000000600052603260045260246000fd5b9060005260206000200160009054906101000a900473ffffffffffffffffffffffffffffffffffffffff16600560009054906101000a900473ffffffffffffffffffffffffffffffffffffffff16600660009054906101000a900473ffffffffffffffffffffffffffffffffffffffff16604051602401612853949392919061585b565b6040516020818303038152906040527fa4924ed3000000000000000000000000000000000000000000000000000000007bffffffffffffffffffffffffffffffffffffffffffffffffffffffff19166020820180517bffffffffffffffffffffffffffffffffffffffffffffffffffffffff83818316178352505050506040516128dd9190615584565b600060405180830381855af49150503d8060008114612918576040519150601f19603f3d011682016040523d82523d6000602084013e61291d565b606091505b50915091506129c78360006013805490501161293a57600f61293d565b60135b8054806020026020016040519081016040528092919081815260200182805480156129bd57602002820191906000526020600020905b8160009054906101000a900473ffffffffffffffffffffffffffffffffffffffff1673ffffffffffffffffffffffffffffffffffffffff1681526020019060010190808311612973575b50505050506139a6565b86612a07576040517f08c379a00000000000000000000000000000000000000000000000000000000081526004016129fe90615780565b60405180910390fd5b50505050505050565b60048181548110612a2057600080fd5b906000526020600020016000915054906101000a900473ffffffffffffffffffffffffffffffffffffffff1681565b600760009054906101000a900473ffffffffffffffffffffffffffffffffffffffff1681565b600360009054906101000a900473ffffffffffffffffffffffffffffffffffffffff1681565b6000600560009054906101000a900473ffffffffffffffffffffffffffffffffffffffff16905090565b6000806402540be40090506000818483612adf9190615aac565b86612aea9190615add565b612af49190615aac565b9050809250505092915050565b600080600260009054906101000a900473ffffffffffffffffffffffffffffffffffffffff1673ffffffffffffffffffffffffffffffffffffffff16600660009054906101000a900473ffffffffffffffffffffffffffffffffffffffff1684604051602401612b729291906155d1565b6040516020818303038152906040527fc08bf969000000000000000000000000000000000000000000000000000000007bffffffffffffffffffffffffffffffffffffffffffffffffffffffff19166020820180517bffffffffffffffffffffffffffffffffffffffffffffffffffffffff8381831617835250505050604051612bfc9190615584565b600060405180830381855af49150503d8060008114612c37576040519150601f19603f3d011682016040523d82523d6000602084013e612c3c565b606091505b509150915080600c9080519060200190612c5792919061496f565b50505050565b60008211612ca0576040517f08c379a0000000000000000000000000000000000000000000000000000000008152600401612c9790615720565b60405180910390fd5b81600e60003373ffffffffffffffffffffffffffffffffffffffff1673ffffffffffffffffffffffffffffffffffffffff168152602001908152602001600020541015612d22576040517f08c379a0000000000000000000000000000000000000000000000000000000008152600401612d1990615820565b60405180910390fd5b612d2b30612b01565b6000612d356115a3565b905060006004600081548110612d74577f4e487b7100000000000000000000000000000000000000000000000000000000600052603260045260246000fd5b9060005260206000200160009054906101000a900473ffffffffffffffffffffffffffffffffffffffff1673ffffffffffffffffffffffffffffffffffffffff166370a08231306040518263ffffffff1660e01b8152600401612dd7919061559b565b60206040518083038186803b158015612def57600080fd5b505afa158015612e03573d6000803e3d6000fd5b505050506040513d601f19601f82011682018060405250810190612e279190614ef8565b9050600080600260009054906101000a900473ffffffffffffffffffffffffffffffffffffffff1673ffffffffffffffffffffffffffffffffffffffff168686600660009054906101000a900473ffffffffffffffffffffffffffffffffffffffff16604051602401612e9c939291906158a0565b6040516020818303038152906040527ff3d61677000000000000000000000000000000000000000000000000000000007bffffffffffffffffffffffffffffffffffffffffffffffffffffffff19166020820180517bffffffffffffffffffffffffffffffffffffffffffffffffffffffff8381831617835250505050604051612f269190615584565b600060405180830381855af49150503d8060008114612f61576040519150601f19603f3d011682016040523d82523d6000602084013e612f66565b606091505b509150915081612fab576040517f08c379a0000000000000000000000000000000000000000000000000000000008152600401612fa2906157a0565b60405180910390fd5b612fb430612b01565b60006004600081548110612ff1577f4e487b7100000000000000000000000000000000000000000000000000000000600052603260045260246000fd5b9060005260206000200160009054906101000a900473ffffffffffffffffffffffffffffffffffffffff1673ffffffffffffffffffffffffffffffffffffffff166370a08231306040518263ffffffff1660e01b8152600401613054919061559b565b60206040518083038186803b15801561306c57600080fd5b505afa158015613080573d6000803e3d6000fd5b505050506040513d601f19601f820116820180604052508101906130a49190614ef8565b905060006130b06115a3565b866130bb9190615b37565b905061310f81600e60003373ffffffffffffffffffffffffffffffffffffffff1673ffffffffffffffffffffffffffffffffffffffff1681526020019081526020016000205461481d90919063ffffffff16565b600e60003373ffffffffffffffffffffffffffffffffffffffff1673ffffffffffffffffffffffffffffffffffffffff168152602001908152602001600020819055506000600e60003373ffffffffffffffffffffffffffffffffffffffff1673ffffffffffffffffffffffffffffffffffffffff16815260200190815260200160002054141561323957600061322c33600f80548060200260200160405190810160405280929190818152602001828054801561322257602002820191906000526020600020905b8160009054906101000a900473ffffffffffffffffffffffffffffffffffffffff1673ffffffffffffffffffffffffffffffffffffffff16815260200190600101908083116131d8575b50505050506117f4565b9050613237816134c2565b505b80601060003373ffffffffffffffffffffffffffffffffffffffff1673ffffffffffffffffffffffffffffffffffffffff1681526020019081526020016000205410156132ca576000601060003373ffffffffffffffffffffffffffffffffffffffff1673ffffffffffffffffffffffffffffffffffffffff16815260200190815260200160002081905550613360565b61331c81601060003373ffffffffffffffffffffffffffffffffffffffff1673ffffffffffffffffffffffffffffffffffffffff1681526020019081526020016000205461481d90919063ffffffff16565b601060003373ffffffffffffffffffffffffffffffffffffffff1673ffffffffffffffffffffffffffffffffffffffff168152602001908152602001600020819055505b61337581600d5461481d90919063ffffffff16565b600d8190555060046000815481106133b6577f4e487b7100000000000000000000000000000000000000000000000000000000600052603260045260246000fd5b9060005260206000200160009054906101000a900473ffffffffffffffffffffffffffffffffffffffff1673ffffffffffffffffffffffffffffffffffffffff1663a9059cbb3387856134099190615b37565b6040518363ffffffff1660e01b81526004016134269291906155fa565b602060405180830381600087803b15801561344057600080fd5b505af1158015613454573d6000803e3d6000fd5b505050506040513d601f19601f820116820180604052508101906134789190614e3c565b505050505050505050565b600f818154811061349357600080fd5b906000526020600020016000915054906101000a900473ffffffffffffffffffffffffffffffffffffffff1681565b600081905080600f805490501161350e576040517f08c379a0000000000000000000000000000000000000000000000000000000008152600401613505906157e0565b60405180910390fd5b60008190505b6001600f805490506135269190615b37565b81101561363357600f60018261353c9190615a56565b81548110613573577f4e487b7100000000000000000000000000000000000000000000000000000000600052603260045260246000fd5b9060005260206000200160009054906101000a900473ffffffffffffffffffffffffffffffffffffffff16600f82815481106135d8577f4e487b7100000000000000000000000000000000000000000000000000000000600052603260045260246000fd5b9060005260206000200160006101000a81548173ffffffffffffffffffffffffffffffffffffffff021916908373ffffffffffffffffffffffffffffffffffffffff160217905550808061362b90615cd3565b915050613514565b50600f80548061366c577f4e487b7100000000000000000000000000000000000000000000000000000000600052603160045260246000fd5b6001900381819060005260206000200160006101000a81549073ffffffffffffffffffffffffffffffffffffffff021916905590555050565b60145481565b601381815481106136bb57600080fd5b906000526020600020016000915054906101000a900473ffffffffffffffffffffffffffffffffffffffff1681565b600560009054906101000a900473ffffffffffffffffffffffffffffffffffffffff1681565b6137186138c4565b73ffffffffffffffffffffffffffffffffffffffff16613736611975565b73ffffffffffffffffffffffffffffffffffffffff161461378c576040517f08c379a0000000000000000000000000000000000000000000000000000000008152600401613783906157c0565b60405180910390fd5b600073ffffffffffffffffffffffffffffffffffffffff168173ffffffffffffffffffffffffffffffffffffffff1614156137fc576040517f08c379a00000000000000000000000000000000000000000000000000000000081526004016137f3906156e0565b60405180910390fd5b613805816138e2565b50565b6138106138c4565b73ffffffffffffffffffffffffffffffffffffffff1661382e611975565b73ffffffffffffffffffffffffffffffffffffffff1614613884576040517f08c379a000000000000000000000000000000000000000000000000000000000815260040161387b906157c0565b60405180910390fd5b806008908051906020019061389a929190614893565b5050565b600160009054906101000a900473ffffffffffffffffffffffffffffffffffffffff1681565b600033905090565b600081836138da9190615a56565b905092915050565b60008060009054906101000a900473ffffffffffffffffffffffffffffffffffffffff169050816000806101000a81548173ffffffffffffffffffffffffffffffffffffffff021916908373ffffffffffffffffffffffffffffffffffffffff1602179055508173ffffffffffffffffffffffffffffffffffffffff168173ffffffffffffffffffffffffffffffffffffffff167f8be0079c531659141344cd1fd0a4f28419497f9722a3daafe3b4186f6b6457e060405160405180910390a35050565b60008151116139ea576040517f08c379a00000000000000000000000000000000000000000000000000000000081526004016139e190615700565b60405180910390fd5b60005b8151811015614818576000620f4240600d54620f4240600e6000878781518110613a40577f4e487b7100000000000000000000000000000000000000000000000000000000600052603260045260246000fd5b602002602001015173ffffffffffffffffffffffffffffffffffffffff1673ffffffffffffffffffffffffffffffffffffffff16815260200190815260200160002054613a8d9190615add565b613a979190615aac565b85613aa29190615add565b613aac9190615aac565b90506000600160009054906101000a900473ffffffffffffffffffffffffffffffffffffffff1673ffffffffffffffffffffffffffffffffffffffff1663ed2ea0f7858581518110613b27577f4e487b7100000000000000000000000000000000000000000000000000000000600052603260045260246000fd5b60200260200101516040518263ffffffff1660e01b8152600401613b4b919061559b565b60206040518083038186803b158015613b6357600080fd5b505afa158015613b77573d6000803e3d6000fd5b505050506040513d601f19601f82011682018060405250810190613b9b9190614d3d565b9050600073ffffffffffffffffffffffffffffffffffffffff168173ffffffffffffffffffffffffffffffffffffffff16146145e6576000613c7f83600160009054906101000a900473ffffffffffffffffffffffffffffffffffffffff1673ffffffffffffffffffffffffffffffffffffffff166395dd1d0d6040518163ffffffff1660e01b815260040160206040518083038186803b158015613c3f57600080fd5b505afa158015613c53573d6000803e3d6000fd5b505050506040513d601f19601f82011682018060405250810190613c779190614fc0565b60ff16612ac5565b90506000600160009054906101000a900473ffffffffffffffffffffffffffffffffffffffff1673ffffffffffffffffffffffffffffffffffffffff166319897b35846040518263ffffffff1660e01b8152600401613cde919061559b565b60206040518083038186803b158015613cf657600080fd5b505afa158015613d0a573d6000803e3d6000fd5b505050506040513d601f19601f82011682018060405250810190613d2e9190614d3d565b9050600073ffffffffffffffffffffffffffffffffffffffff168173ffffffffffffffffffffffffffffffffffffffff1614614295576000613e1283600160009054906101000a900473ffffffffffffffffffffffffffffffffffffffff1673ffffffffffffffffffffffffffffffffffffffff1663a2a2e1326040518163ffffffff1660e01b815260040160206040518083038186803b158015613dd257600080fd5b505afa158015613de6573d6000803e3d6000fd5b505050506040513d601f19601f82011682018060405250810190613e0a9190614fc0565b60ff16612ac5565b905060008386613e229190615b37565b905081600e60008573ffffffffffffffffffffffffffffffffffffffff1673ffffffffffffffffffffffffffffffffffffffff16815260200190815260200160002054613e6f9190615a56565b600e60008573ffffffffffffffffffffffffffffffffffffffff1673ffffffffffffffffffffffffffffffffffffffff1681526020019081526020016000208190555081601060008573ffffffffffffffffffffffffffffffffffffffff1673ffffffffffffffffffffffffffffffffffffffff16815260200190815260200160002054613efd9190615a56565b601060008573ffffffffffffffffffffffffffffffffffffffff1673ffffffffffffffffffffffffffffffffffffffff168152602001908152602001600020819055508184600e60008873ffffffffffffffffffffffffffffffffffffffff1673ffffffffffffffffffffffffffffffffffffffff16815260200190815260200160002054613f8c9190615a56565b613f969190615b37565b600e60008773ffffffffffffffffffffffffffffffffffffffff1673ffffffffffffffffffffffffffffffffffffffff168152602001908152602001600020819055508184601060008873ffffffffffffffffffffffffffffffffffffffff1673ffffffffffffffffffffffffffffffffffffffff168152602001908152602001600020546140259190615a56565b61402f9190615b37565b601060008773ffffffffffffffffffffffffffffffffffffffff1673ffffffffffffffffffffffffffffffffffffffff1681526020019081526020016000208190555080600e60008a8a815181106140b0577f4e487b7100000000000000000000000000000000000000000000000000000000600052603260045260246000fd5b602002602001015173ffffffffffffffffffffffffffffffffffffffff1673ffffffffffffffffffffffffffffffffffffffff168152602001908152602001600020546140fd9190615a56565b600e60008a8a8151811061413a577f4e487b7100000000000000000000000000000000000000000000000000000000600052603260045260246000fd5b602002602001015173ffffffffffffffffffffffffffffffffffffffff1673ffffffffffffffffffffffffffffffffffffffff1681526020019081526020016000208190555080601060008a8a815181106141be577f4e487b7100000000000000000000000000000000000000000000000000000000600052603260045260246000fd5b602002602001015173ffffffffffffffffffffffffffffffffffffffff1673ffffffffffffffffffffffffffffffffffffffff1681526020019081526020016000205461420b9190615a56565b601060008a8a81518110614248577f4e487b7100000000000000000000000000000000000000000000000000000000600052603260045260246000fd5b602002602001015173ffffffffffffffffffffffffffffffffffffffff1673ffffffffffffffffffffffffffffffffffffffff1681526020019081526020016000208190555050506145df565b600082856142a39190615b37565b905082600e60008673ffffffffffffffffffffffffffffffffffffffff1673ffffffffffffffffffffffffffffffffffffffff168152602001908152602001600020546142f09190615a56565b600e60008673ffffffffffffffffffffffffffffffffffffffff1673ffffffffffffffffffffffffffffffffffffffff1681526020019081526020016000208190555082601060008673ffffffffffffffffffffffffffffffffffffffff1673ffffffffffffffffffffffffffffffffffffffff1681526020019081526020016000205461437e9190615a56565b601060008673ffffffffffffffffffffffffffffffffffffffff1673ffffffffffffffffffffffffffffffffffffffff1681526020019081526020016000208190555080600e60008989815181106143ff577f4e487b7100000000000000000000000000000000000000000000000000000000600052603260045260246000fd5b602002602001015173ffffffffffffffffffffffffffffffffffffffff1673ffffffffffffffffffffffffffffffffffffffff1681526020019081526020016000205461444c9190615a56565b600e6000898981518110614489577f4e487b7100000000000000000000000000000000000000000000000000000000600052603260045260246000fd5b602002602001015173ffffffffffffffffffffffffffffffffffffffff1673ffffffffffffffffffffffffffffffffffffffff16815260200190815260200160002081905550806010600089898151811061450d577f4e487b7100000000000000000000000000000000000000000000000000000000600052603260045260246000fd5b602002602001015173ffffffffffffffffffffffffffffffffffffffff1673ffffffffffffffffffffffffffffffffffffffff1681526020019081526020016000205461455a9190615a56565b60106000898981518110614597577f4e487b7100000000000000000000000000000000000000000000000000000000600052603260045260246000fd5b602002602001015173ffffffffffffffffffffffffffffffffffffffff1673ffffffffffffffffffffffffffffffffffffffff16815260200190815260200160002081905550505b5050614803565b81600e6000868681518110614624577f4e487b7100000000000000000000000000000000000000000000000000000000600052603260045260246000fd5b602002602001015173ffffffffffffffffffffffffffffffffffffffff1673ffffffffffffffffffffffffffffffffffffffff168152602001908152602001600020546146719190615a56565b600e60008686815181106146ae577f4e487b7100000000000000000000000000000000000000000000000000000000600052603260045260246000fd5b602002602001015173ffffffffffffffffffffffffffffffffffffffff1673ffffffffffffffffffffffffffffffffffffffff168152602001908152602001600020819055508160106000868681518110614732577f4e487b7100000000000000000000000000000000000000000000000000000000600052603260045260246000fd5b602002602001015173ffffffffffffffffffffffffffffffffffffffff1673ffffffffffffffffffffffffffffffffffffffff1681526020019081526020016000205461477f9190615a56565b601060008686815181106147bc577f4e487b7100000000000000000000000000000000000000000000000000000000600052603260045260246000fd5b602002602001015173ffffffffffffffffffffffffffffffffffffffff1673ffffffffffffffffffffffffffffffffffffffff168152602001908152602001600020819055505b5050808061481090615cd3565b9150506139ed565b505050565b6000818361482b9190615b37565b905092915050565b828054828255906000526020600020908101928215614882579160200282015b828111156148815782518290805190602001906148719291906149f5565b5091602001919060010190614853565b5b50905061488f9190614a7b565b5090565b82805482825590600052602060002090810192821561490c579160200282015b8281111561490b5782518260006101000a81548173ffffffffffffffffffffffffffffffffffffffff021916908373ffffffffffffffffffffffffffffffffffffffff160217905550916020019190600101906148b3565b5b5090506149199190614a9f565b5090565b82805482825590600052602060002090810192821561495e5760005260206000209182015b8281111561495d578254825591600101919060010190614942565b5b50905061496b9190614a9f565b5090565b82805461497b90615c3e565b90600052602060002090601f01602090048101928261499d57600085556149e4565b82601f106149b657805160ff19168380011785556149e4565b828001600101855582156149e4579182015b828111156149e35782518255916020019190600101906149c8565b5b5090506149f19190614a9f565b5090565b828054614a0190615c3e565b90600052602060002090601f016020900481019282614a235760008555614a6a565b82601f10614a3c57805160ff1916838001178555614a6a565b82800160010185558215614a6a579182015b82811115614a69578251825591602001919060010190614a4e565b5b509050614a779190614a9f565b5090565b5b80821115614a9b5760008181614a929190614abc565b50600101614a7c565b5090565b5b80821115614ab8576000816000905550600101614aa0565b5090565b508054614ac890615c3e565b6000825580601f10614ada5750614af9565b601f016020900490600052602060002090810190614af89190614a9f565b5b50565b6000614b0f614b0a8461594d565b61591c565b90508083825260208201905082856020860282011115614b2e57600080fd5b60005b85811015614b5e5781614b448882614c03565b845260208401935060208301925050600181019050614b31565b5050509392505050565b6000614b7b614b7684615979565b61591c565b9050808382526020820190508260005b85811015614bbb5781358501614ba18882614cab565b845260208401935060208301925050600181019050614b8b565b5050509392505050565b6000614bd8614bd3846159a5565b61591c565b905082815260208101848484011115614bf057600080fd5b614bfb848285615bfc565b509392505050565b600081359050614c1281615e33565b92915050565b600081519050614c2781615e33565b92915050565b600082601f830112614c3e57600080fd5b8135614c4e848260208601614afc565b91505092915050565b600082601f830112614c6857600080fd5b8135614c78848260208601614b68565b91505092915050565b600081519050614c9081615e4a565b92915050565b600081359050614ca581615e61565b92915050565b600082601f830112614cbc57600080fd5b8135614ccc848260208601614bc5565b91505092915050565b600081359050614ce481615e78565b92915050565b600081519050614cf981615e78565b92915050565b600081519050614d0e81615e8f565b92915050565b600060208284031215614d2657600080fd5b6000614d3484828501614c03565b91505092915050565b600060208284031215614d4f57600080fd5b6000614d5d84828501614c18565b91505092915050565b60008060408385031215614d7957600080fd5b6000614d8785828601614c03565b925050602083013567ffffffffffffffff811115614da457600080fd5b614db085828601614c2d565b9150509250929050565b600060208284031215614dcc57600080fd5b600082013567ffffffffffffffff811115614de657600080fd5b614df284828501614c2d565b91505092915050565b600060208284031215614e0d57600080fd5b600082013567ffffffffffffffff811115614e2757600080fd5b614e3384828501614c57565b91505092915050565b600060208284031215614e4e57600080fd5b6000614e5c84828501614c81565b91505092915050565b600060208284031215614e7757600080fd5b6000614e8584828501614c96565b91505092915050565b600060208284031215614ea057600080fd5b600082013567ffffffffffffffff811115614eba57600080fd5b614ec684828501614cab565b91505092915050565b600060208284031215614ee157600080fd5b6000614eef84828501614cd5565b91505092915050565b600060208284031215614f0a57600080fd5b6000614f1884828501614cea565b91505092915050565b60008060408385031215614f3457600080fd5b6000614f4285828601614cd5565b9250506020614f5385828601614cd5565b9150509250929050565b60008060008060808587031215614f7357600080fd5b6000614f8187828801614cd5565b9450506020614f9287828801614cd5565b9350506040614fa387828801614c03565b9250506060614fb487828801614c03565b91505092959194509250565b600060208284031215614fd257600080fd5b6000614fe084828501614cff565b91505092915050565b6000614ff58383615010565b60208301905092915050565b61500a81615b9d565b82525050565b61501981615b8b565b82525050565b61502881615b8b565b82525050565b6000615039826159ea565b6150438185615a18565b935061504e836159d5565b8060005b838110156150865761506382615e02565b61506d8882614fe9565b975061507883615a0b565b925050600181019050615052565b5085935050505092915050565b600061509e826159f5565b6150a88185615a29565b93506150b8818560208601615c0b565b6150c181615e15565b840191505092915050565b60006150d7826159f5565b6150e18185615a3a565b93506150f1818560208601615c0b565b80840191505092915050565b61510681615bbb565b82525050565b600061511782615a00565b6151218185615a45565b9350615131818560208601615c0b565b61513a81615e15565b840191505092915050565b6000615152602983615a45565b91507f44656c65676174652043616c6c20746f20436c61696d2048656c70657220686160008301527f73204661696c65642e00000000000000000000000000000000000000000000006020830152604082019050919050565b60006151b8602683615a45565b91507f4f776e61626c653a206e6577206f776e657220697320746865207a65726f206160008301527f64647265737300000000000000000000000000000000000000000000000000006020830152604082019050919050565b600061521e602883615a45565b91507f4e6f20686f6c6465727320466f72205468697320496e766573746d656e74204360008301527f6f6e74726163742e0000000000000000000000000000000000000000000000006020830152604082019050919050565b6000615284602383615a45565b91507f416d6f756e7420746f205769746864726177206973205a65726f206f72204c6560008301527f73732e00000000000000000000000000000000000000000000000000000000006020830152604082019050919050565b60006152ea600883615a45565b91507f54726561737572790000000000000000000000000000000000000000000000006000830152602082019050919050565b600061532a601783615a45565b91507f4e6f204c5020416464726573732044657465637465642e0000000000000000006000830152602082019050919050565b600061536a602b83615a45565b91507f44656c65676174652043616c6c20746f204465706f7369742048656c7065722060008301527f686173204661696c65642e0000000000000000000000000000000000000000006020830152604082019050919050565b60006153d0602e83615a45565b91507f44656c65676174652043616c6c20746f2057697468647261772053696e676c6560008301527f20446964204e6f7420576f726b2e0000000000000000000000000000000000006020830152604082019050919050565b6000615436602083615a45565b91507f4f776e61626c653a2063616c6c6572206973206e6f7420746865206f776e65726000830152602082019050919050565b6000615476600d83615a45565b91507f4f7574206f6620626f756e6473000000000000000000000000000000000000006000830152602082019050919050565b60006154b6602283615a45565b91507f416d6f756e7420746f204465706f736974206973205a65726f206f72204c657360008301527f732e0000000000000000000000000000000000000000000000000000000000006020830152604082019050919050565b600061551c602283615a45565b91507f5769746864726177616c20416d6f756e7420457863656564732042616c616e6360008301527f652e0000000000000000000000000000000000000000000000000000000000006020830152604082019050919050565b61557e81615be5565b82525050565b600061559082846150cc565b915081905092915050565b60006020820190506155b0600083018461501f565b92915050565b60006020820190506155cb6000830184615001565b92915050565b60006040820190506155e66000830185615001565b6155f3602083018461501f565b9392505050565b600060408201905061560f600083018561501f565b61561c6020830184615575565b9392505050565b6000606082019050818103600083015261563d818661502e565b905061564c602083018561501f565b6156596040830184615001565b949350505050565b6000602082019050818103600083015261567b8184615093565b905092915050565b600060208201905061569860008301846150fd565b92915050565b600060208201905081810360008301526156b8818461510c565b905092915050565b600060208201905081810360008301526156d981615145565b9050919050565b600060208201905081810360008301526156f9816151ab565b9050919050565b6000602082019050818103600083015261571981615211565b9050919050565b6000602082019050818103600083015261573981615277565b9050919050565b60006020820190508181036000830152615759816152dd565b9050919050565b600060208201905081810360008301526157798161531d565b9050919050565b600060208201905081810360008301526157998161535d565b9050919050565b600060208201905081810360008301526157b9816153c3565b9050919050565b600060208201905081810360008301526157d981615429565b9050919050565b600060208201905081810360008301526157f981615469565b9050919050565b60006020820190508181036000830152615819816154a9565b9050919050565b600060208201905081810360008301526158398161550f565b9050919050565b60006020820190506158556000830184615575565b92915050565b60006080820190506158706000830187615575565b61587d602083018661501f565b61588a604083018561501f565b6158976060830184615001565b95945050505050565b60006060820190506158b56000830186615575565b6158c26020830185615575565b6158cf6040830184615001565b949350505050565b60006080820190506158ec6000830187615575565b6158f96020830186615575565b615906604083018561501f565b615913606083018461501f565b95945050505050565b6000604051905081810181811067ffffffffffffffff8211171561594357615942615dd3565b5b8060405250919050565b600067ffffffffffffffff82111561596857615967615dd3565b5b602082029050602081019050919050565b600067ffffffffffffffff82111561599457615993615dd3565b5b602082029050602081019050919050565b600067ffffffffffffffff8211156159c0576159bf615dd3565b5b601f19601f8301169050602081019050919050565b60008190508160005260206000209050919050565b600081549050919050565b600081519050919050565b600081519050919050565b6000600182019050919050565b600082825260208201905092915050565b600082825260208201905092915050565b600081905092915050565b600082825260208201905092915050565b6000615a6182615be5565b9150615a6c83615be5565b9250827fffffffffffffffffffffffffffffffffffffffffffffffffffffffffffffffff03821115615aa157615aa0615d46565b5b828201905092915050565b6000615ab782615be5565b9150615ac283615be5565b925082615ad257615ad1615d75565b5b828204905092915050565b6000615ae882615be5565b9150615af383615be5565b9250817fffffffffffffffffffffffffffffffffffffffffffffffffffffffffffffffff0483118215151615615b2c57615b2b615d46565b5b828202905092915050565b6000615b4282615be5565b9150615b4d83615be5565b925082821015615b6057615b5f615d46565b5b828203905092915050565b600073ffffffffffffffffffffffffffffffffffffffff82169050919050565b6000615b9682615bc5565b9050919050565b6000615ba882615bc5565b9050919050565b60008115159050919050565b6000819050919050565b600073ffffffffffffffffffffffffffffffffffffffff82169050919050565b6000819050919050565b600060ff82169050919050565b82818337600083830152505050565b60005b83811015615c29578082015181840152602081019050615c0e565b83811115615c38576000848401525b50505050565b60006002820490506001821680615c5657607f821691505b60208210811415615c6a57615c69615da4565b5b50919050565b6000615c83615c7e83615e26565b615b6b565b9050919050565b6000615c9582615bbb565b91507f7fffffffffffffffffffffffffffffffffffffffffffffffffffffffffffffff821415615cc857615cc7615d46565b5b600182019050919050565b6000615cde82615be5565b91507fffffffffffffffffffffffffffffffffffffffffffffffffffffffffffffffff821415615d1157615d10615d46565b5b600182019050919050565b6000615d2782615bef565b915060ff821415615d3b57615d3a615d46565b5b600182019050919050565b7f4e487b7100000000000000000000000000000000000000000000000000000000600052601160045260246000fd5b7f4e487b7100000000000000000000000000000000000000000000000000000000600052601260045260246000fd5b7f4e487b7100000000000000000000000000000000000000000000000000000000600052602260045260246000fd5b7f4e487b7100000000000000000000000000000000000000000000000000000000600052604160045260246000fd5b6000615e0e8254615c70565b9050919050565b6000601f19601f8301169050919050565b60008160001c9050919050565b615e3c81615b8b565b8114615e4757600080fd5b50565b615e5381615baf565b8114615e5e57600080fd5b50565b615e6a81615bbb565b8114615e7557600080fd5b50565b615e8181615be5565b8114615e8c57600080fd5b50565b615e9881615bef565b8114615ea357600080fd5b5056fea264697066735822122003836718a04373d293c4ada8a73fa81fefd1e6ab6a1fca3b20c3c87caa64ba2464736f6c63430008000033",
  "linkReferences": {},
  "deployedLinkReferences": {}
}