{
  "_format": "hh-sol-artifact-1",
  "contractName": "AddressRouter",
  "sourceName": "contracts/AddressRouter.sol",
  "abi": [
    {
      "inputs": [],
      "stateMutability": "nonpayable",
      "type": "constructor"
    },
    {
      "anonymous": false,
      "inputs": [
        {
          "indexed": true,
          "internalType": "address",
          "name": "previousOwner",
          "type": "address"
        },
        {
          "indexed": true,
          "internalType": "address",
          "name": "newOwner",
          "type": "address"
        }
      ],
      "name": "OwnershipTransferred",
      "type": "event"
    },
    {
      "inputs": [
        {
          "internalType": "string",
          "name": "_name",
          "type": "string"
        },
        {
          "internalType": "address",
          "name": "_newAddress",
          "type": "address"
        }
      ],
      "name": "addAddressDirectory",
      "outputs": [],
      "stateMutability": "nonpayable",
      "type": "function"
    },
    {
      "inputs": [
        {
          "internalType": "string",
          "name": "_name",
          "type": "string"
        },
        {
          "internalType": "address",
          "name": "_newAddress",
          "type": "address"
        }
      ],
      "name": "editAddressDirectory",
      "outputs": [],
      "stateMutability": "nonpayable",
      "type": "function"
    },
    {
      "inputs": [],
      "name": "owner",
      "outputs": [
        {
          "internalType": "address",
          "name": "",
          "type": "address"
        }
      ],
      "stateMutability": "view",
      "type": "function"
    },
    {
      "inputs": [],
      "name": "renounceOwnership",
      "outputs": [],
      "stateMutability": "nonpayable",
      "type": "function"
    },
    {
      "inputs": [
        {
          "internalType": "address",
          "name": "newOwner",
          "type": "address"
        }
      ],
      "name": "transferOwnership",
      "outputs": [],
      "stateMutability": "nonpayable",
      "type": "function"
    },
    {
      "inputs": [
        {
          "internalType": "string",
          "name": "_name",
          "type": "string"
        }
      ],
      "name": "viewAddressDirectory",
      "outputs": [
        {
          "internalType": "address",
          "name": "",
          "type": "address"
        }
      ],
      "stateMutability": "view",
      "type": "function"
    }
  ],
  "bytecode": "0x60806040523480156200001157600080fd5b50620000326200002662000c9460201b60201c565b62000c9c60201b60201c565b73258b4251bb0eddc1c2860f7346afdac5260607a16001604051620000579062001595565b908152602001604051809103902060006101000a81548173ffffffffffffffffffffffffffffffffffffffff021916908373ffffffffffffffffffffffffffffffffffffffff160217905550736e84a6216ea6dacc71ee8e6b0a5b7322eebc0fdd6001604051620000c890620016c0565b908152602001604051809103902060006101000a81548173ffffffffffffffffffffffffffffffffffffffff021916908373ffffffffffffffffffffffffffffffffffffffff16021790555073d586e7f844cea2f87f50152665bcbc2c279d8d706001604051620001399062001664565b908152602001604051809103902060006101000a81548173ffffffffffffffffffffffffffffffffffffffff021916908373ffffffffffffffffffffffffffffffffffffffff16021790555073b97ef9ef8734c71904d8002f8b6bc66dd9c48a6e6001604051620001aa90620016a9565b908152602001604051809103902060006101000a81548173ffffffffffffffffffffffffffffffffffffffff021916908373ffffffffffffffffffffffffffffffffffffffff16021790555073a7d7079b0fead91f3e65f86e8915cb59c1a4c66460016040516200021b90620016ee565b908152602001604051809103902060006101000a81548173ffffffffffffffffffffffffffffffffffffffff021916908373ffffffffffffffffffffffffffffffffffffffff1602179055507350b7545627a5162f82a992c33b87adc75187b21860016040516200028c9062001636565b908152602001604051809103902060006101000a81548173ffffffffffffffffffffffffffffffffffffffff021916908373ffffffffffffffffffffffffffffffffffffffff16021790555073152b9d0fdc40c096757f570a51e494bd4b943e506001604051620002fd906200167b565b908152602001604051809103902060006101000a81548173ffffffffffffffffffffffffffffffffffffffff021916908373ffffffffffffffffffffffffffffffffffffffff16021790555073b31f66aa3c1e785363f0875a1b74e27b85fd66c760016040516200036e9062001539565b908152602001604051809103902060006101000a81548173ffffffffffffffffffffffffffffffffffffffff021916908373ffffffffffffffffffffffffffffffffffffffff160217905550735817d4f0b62a59b17f75207da1848c2ce75e7af46001604051620003df90620015f1565b908152602001604051809103902060006101000a81548173ffffffffffffffffffffffffffffffffffffffff021916908373ffffffffffffffffffffffffffffffffffffffff1602179055507322d4002028f537599be9f666d1c4fa138522f9c86001604051620004509062001692565b908152602001604051809103902060006101000a81548173ffffffffffffffffffffffffffffffffffffffff021916908373ffffffffffffffffffffffffffffffffffffffff160217905550739702230a8ea53601f5cd2dc00fdbc13d4df4a8c76001604051620004c190620015c3565b908152602001604051809103902060006101000a81548173ffffffffffffffffffffffffffffffffffffffff021916908373ffffffffffffffffffffffffffffffffffffffff1602179055507349d5c2bdffac6ce2bfdb6640f4f80f226bc10bab600160405162000532906200164d565b908152602001604051809103902060006101000a81548173ffffffffffffffffffffffffffffffffffffffff021916908373ffffffffffffffffffffffffffffffffffffffff16021790555073c1ac7d1405b87259b8d380e0041d0573fb0acb8c6001604051620005a3906200150b565b908152602001604051809103902060006101000a81548173ffffffffffffffffffffffffffffffffffffffff021916908373ffffffffffffffffffffffffffffffffffffffff16021790555073994f0e36ceb953105d05897537bf55d20124515660016040516200061490620014af565b908152602001604051809103902060006101000a81548173ffffffffffffffffffffffffffffffffffffffff021916908373ffffffffffffffffffffffffffffffffffffffff160217905550735f334870a37516434ee2433a8c325fb7957661f96001604051620006859062001567565b908152602001604051809103902060006101000a81548173ffffffffffffffffffffffffffffffffffffffff021916908373ffffffffffffffffffffffffffffffffffffffff16021790555073ca0ee0073ee80ab1a82d266b081fcde01bbe6c6a6001604051620006f690620015da565b908152602001604051809103902060006101000a81548173ffffffffffffffffffffffffffffffffffffffff021916908373ffffffffffffffffffffffffffffffffffffffff16021790555073ff5386af93cf4bd8d5aecad6df7f4f4be381fd6960016040516200076790620015ac565b908152602001604051809103902060006101000a81548173ffffffffffffffffffffffffffffffffffffffff021916908373ffffffffffffffffffffffffffffffffffffffff16021790555073473bd859797f781d1626b9c6f9b3065ff741e14c6001604051620007d890620014c6565b908152602001604051809103902060006101000a81548173ffffffffffffffffffffffffffffffffffffffff021916908373ffffffffffffffffffffffffffffffffffffffff160217905550738b3d9f0017fa369cd8c164d0cc078bf4ca588ae5600160405162000849906200161f565b908152602001604051809103902060006101000a81548173ffffffffffffffffffffffffffffffffffffffff021916908373ffffffffffffffffffffffffffffffffffffffff1602179055507360ae616a2155ee3d9a68541ba4544862310933d46001604051620008ba9062001550565b908152602001604051809103902060006101000a81548173ffffffffffffffffffffffffffffffffffffffff021916908373ffffffffffffffffffffffffffffffffffffffff1602179055507360ae616a2155ee3d9a68541ba4544862310933d460016040516200092b906200157e565b908152602001604051809103902060006101000a81548173ffffffffffffffffffffffffffffffffffffffff021916908373ffffffffffffffffffffffffffffffffffffffff1602179055507360ae616a2155ee3d9a68541ba4544862310933d460016040516200099c90620014dd565b908152602001604051809103902060006101000a81548173ffffffffffffffffffffffffffffffffffffffff021916908373ffffffffffffffffffffffffffffffffffffffff160217905550732fd81391e30805cc7f2ec827013ce86dc591b806600160405162000a0d9062001608565b908152602001604051809103902060006101000a81548173ffffffffffffffffffffffffffffffffffffffff021916908373ffffffffffffffffffffffffffffffffffffffff16021790555073fe15c2695f1f920da45c30aae47d11de51007af9600160405162000a7e9062001498565b908152602001604051809103902060006101000a81548173ffffffffffffffffffffffffffffffffffffffff021916908373ffffffffffffffffffffffffffffffffffffffff16021790555073bb4646a764358ee93c2a9c4a147d5aded527ab73600160405162000aef90620014f4565b908152602001604051809103902060006101000a81548173ffffffffffffffffffffffffffffffffffffffff021916908373ffffffffffffffffffffffffffffffffffffffff160217905550739ef0c12b787f90f59cbbe0b611b82d30cab92929600160405162000b609062001522565b908152602001604051809103902060006101000a81548173ffffffffffffffffffffffffffffffffffffffff021916908373ffffffffffffffffffffffffffffffffffffffff16021790555073423d0fe33031aa4456a17b150804aa57fc157d97600160405162000bd19062001705565b908152602001604051809103902060006101000a81548173ffffffffffffffffffffffffffffffffffffffff021916908373ffffffffffffffffffffffffffffffffffffffff16021790555073d5817ac3027b1958961903238b374ecd8a5537a8600160405162000c4290620016d7565b908152602001604051809103902060006101000a81548173ffffffffffffffffffffffffffffffffffffffff021916908373ffffffffffffffffffffffffffffffffffffffff16021790555062001727565b600033905090565b60008060009054906101000a900473ffffffffffffffffffffffffffffffffffffffff169050816000806101000a81548173ffffffffffffffffffffffffffffffffffffffff021916908373ffffffffffffffffffffffffffffffffffffffff1602179055508173ffffffffffffffffffffffffffffffffffffffff168173ffffffffffffffffffffffffffffffffffffffff167f8be0079c531659141344cd1fd0a4f28419497f9722a3daafe3b4186f6b6457e060405160405180910390a35050565b600062000d6f600b836200171c565b91507f574554484541564158544a0000000000000000000000000000000000000000006000830152600b82019050919050565b600062000db16010836200171c565b91507f55534443566563746f7253696e676c65000000000000000000000000000000006000830152601082019050919050565b600062000df3600e836200171c565b91507f4254434241564158566563746f720000000000000000000000000000000000006000830152600e82019050919050565b600062000e356009836200171c565b91507f4a6f65526f7574657200000000000000000000000000000000000000000000006000830152600982019050919050565b600062000e77600a836200171c565b91507f5553445441564158544a000000000000000000000000000000000000000000006000830152600a82019050919050565b600062000eb9600f836200171c565b91507f444149566563746f7253696e676c6500000000000000000000000000000000006000830152600f82019050919050565b600062000efb6009836200171c565b91507f56545841564158544a00000000000000000000000000000000000000000000006000830152600982019050919050565b600062000f3d6004836200171c565b91507f41564158000000000000000000000000000000000000000000000000000000006000830152600482019050919050565b600062000f7f6010836200171c565b91507f4a6f65526f757465725370656e646572000000000000000000000000000000006000830152601082019050919050565b600062000fc16011836200171c565b91507f5742544345566563746f7253696e676c650000000000000000000000000000006000830152601182019050919050565b6000620010036011836200171c565b91507f53776170526f757465725370656e6465720000000000000000000000000000006000830152601182019050919050565b6000620010456008836200171c565b91507f54726561737572790000000000000000000000000000000000000000000000006000830152600882019050919050565b6000620010876010836200171c565b91507f41564158566563746f7253696e676c65000000000000000000000000000000006000830152601082019050919050565b6000620010c96004836200171c565b91507f55534454000000000000000000000000000000000000000000000000000000006000830152600482019050919050565b60006200110b6010836200171c565b91507f42544342566563746f7253696e676c65000000000000000000000000000000006000830152601082019050919050565b60006200114d6003836200171c565b91507f56545800000000000000000000000000000000000000000000000000000000006000830152600382019050919050565b60006200118f600a836200171c565b91507f4254434241564158544a000000000000000000000000000000000000000000006000830152600a82019050919050565b6000620011d16010836200171c565b91507f566563746f725074705370656e646572000000000000000000000000000000006000830152601082019050919050565b6000620012136004836200171c565b91507f57425443000000000000000000000000000000000000000000000000000000006000830152600482019050919050565b6000620012556005836200171c565b91507f57455448450000000000000000000000000000000000000000000000000000006000830152600582019050919050565b6000620012976003836200171c565b91507f44414900000000000000000000000000000000000000000000000000000000006000830152600382019050919050565b6000620012d96004836200171c565b91507f42544342000000000000000000000000000000000000000000000000000000006000830152600482019050919050565b60006200131b6003836200171c565b91507f50545000000000000000000000000000000000000000000000000000000000006000830152600382019050919050565b60006200135d6004836200171c565b91507f55534443000000000000000000000000000000000000000000000000000000006000830152600482019050919050565b60006200139f6003836200171c565b91507f4a4f4500000000000000000000000000000000000000000000000000000000006000830152600382019050919050565b6000620013e16014836200171c565b91507f42544341564158566563746f72547261636b65720000000000000000000000006000830152601482019050919050565b6000620014236005836200171c565b91507f55534443450000000000000000000000000000000000000000000000000000006000830152600582019050919050565b6000620014656010836200171c565b91507f566563746f724d617374657243686566000000000000000000000000000000006000830152601082019050919050565b6000620014a58262000d60565b9150819050919050565b6000620014bc8262000da2565b9150819050919050565b6000620014d38262000de4565b9150819050919050565b6000620014ea8262000e26565b9150819050919050565b6000620015018262000e68565b9150819050919050565b6000620015188262000eaa565b9150819050919050565b60006200152f8262000eec565b9150819050919050565b6000620015468262000f2e565b9150819050919050565b60006200155d8262000f70565b9150819050919050565b6000620015748262000fb2565b9150819050919050565b60006200158b8262000ff4565b9150819050919050565b6000620015a28262001036565b9150819050919050565b6000620015b98262001078565b9150819050919050565b6000620015d082620010ba565b9150819050919050565b6000620015e782620010fc565b9150819050919050565b6000620015fe826200113e565b9150819050919050565b6000620016158262001180565b9150819050919050565b60006200162c82620011c2565b9150819050919050565b6000620016438262001204565b9150819050919050565b60006200165a8262001246565b9150819050919050565b6000620016718262001288565b9150819050919050565b60006200168882620012ca565b9150819050919050565b60006200169f826200130c565b9150819050919050565b6000620016b6826200134e565b9150819050919050565b6000620016cd8262001390565b9150819050919050565b6000620016e482620013d2565b9150819050919050565b6000620016fb8262001414565b9150819050919050565b6000620017128262001456565b9150819050919050565b600081905092915050565b610c1780620017376000396000f3fe608060405234801561001057600080fd5b50600436106100625760003560e01c8063145acd2b146100675780632570a74214610083578063715018a6146100b35780638da5cb5b146100bd578063bd94f1ce146100db578063f2fde38b146100f7575b600080fd5b610081600480360381019061007c91906107d3565b610113565b005b61009d60048036038101906100989190610792565b61029e565b6040516100aa91906109e4565b60405180910390f35b6100bb6102e6565b005b6100c561036e565b6040516100d291906109e4565b60405180910390f35b6100f560048036038101906100f091906107d3565b610397565b005b610111600480360381019061010c9190610769565b610528565b005b61011b610620565b73ffffffffffffffffffffffffffffffffffffffff1661013961036e565b73ffffffffffffffffffffffffffffffffffffffff161461018f576040517f08c379a000000000000000000000000000000000000000000000000000000000815260040161018690610a3f565b60405180910390fd5b600073ffffffffffffffffffffffffffffffffffffffff166001836040516101b791906109cd565b908152602001604051809103902060009054906101000a900473ffffffffffffffffffffffffffffffffffffffff1673ffffffffffffffffffffffffffffffffffffffff16141561023d576040517f08c379a000000000000000000000000000000000000000000000000000000000815260040161023490610a5f565b60405180910390fd5b8060018360405161024e91906109cd565b908152602001604051809103902060006101000a81548173ffffffffffffffffffffffffffffffffffffffff021916908373ffffffffffffffffffffffffffffffffffffffff1602179055505050565b60006001826040516102b091906109cd565b908152602001604051809103902060009054906101000a900473ffffffffffffffffffffffffffffffffffffffff169050919050565b6102ee610620565b73ffffffffffffffffffffffffffffffffffffffff1661030c61036e565b73ffffffffffffffffffffffffffffffffffffffff1614610362576040517f08c379a000000000000000000000000000000000000000000000000000000000815260040161035990610a3f565b60405180910390fd5b61036c6000610628565b565b60008060009054906101000a900473ffffffffffffffffffffffffffffffffffffffff16905090565b61039f610620565b73ffffffffffffffffffffffffffffffffffffffff166103bd61036e565b73ffffffffffffffffffffffffffffffffffffffff1614610413576040517f08c379a000000000000000000000000000000000000000000000000000000000815260040161040a90610a3f565b60405180910390fd5b6000825111610457576040517f08c379a000000000000000000000000000000000000000000000000000000000815260040161044e90610a7f565b60405180910390fd5b600073ffffffffffffffffffffffffffffffffffffffff168173ffffffffffffffffffffffffffffffffffffffff1614156104c7576040517f08c379a00000000000000000000000000000000000000000000000000000000081526004016104be90610a1f565b60405180910390fd5b806001836040516104d891906109cd565b908152602001604051809103902060006101000a81548173ffffffffffffffffffffffffffffffffffffffff021916908373ffffffffffffffffffffffffffffffffffffffff1602179055505050565b610530610620565b73ffffffffffffffffffffffffffffffffffffffff1661054e61036e565b73ffffffffffffffffffffffffffffffffffffffff16146105a4576040517f08c379a000000000000000000000000000000000000000000000000000000000815260040161059b90610a3f565b60405180910390fd5b600073ffffffffffffffffffffffffffffffffffffffff168173ffffffffffffffffffffffffffffffffffffffff161415610614576040517f08c379a000000000000000000000000000000000000000000000000000000000815260040161060b906109ff565b60405180910390fd5b61061d81610628565b50565b600033905090565b60008060009054906101000a900473ffffffffffffffffffffffffffffffffffffffff169050816000806101000a81548173ffffffffffffffffffffffffffffffffffffffff021916908373ffffffffffffffffffffffffffffffffffffffff1602179055508173ffffffffffffffffffffffffffffffffffffffff168173ffffffffffffffffffffffffffffffffffffffff167f8be0079c531659141344cd1fd0a4f28419497f9722a3daafe3b4186f6b6457e060405160405180910390a35050565b60006106ff6106fa84610ad0565b610a9f565b90508281526020810184848401111561071757600080fd5b610722848285610b59565b509392505050565b60008135905061073981610bca565b92915050565b600082601f83011261075057600080fd5b81356107608482602086016106ec565b91505092915050565b60006020828403121561077b57600080fd5b60006107898482850161072a565b91505092915050565b6000602082840312156107a457600080fd5b600082013567ffffffffffffffff8111156107be57600080fd5b6107ca8482850161073f565b91505092915050565b600080604083850312156107e657600080fd5b600083013567ffffffffffffffff81111561080057600080fd5b61080c8582860161073f565b925050602061081d8582860161072a565b9150509250929050565b61083081610b27565b82525050565b600061084182610b00565b61084b8185610b1c565b935061085b818560208601610b68565b80840191505092915050565b6000610874602683610b0b565b91507f4f776e61626c653a206e6577206f776e657220697320746865207a65726f206160008301527f64647265737300000000000000000000000000000000000000000000000000006020830152604082019050919050565b60006108da601083610b0b565b91507f496e76616c696420616464726573732e000000000000000000000000000000006000830152602082019050919050565b600061091a602083610b0b565b91507f4f776e61626c653a2063616c6c6572206973206e6f7420746865206f776e65726000830152602082019050919050565b600061095a601483610b0b565b91507f4e616d6520646f6573206e6f742065786973742e0000000000000000000000006000830152602082019050919050565b600061099a600e83610b0b565b91507f4e616d6520697320656d7074792e0000000000000000000000000000000000006000830152602082019050919050565b60006109d98284610836565b915081905092915050565b60006020820190506109f96000830184610827565b92915050565b60006020820190508181036000830152610a1881610867565b9050919050565b60006020820190508181036000830152610a38816108cd565b9050919050565b60006020820190508181036000830152610a588161090d565b9050919050565b60006020820190508181036000830152610a788161094d565b9050919050565b60006020820190508181036000830152610a988161098d565b9050919050565b6000604051905081810181811067ffffffffffffffff82111715610ac657610ac5610b9b565b5b8060405250919050565b600067ffffffffffffffff821115610aeb57610aea610b9b565b5b601f19601f8301169050602081019050919050565b600081519050919050565b600082825260208201905092915050565b600081905092915050565b6000610b3282610b39565b9050919050565b600073ffffffffffffffffffffffffffffffffffffffff82169050919050565b82818337600083830152505050565b60005b83811015610b86578082015181840152602081019050610b6b565b83811115610b95576000848401525b50505050565b7f4e487b7100000000000000000000000000000000000000000000000000000000600052604160045260246000fd5b610bd381610b27565b8114610bde57600080fd5b5056fea2646970667358221220fbd6928dff543b4ea613add37d89305fd744339b4ed9fee4d060f13f7e3aab4964736f6c63430008000033",
  "linkReferences": {},
  "deployedLinkReferences": {}
}